:020000040000FA
:100000000C9462000C948A000C948A000C948A0070
:100010000C948A000C948A000C948A000C948A0038
:100020000C948A000C948A000C948A000C948A0028
:100030000C948A000C948A000C948A000C948A0018
:100040000C94CD070C948A000C943D080C9417086E
:100050000C948A000C948A000C948A000C948A00F8
:100060000C948A000C948A000000000024002700F1
:100070002A0000000000250028002B0000000000DE
:1000800023002600290004040404040404040202DA
:100090000202020203030303030301020408102007
:1000A0004080010204081020010204081020000012
:1000B0000008000201000003040700000000000027
:1000C00000006F0811241FBECFEFD8E0DEBFCDBF08
:1000D00011E0A0E0B1E0ECEAF1E202C005900D927F
:1000E000AA3BB107D9F722E0AAEBB1E001C01D920B
:1000F000A43CB207E1F710E0C2E6D0E004C02197CB
:10010000FE010E94820FC136D107C9F70E949B09E8
:100110000C94D4100C9400008F929F92AF92BF92D7
:10012000CF92DF92EF92FF920F931F93CF93DF93C3
:100130008B01D82FC92F9B01482F592F6091940212
:100140007091950280919602909197020E94370DCE
:10015000882309F43EC08090980290909902A09064
:100160009A02B0909B0275016401F7FAF094F7F8D7
:10017000F094A7019601B8018D2F9C2F0E94370D96
:1001800087FD0EC0A5019401B8018D2F9C2F0E9400
:10019000960E7501640118161CF06801ED2EFC2EF8
:1001A00020E030E0A901C701B6010E94370D81119E
:1001B0001DC010927F021092800210928102109254
:1001C0008202C0929402D0929502E0929602F0923E
:1001D0009702DF91CF911F910F91FF90EF90DF90E9
:1001E000CF90BF90AF909F908F900895A7019601F8
:1001F00060E074E284E799E40E943C0D9F770E94DE
:10020000B50D60937F02709380028093810290937A
:100210008202C1E020E030E0A901C701B6010E94DE
:10022000960E18160CF0C0E0C0937E02CACF833041
:1002300081F028F4813099F08230A9F00895873058
:10024000A9F08830C9F08430B1F4809180008F7DAE
:1002500003C0809180008F7780938000089584B5DB
:100260008F7784BD089584B58F7DFBCF8091B000DA
:100270008F778093B00008958091B0008F7DF9CF83
:10028000CF93DF93282F30E0F901E255FF4F84919F
:10029000F901E656FF4FD491F901EA57FF4FC49197
:1002A000CC23A1F081110E941701EC2FF0E0EE0F9A
:1002B000FF1FE458FF4FA591B491EC91ED2381E02D
:1002C00090E009F480E0DF91CF91089580E090E024
:1002D000FACF1F93CF93DF93282F30E0F901E25537
:1002E000FF4F8491F901E656FF4FD491F901EA5787
:1002F000FF4FC491CC23A9F0162F81110E94170142
:10030000EC2FF0E0EE0FFF1FEE58FF4FA591B491D8
:100310008FB7F894EC91111108C0D095DE23DC93CF
:100320008FBFDF91CF911F910895DE2BF8CFCF9330
:10033000DF9390E0FC01E656FF4F24918A579F4FD0
:10034000FC0184918823C9F090E0880F991FFC017B
:10035000E859FF4FA591B491FC01EE58FF4FC591AC
:10036000D49161110DC09FB7F8948C912095822390
:100370008C938881282328839FBFDF91CF91089594
:10038000623051F49FB7F8943C91822F809583237B
:100390008C93E8812E2BEFCF8FB7F894EC912E2B16
:1003A0002C938FBFEACF2FB7F8946091C50170915D
:1003B000C6018091C7019091C8012FBF0895AF92E7
:1003C000BF92CF92DF92EF92FF920F931F93CF9342
:1003D000DF936C017B018B01040F151FEB015E01A4
:1003E000AE18BF08C017D10759F06991D601ED9139
:1003F000FC910190F081E02DC6010995892B79F7D8
:10040000C501DF91CF911F910F91FF90EF90DF9089
:10041000CF90BF90AF900895FC01538D448D252F50
:1004200030E0842F90E0821B930B541710F0CF968E
:10043000089501970895FC01918D828D981761F0C0
:10044000A28DAE0FBF2FB11D5D968C91928D9F5FD7
:100450009F73928F90E008958FEF9FEF0895FC01B6
:10046000918D828D981731F0828DE80FF11D858D69
:1004700090E008958FEF9FEF0895FC01918D228DFC
:10048000892F90E0805C9F4F821B91098F73992781
:1004900008958DEC91E00E943D0221E0892B09F442
:1004A00020E0822F089580E090E0892B29F00E94BF
:1004B000490281110C9400000895FC01A48DA80F3D
:1004C000B92FB11DA35ABF4F2C91848D90E0019696
:1004D0008F739927848FA689B7892C93A089B189B6
:1004E0008C91837080648C93938D848D981306C057
:1004F0000288F389E02D80818F7D80830895EF92BB
:10050000FF920F931F93CF93DF93EC0181E0888FCD
:100510009B8D8C8D98131AC0E889F989808185FF9D
:1005200015C09FB7F894EE89FF896083E889F9893F
:1005300080818370806480839FBF81E090E0DF9141
:10054000CF911F910F91FF90EF900895F62E0B8D94
:1005500010E00F5F1F4F0F731127E02E8C8D8E114F
:100560000CC00FB607FCFACFE889F989808185FFB6
:10057000F5CFCE010E945D02F1CFEB8DEC0FFD2F88
:10058000F11DE35AFF4FF0829FB7F8940B8FEA8971
:10059000FB8980818062CFCFCF93DF93EC01888D80
:1005A0008823B9F0AA89BB89E889F9898C9185FDEE
:1005B00003C0808186FD0DC00FB607FCF7CF8C917C
:1005C00085FFF2CF808185FFEDCFCE010E945D02D5
:1005D000E9CFDF91CF910895862F642F0C94970176
:1005E000FC0181890E94400121E0892B09F420E06F
:1005F000822F0895CF93DF93FC012781222359F1A5
:10060000EC0161E080850E94970161E089850E948C
:1006100097018F81843011F08830B1F461E08A85D0
:100620000E94970161E08B850E9497018FA58F3F03
:1006300091F061E00E9497016EA581E068278FA587
:10064000DF91CF910C946901833011F0863071F7FE
:1006500061E08A85E9CFDF91CF910895CF93DF9351
:10066000FC0127812223A9F0EC010190F081E02D0B
:100670000284F385E02D60E009958FA58F3F49F056
:1006800061E00E9497016EA58FA5DF91CF910C9438
:100690006901DF91CF910895DC01ED91FC912285F4
:1006A00033854770552766277727415051096109DF
:1006B0007109473051056105710560F4FA01ED5982
:1006C000FC4F0C94820F6D036F037103730375036A
:1006D0007703790361E0F901099465E0FCCF64E0F8
:1006E000FACF66E0F8CF62E0F6CF6AE0F4CF68E0D8
:1006F000F2CF69E0F0CFCF93DF93EC01CB01BA01E9
:1007000026E030E040E050E00E94630F6230710567
:100710008105910589F16CF46115710581059105DB
:10072000D1F06130710581059105F9F0DF91CF912C
:100730000895643071058105910561F124F16530FA
:1007400071058105910591F7E881F9810284F385AE
:10075000E02D66E006C0E881F9810284F385E02D92
:1007600064E0CE01DF91CF910994E881F9810284A0
:10077000F385E02D65E0F5CFE881F9810284F3850A
:10078000E02D61E0EECFE881F9810284F385E02D70
:1007900063E0E7CFE881F9810284F385E02D62E030
:1007A000E0CFDC01ED91FC910284F385E02D4370F4
:1007B000552766277727423051056105710571F08D
:1007C000433051056105710559F04130510561050E
:1007D000710511F065E0099466E0FDCF6AE0FBCF9A
:1007E00069E0F9CFCF93DF93EC01CB01BA0123E0AD
:1007F00030E040E050E00E94630F613071058105F8
:10080000910599F06230710581059105A9F0672B7A
:10081000682B692BC1F4E881F9810284F385E02D0E
:1008200064E0CE01DF91CF910994E881F9810284DF
:10083000F385E02D61E0F5CFE881F9810284F3854D
:10084000E02D62E0EECFDF91CF910895DC01ED91D4
:10085000FC910284F385E02D4370552766277727A6
:10086000423051056105710571F043305105610554
:10087000710559F0413051056105710511F062E0D3
:10088000099463E0FDCF61E0FBCF60E0F9CFCF9347
:10089000DF93EC01E881F9810284F385E02D8A8100
:1008A00060E0811162E0CE010995E881F98102845E
:1008B000F385E02D8A8161E0811163E0CE01099525
:1008C0008CA59DA58230910538F0880F991F880F5F
:1008D000991F05970197F1F7E881F9810284F38563
:1008E000E02D8A8160E0811162E0CE01DF91CF913D
:1008F0000994CF93DF93EC0120E030E0A901688DEB
:10090000798D8A8D9B8D0E94960E18162CF4E8A97D
:10091000F9A9DF91CF910994EAA9FBA9FACFCF9267
:10092000DF92EF92FF920F931F93CF93DF93DC013F
:100930001796CC91C43039F0C83059F1C33019F052
:10094000C63049F1C2E08C01085F1F4FF12CE12C49
:10095000C62ED12CD1E0F8016481C6010E2C02C054
:10096000959587950A94E2F780FD6D270F5F1F4FDD
:1009700080810E946901BFEFEB1AFB0AEC1658F365
:10098000DF91CF911F910F91FF90EF90DF90CF906B
:100990000895C4E0D8CFC3E0D6CFDC011796EC9120
:1009A0001797E93008F038C0F0E0E752FB4F0C949D
:1009B000820FE204E804EE04F404FA040C050005D6
:1009C0000C050605ED91FC910684F785E02D099450
:1009D000ED91FC910088F189E02DF9CFED91FC912A
:1009E0000288F389E02DF3CFED91FC910488F5891D
:1009F000E02DEDCFED91FC910688F789E02DE7CF52
:100A0000ED91FC91008CF18DE02DE1CFED91FC9109
:100A1000028CF38DE02DDBCF0895CF92DF92EF9221
:100A2000FF9280917F0290918002A0918102B0910B
:100A30008202892B8A2B8B2B31F480E0FF90EF9080
:100A4000DF90CF9008953FB7F8948091C9019091BD
:100A5000CA01A091CB01B091CC0126B5A89B05C0DD
:100A60002F3F19F00196A11DB11D3FBFBA2FA92F2D
:100A7000982F88276C017D01C20ED11CE11CF11C4E
:100A800042E0CC0CDD1CEE1CFF1C4A95D1F7809196
:100A9000A4029091A502A091A602B091A702B7016D
:100AA000A601481B590B6A0B7B0B80917F0290912A
:100AB0008002A0918102B0918202481759076A070B
:100AC0007B0708F4BACF80918C0290918D02A0919F
:100AD0008E02B0918F0220917E02222309F10196AD
:100AE000A11DB11D80938C0290938D02A0938E0264
:100AF000B0938F0240918C0250918D0260918E02D2
:100B000070918F028CE792E00E94CD04C092A40203
:100B1000D092A502E092A602F092A70281E08ECFC9
:100B20000197A109B109DECF4F925F926F927F9238
:100B30008F929F92AF92BF92CF92DF92EF92FF92ED
:100B40000F931F93CF93DF93EC01CC88DD88EE8861
:100B5000FF8888899989AA89BB89C81AD90AEA0AAB
:100B6000FB0A688D798D8A8D9B8D9B01AC010E945B
:100B70009B0E4B015C0168A179A18AA19BA19B01FD
:100B8000AC010E94CB0C9B01AC01C501B4010E94D9
:100B90003C0D0E94AE0DC114D104E104F10409F032
:100BA000B6C062307105810591050CF0D0C01B8282
:100BB0001C821D821E82188E198E1A8E1B8E1CAAF4
:100BC0001DAA1EAA1FAAC12CD12C7601C701B601ED
:100BD000DF91CF911F910F91FF90EF90DF90CF9019
:100BE000BF90AF909F908F907F906F905F904F904D
:100BF00008951016110612061306B4F46C157D053F
:100C00008E059F051CF42A812111A1C09B01AC0116
:100C100088279927DC01821B930BA40BB50B8CABA7
:100C20009DABAEABBFAB93C00115110521053105DE
:100C300009F48DC06C157D058E059F050CF087C0ED
:100C40008A81882309F483C03095209510950195F9
:100C50001F4F2F4F3F4F0CAB1DAB2EAB3FAB77C0A1
:100C6000011511052105310509F471C08824992465
:100C700054018C189D08AE08BF08681579058A05CF
:100C80009B050CF064C08A81811161C0DDCFCCACC2
:100C9000DDACEEACFFACA7019601C701B6010E9426
:100CA000CB0C2B013C01C501B4010E94E60D20E0F4
:100CB00030E040E850E40E949B0E20E030E040E845
:100CC0005FE30E94CB0C9B01AC01C301B2010E9407
:100CD0003C0D9B01AC01C701B6010E94CA0C3B014F
:100CE0006C01FE01E05CFF4FE080F1800281138126
:100CF0009701A8010E94960E181614F4730186013C
:100D0000C701D8018CAF9DAFAEAFBFAF3AC00CA941
:100D10001DA92EA93FA91C141D041E041F040CF4B8
:100D200068CF10161106120613060CF099CF002793
:100D3000112798010C191D092E093F096017710729
:100D4000820793070CF062CF2A8121115FCF8CA814
:100D50009DA8AEA8BFA881149104A104B10409F014
:100D600096CF88AD99ADAAADBBAD8CAF9DAFAEAF00
:100D7000BFAF81E01C141D041E041F040CF080E0B2
:100D80008A833FEF831A930AA30AB30A8CAA9DAA07
:100D9000AEAABFAA8CAC9DACAEACBFACC501B401D1
:100DA0000E94B50D6B017C01CB82DC82ED82FE825C
:100DB000A501940160E074E284E799E40E943C0D8F
:100DC000688F798F8A8F9B8F2A812111FFCE90584F
:100DD000688F798F8A8F9B8FF9CECF92DF92EF92B7
:100DE000FF92CF93DF93CCE7D2E0688D798D8A8D27
:100DF0009B8D9B01AC010E949B0E6B017C0168A145
:100E000079A18AA19BA19B01AC010E94CB0C9B0103
:100E1000AC01C701B6010E943C0D0E94AE0D6CAB47
:100E20007DAB8EAB9FABCE01DF91CF91FF90EF906A
:100E3000DF90CF900C94940508954F925F926F923B
:100E40007F928F929F92AF92BF92CF92DF92EF925A
:100E5000FF926B017C0120E030E0A9010E94370D78
:100E600087FF04C0F7FAF094F7F8F09480909C02A2
:100E700090909D02A0909E02B0909F02A7019601C3
:100E8000C501B4010E94370D882309F458C0609150
:100E9000B0027091B1028091B2029091B3020E94AF
:100EA000E60D2B013C01A7019601C501B4010E948A
:100EB0003C0D9B01AC01C301B2010E949B0E0E943C
:100EC000AE0D6093B0027093B1028093B202909322
:100ED000B302A701960160E070E080E090E40E9418
:100EE0003C0D0E940E0F26E53EE04DE25FE30E94BE
:100EF0009B0E20E034E244E759E40E949B0E60938D
:100F0000B4027093B5028093B6029093B702C09278
:100F10009C02D0929D02E0929E02F0929F028CE78A
:100F200092E0FF90EF90DF90CF90BF90AF909F90B6
:100F30008F907F906F905F904F900C949405FF90EE
:100F4000EF90DF90CF90BF90AF909F908F907F9069
:100F50006F905F904F900895CF93DF93FC010190C5
:100F60000020E9F73197AF01481B590BBC018DEC0C
:100F700091E00E94DF01EC0142E050E060E471E0AA
:100F80008DEC91E00E94DF018C0F9D1FDF91CF91CE
:100F900008950E94CF100C9446101F920F920FB626
:100FA0000F9211242F933F938F939F93AF93BF93EF
:100FB0008091C5019091C601A091C701B091C8016F
:100FC0003091C40123E0230F2D3758F50196A11D60
:100FD000B11D2093C4018093C5019093C601A093D5
:100FE000C701B093C8018091C9019091CA01A09135
:100FF000CB01B091CC010196A11DB11D8093C90117
:101000009093CA01A093CB01B093CC01BF91AF9153
:101010009F918F913F912F910F900FBE0F901F9036
:10102000189526E8230F0296A11DB11DD2CF1F925D
:101030000F920FB60F9211242F933F934F935F930C
:101040006F937F938F939F93AF93BF93EF93FF9390
:101050008DEC91E00E945D02FF91EF91BF91AF9105
:101060009F918F917F916F915F914F913F912F91C0
:101070000F900FBE0F901F9018951F920F920FB6F2
:101080000F9211242F938F939F93EF93FF93E091EF
:10109000DD01F091DE018081E091E301F091E40156
:1010A00082FD1BC090818091E6018F5F8F7320913C
:1010B000E701821741F0E091E601F0E0E353FE4FD3
:1010C000958F8093E601FF91EF919F918F912F91E2
:1010D0000F900FBE0F901F9018958081F4CFCF9284
:1010E000DF92EF92FF921092D0011092CF0188EE22
:1010F00093E0A0E0B0E08093D1019093D201A0935F
:10110000D301B093D4018AE091E09093CE01809313
:10111000CD0185EC90E09093DA018093D90184ECC5
:1011200090E09093DC018093DB0180EC90E0909361
:10113000DE018093DD0181EC90E09093E0018093EB
:10114000DF0182EC90E09093E2018093E10186EC74
:1011500090E09093E4018093E3011092E6011092F5
:10116000E7011092E8011092E90184E291E0909386
:101170007D0280937C0281E08093830210928C0236
:1011800010928D0210928E0210928F021092900295
:101190001092910210929202109293021092940275
:1011A0001092950210929602109297021092980255
:1011B0001092990210929A0210929B0210929C0235
:1011C00010929D0210929E0210929F02C12CD12C6F
:1011D00080E8E82E8FE3F82EC092A002D092A10200
:1011E000E092A202F092A30210927F02109280027B
:1011F000109281021092820281E090E09093A90205
:101200008093A8028FEF8093AB021092A4021092F9
:10121000A5021092A6021092A70288E08093840291
:1012200087E08093850284E08093860285E0809346
:1012300087021092AA021092B0021092B10210928C
:10124000B2021092B3021092B4021092B502109240
:10125000B6021092B7021092B8021092B902109220
:10126000BA021092BB02C092BC02D092BD02E092C0
:10127000BE02F092BF0210927E021092880210927B
:10128000890210928A0210928B028CE792E00E94EF
:10129000FA02C701B6010E941D07A70196016091DD
:1012A00098027091990280919A0290919B020E94FB
:1012B000370D882319F1C0929802D0929902E092DA
:1012C0009A02F0929B0280E094E2A4E7B9E4809352
:1012D000BC029093BD02A093BE02B093BF02809166
:1012E000B0029091B102A091B202B091B30218166F
:1012F00019061A061B0614F40E94ED0610926C02E1
:1013000010926D0210926E0210926F028AE090E0CD
:101310009093710280937002109272028CE191E0BE
:1013200090936B0280936A0210927B02FF90EF9081
:10133000DF90CF900895789484B5826084BD84B5A1
:10134000816084BD85B5826085BD85B5816085BDC0
:1013500080916E00816080936E0010928100809178
:101360008100826080938100809181008160809300
:101370008100809180008160809380008091B10025
:1013800084608093B1008091B00081608093B00050
:1013900080917A00846080937A0080917A008260E4
:1013A00080937A0080917A00816080937A008091A6
:1013B0007A00806880937A001092C100E091DD018C
:1013C000F091DE0182E08083E091D901F091DA01B1
:1013D0001082E091DB01F091DC0180E180831092CA
:1013E000E501E091E101F091E20186E08083E09186
:1013F000DF01F091E001808180618083E091DF0175
:10140000F091E001808188608083E091DF01F091BC
:10141000E001808180688083E091DF01F091E0014C
:1014200080818F7D808362E083E00E94970161E08C
:1014300082E00E94970161E086E00E94970162E0ED
:101440008EE00E94970160E086E00E94690160E002
:1014500082E00E9469018EE080937B02109272020A
:101460008AE692E00E94F002882329F080917202BD
:101470008360809372020E94D30160936C02709328
:101480006D0280936E0290936F0289E190E09093D9
:1014900071028093700220E030E046E155E46091F3
:1014A00098027091990280919A0290919B020E94F9
:1014B000370D882339F180E090E0A6E1B5E4809310
:1014C000980290939902A0939A02B0939B0285E5AB
:1014D00095E5A0EDB3E48093BC029093BD02A09388
:1014E000BE02B093BF028091B0029091B102A09170
:1014F000B202B091B302181619061A061B0614F4AC
:101500000E94ED0660E070E08AE794E40E941D0707
:1015100083E491E00E94AC0752E0452E512C612CEF
:10152000712CC9E0D0E088248394912C01E032E052
:10153000A32EB12C40E0242E40E0342E8091720284
:101540008B7F809372028AE692E00E94F002182F4D
:101550008091720286958170181709F48BC00E94E1
:10156000D30160936C0270936D0280936E0290932E
:101570006F028091720222E0C22E8C25809372024B
:101580008091720280FD42C082FF40C08091C20102
:101590009091C301892BD1F582E791E00E94AC07BD
:1015A00010928C0210928D0210928E0210928F0275
:1015B0001092900210929102109292021092930255
:1015C0001092B0021092B1021092B2021092B302C5
:1015D00010927F0210928002109281021092820279
:1015E0001092940210929502109296021092970215
:1015F0000E94D3016093BE017093BF018093C0012C
:101600009093C1019092C3018092C2018091C20166
:101610009091C301892B09F48FC00E94D3012091BE
:10162000BE013091BF014091C0015091C101621BC8
:10163000730B840B950B69397A438105910520F072
:10164000D093C301C093C201E091C201F091C301E4
:101650003197E930F10508F06FC0EF5CF44F0C945E
:10166000820F8F0BAD0BD10BF10B020C280C6F0C02
:10167000B80CC50C0E94D30120916C0230916D0210
:1016800040916E0250916F026B017C01C21AD30A25
:10169000E40AF50AB701A6018091700290917102E7
:1016A000B0E0A0E0481759076A077B0708F468CF45
:1016B000809172028170181709F462CF0E94D301E1
:1016C00060936C0270936D0280936E0290936F0230
:1016D0008091720280278460809372020E94D301FD
:1016E00020917302309174024091750250917602FC
:1016F000621B730B840B950B6093770270937802D7
:101700008093790290937A020E94D30160937302CE
:1017100070937402809375029093760231CF60E0EB
:1017200070E086E994E40E948C0083E00E9440010E
:10173000892B71F40E940D052114310409F4FECEA9
:101740000E944902882309F4F1CE0E940000EECEE7
:10175000B092C301A092C201EFCF60E070E086E1D9
:1017600095E40E948C000E940D0583E00E944001D8
:10177000892B39F484E090E09093C3018093C201F7
:10178000DBCF80918C0290918D02A0918E02B0915E
:101790008F0281329340A105B10574F283E090E09D
:1017A000EBCF60E070E086E195EC0E948C000E9437
:1017B0000D0583E00E944001892BE1F280918C02AB
:1017C00090918D02A0918E02B0918F02803E9C4F2D
:1017D000AF4FBF4F0CF0B0CFD093C301C093C20145
:1017E000ABCF60E070E086E994EC0E948C000E9430
:1017F0000D0583E00E944001019709F09DCF85E02F
:1018000090E0BACF60E070E086E994E40E948C003A
:101810000E940D0583E00E944001892B09F08CCFC6
:1018200080918C0290918D02A0918E02B0918F02D6
:101830008093BA019093BB01A093BC01B093BD010A
:1018400096E0C92ED12CD092C301C092C20174CFB0
:1018500060E070E086E994E40E948C000E940D052F
:1018600083E00E944001019709F066CF6091BA01C0
:101870007091BB018091BC019091BD0120918C02BF
:1018800030918D0240918E0250918F02620F731F32
:10189000841F951FA30192010E94630F8091900203
:1018A00090919102A0919202B0919302281739076A
:1018B0004A075B0761F020939002309391024093B6
:1018C0009202509393028CE792E00E94940587E085
:1018D000E82EF12CF092C301E092C2012DCF0E94BC
:1018E0000D05882321F08CE792E00E949405409139
:1018F00090025091910260919202709193028091B6
:101900008C0290918D02A0918E02B0918F024817A7
:1019100059076A077B0709F00FCF10928C021092CB
:101920008D0210928E0210928F02109290021092ED
:10193000910210929202109293021092B0021092B1
:10194000B1021092B2021092B30210927F02109272
:1019500080021092810210928202109294021092E0
:101960009502109296021092970288E090E004CFC0
:101970008BE891E00E94AC0761E082E00E9469017F
:101980001092C3011092C201D7CE85EA91E00E9465
:10199000AC07FFCF5058BB27AA270E94E20C0C943B
:1019A0005C0E0E944E0E38F00E94550E20F039F465
:1019B0009F3F19F426F40C944B0E0EF4E095E7FBD0
:1019C0000C94450EE92F0E946D0E58F3BA1762076A
:1019D00073078407950720F079F4A6F50C948F0E11
:1019E0000EF4E0950B2EBA2FA02D0B01B90190013A
:1019F0000C01CA01A0011124FF27591B99F0593F7E
:101A000050F4503E68F11A16F040A22F232F342FC5
:101A10004427585FF3CF469537952795A795F04013
:101A20005395C9F77EF41F16BA0B620B730B840B28
:101A3000BAF09150A1F0FF0FBB1F661F771F881FE0
:101A4000C2F70EC0BA0F621F731F841F48F4879538
:101A500077956795B795F7959E3F08F0B0CF93952A
:101A6000880F08F09927EE0F9795879508950E94A3
:101A7000210E08F481E008950E94500D0C945C0E34
:101A80000E94550E58F00E944E0E40F029F45F3F20
:101A900029F00C94450E51110C94900E0C944B0EA1
:101AA0000E946D0E68F39923B1F3552391F3951BB2
:101AB000550BBB27AA2762177307840738F09F5F6F
:101AC0005F4F220F331F441FAA1FA9F335D00E2EDC
:101AD0003AF0E0E832D091505040E695001CCAF749
:101AE0002BD0FE2F29D0660F771F881FBB1F26170C
:101AF00037074807AB07B0E809F0BB0B802DBF01E3
:101B0000FF2793585F4F3AF09E3F510578F00C94B1
:101B1000450E0C94900E5F3FE4F3983ED4F3869507
:101B200077956795B795F7959F5FC9F7880F911DD2
:101B30009695879597F90895E1E0660F771F881FBE
:101B4000BB1F621773078407BA0720F0621B730B71
:101B5000840BBA0BEE1F88F7E09508950E94B50D2F
:101B60006894B1110C94900E08950E94750E88F03F
:101B70009F5798F0B92F9927B751B0F0E1F0660F51
:101B8000771F881F991F1AF0BA95C9F714C0B13092
:101B900091F00E948F0EB1E008950C948F0E672F84
:101BA000782F8827B85F39F0B93FCCF386957795C1
:101BB0006795B395D9F73EF49095809570956195AA
:101BC0007F4F8F4F9F4F0895E89409C097FB3EF4D5
:101BD00090958095709561957F4F8F4F9F4F99237A
:101BE000A9F0F92F96E9BB279395F69587957795F8
:101BF0006795B795F111F8CFFAF4BB0F11F460FFB8
:101C00001BC06F5F7F4F8F4F9F4F16C0882311F00F
:101C100096E911C0772321F09EE8872F762F05C023
:101C2000662371F096E8862F70E060E02AF09A95BE
:101C3000660F771F881FDAF7880F9695879597F9B3
:101C40000895990F0008550FAA0BE0E8FEEF16164D
:101C50001706E807F907C0F012161306E407F507A0
:101C600098F0621B730B840B950B39F40A2661F014
:101C7000232B242B252B21F408950A2609F4A140B7
:101C8000A6958FEF811D811D089597F99F6780E8C4
:101C900070E060E008959FEF80EC089500240A94BE
:101CA0001616170618060906089500240A94121637
:101CB0001306140605060895092E0394000C11F46A
:101CC000882352F0BB0F40F4BF2B11F460FF04C017
:101CD0006F5F7F4F8F4F9F4F089557FD9058440F70
:101CE000551F59F05F3F71F04795880F97FB991F7B
:101CF00061F09F3F79F08795089512161306140638
:101D0000551FF2CF4695F1DF08C0161617061806C4
:101D1000991FF1CF86957105610508940895E8949F
:101D2000BB2766277727CB0197F908950E94210EDC
:101D300008F48FEF08950E94AE0E0C945C0E0E9482
:101D40004E0E38F00E94550E20F0952311F00C94A1
:101D5000450E0C944B0E11240C94900E0E946D0EA7
:101D600070F3959FC1F3950F50E0551F629FF001EE
:101D7000729FBB27F00DB11D639FAA27F00DB11D07
:101D8000AA1F649F6627B00DA11D661F829F222790
:101D9000B00DA11D621F739FB00DA11D621F839F17
:101DA000A00D611D221F749F3327A00D611D231FED
:101DB000849F600D211D822F762F6A2F11249F573B
:101DC00050409AF0F1F088234AF0EE0FFF1FBB1F3E
:101DD000661F771F881F91505040A9F79E3F5105FD
:101DE00080F00C94450E0C94900E5F3FE4F3983E07
:101DF000D4F3869577956795B795F795E7959F5FA7
:101E0000C1F7FE2B880F911D9695879597F9089538
:101E100019F416F40C944B0E0C944E0F0E94750E90
:101E2000B8F39923C9F3B6F39F57550B87FF0E9468
:101E30005C0F0024A0E640EA9001805856959795E3
:101E400028F4805C660F771F881F20F0261737075D
:101E5000480730F4621B730B840B202931294A2B6D
:101E6000A69517940794202531254A2758F7660F21
:101E7000771F881F20F026173707480730F4620BBA
:101E8000730B840B200D311D411DA09581F7B90105
:101E9000842F9158880F9695879508959F3F31F02C
:101EA000915020F4879577956795B795880F911D88
:101EB0009695879597F9089591505040660F771F32
:101EC000881FD2F70895052E97FB1EF400940E94F8
:101ED0007A0F57FD07D00E94880F07FC03D04EF4FD
:101EE0000C947A0F50954095309521953F4F4F4F68
:101EF0005F4F089590958095709561957F4F8F4FB6
:101F00009F4F0895EE0FFF1F0590F491E02D099467
:101F1000A1E21A2EAA1BBB1BFD010DC0AA1FBB1FED
:101F2000EE1FFF1FA217B307E407F50720F0A21B5F
:101F3000B30BE40BF50B661F771F881F991F1A94CC
:101F400069F760957095809590959B01AC01BD01F6
:101F5000CF0108950F931F93CF93DF9382309105A4
:101F600010F482E090E0E091C202F091C30230E010
:101F700020E0B0E0A0E0309799F42115310509F494
:101F80004AC0281B390B24303105D8F58A819B8142
:101F90006115710589F1FB0193838283FE0111C0F4
:101FA000408151810281138148175907E0F0481799
:101FB000590799F4109761F012960C9312971396A3
:101FC0001C933296CF01DF91CF911F910F9108950D
:101FD0000093C2021093C302F4CF2115310551F0D2
:101FE0004217530738F0A901DB019A01BD01DF0157
:101FF000F801C1CFEF01F9CF9093C3028093C202E1
:10200000CDCFFE01E20FF31F81939193225031094E
:1020100039832883D7CF2091C0023091C102232B6E
:1020200041F420910201309103013093C1022093C9
:10203000C00220910001309101012115310541F4C8
:102040002DB73EB74091040150910501241B350B7B
:10205000E091C002F091C102E217F307A0F42E1B39
:102060003F0B2817390778F0AC014E5F5F4F2417FC
:10207000350748F04E0F5F1F5093C1024093C002D6
:10208000819391939FCFF0E0E0E09CCFCF93DF93DB
:102090000097E9F0FC01329713821282A091C202EC
:1020A000B091C302ED0130E020E01097A1F420814F
:1020B0003181820F931F2091C0023091C1022817F5
:1020C000390709F061C0F093C102E093C002DF91CB
:1020D000CF910895EA01CE17DF07E8F54A815B81C9
:1020E0009E0141155105B1F7E901FB83EA8349914E
:1020F0005991C40FD51FEC17FD0761F480819181C0
:102100000296840F951FE9019983888382819381C8
:102110009B838A83F0E0E0E012968D919C91139767
:102120000097B9F52D913C911197CD010296820F40
:10213000931F2091C0023091C1022817390739F648
:10214000309751F51092C3021092C202B093C102AF
:10215000A093C002BCCFD383C28340815181840F3E
:10216000951FC817D90761F44E5F5F4F8881998129
:10217000480F591F518340838A819B8193838283B7
:102180002115310509F0B0CFF093C302E093C202EC
:102190009ECFFD01DC01C0CF13821282D7CF81E038
:1021A00090E0F8940C94D410F894FFCF0000C4028F
:1021B0008000000000007F02DF010C02CC023D0223
:1021C0001B022F0200000000F002EC0200000000E1
:1021D0002E03FA021C07CB0794058F04CD04790463
:1021E00047042604F203D1037B034C030D0A00537A
:1021F000697374656D61206C6973746F2E20507201
:102200006573696F6E6120656C20626F74C3B36E15
:10221000207061726120686F6D696E672E00F09F9B
:1022200094B920496E696369616E646F20686F6D4F
:10223000696E672E2E2E00E29C8520486F6D696EB8
:1022400067204F4B2E2043656E74726F203D203007
:1022500000E29D8C204552524F5220646520686FE9
:062260006D696E670000CD
:107E0000112484B714BE81FFF0D085E080938100F7
:107E100082E08093C00088E18093C10086E0809377
:107E2000C20080E18093C4008EE0C9D0259A86E02C
:107E300020E33CEF91E0309385002093840096BBD3
:107E4000B09BFECF1D9AA8958150A9F7CC24DD24C4
:107E500088248394B5E0AB2EA1E19A2EF3E0BF2EE7
:107E6000A2D0813461F49FD0082FAFD0023811F036
:107E7000013811F484E001C083E08DD089C08234E0
:107E800011F484E103C0853419F485E0A6D080C0E4
:107E9000853579F488D0E82EFF2485D0082F10E0AE
:107EA000102F00270E291F29000F111F8ED06801E7
:107EB0006FC0863521F484E090D080E0DECF843638
:107EC00009F040C070D06FD0082F6DD080E0C81688
:107ED00080E7D80618F4F601B7BEE895C0E0D1E017
:107EE00062D089930C17E1F7F0E0CF16F0E7DF06D8
:107EF00018F0F601B7BEE89568D007B600FCFDCFD4
:107F0000A601A0E0B1E02C9130E011968C91119780
:107F100090E0982F8827822B932B1296FA010C0160
:107F200087BEE89511244E5F5F4FF1E0A038BF0790
:107F300051F7F601A7BEE89507B600FCFDCF97BE46
:107F4000E89526C08437B1F42ED02DD0F82E2BD052
:107F50003CD0F601EF2C8F010F5F1F4F84911BD097
:107F6000EA94F801C1F70894C11CD11CFA94CF0C13
:107F7000D11C0EC0853739F428D08EE10CD085E9AC
:107F80000AD08FE07ACF813511F488E018D01DD067
:107F900080E101D065CF982F8091C00085FFFCCF94
:107FA0009093C60008958091C00087FFFCCF809118
:107FB000C00084FD01C0A8958091C6000895E0E648
:107FC000F0E098E1908380830895EDDF803219F02E
:107FD00088E0F5DFFFCF84E1DECF1F93182FE3DFCA
:107FE0001150E9F7F2DF1F91089580E0E8DFEE27F6
:047FF000FF270994CA
:027FFE00040479
:00000001FF
