:020000040000FA
:100000000C9462000C948A000C948A000C948A0070
:100010000C948A000C948A000C948A000C948A0038
:100020000C948A000C948A000C948A000C948A0028
:100030000C948A000C948A000C948A000C948A0018
:100040000C94CD070C948A000C943D080C9417086E
:100050000C948A000C948A000C948A000C948A00F8
:100060000C948A000C948A000000000024002700F1
:100070002A0000000000250028002B0000000000DE
:1000800023002600290004040404040404040202DA
:100090000202020203030303030301020408102007
:1000A0004080010204081020010204081020000012
:1000B0000008000201000003040700000000000027
:1000C00000006F0811241FBECFEFD8E0DEBFCDBF08
:1000D00011E0A0E0B1E0EEE8F2E202C005900D927E
:1000E000AC3CB107D9F722E0ACECB1E001C01D9205
:1000F000A73DB207E1F710E0C2E6D0E004C02197C7
:10010000FE010E94F30FC136D107C9F70E949B0977
:100110000C9445110C9400008F929F92AF92BF9265
:10012000CF92DF92EF92FF920F931F93CF93DF93C3
:100130008B01D82FC92F9B01482F592F6091A702FF
:100140007091A8028091A9029091AA020E94A80D24
:10015000882309F43EC08090AB029090AC02A0903E
:10016000AD02B090AE0275016401F7FAF094F7F8B1
:10017000F094A7019601B8018D2F9C2F0E94A80D25
:1001800087FD0EC0A5019401B8018D2F9C2F0E9400
:10019000070F7501640118161CF06801ED2EFC2E86
:1001A00020E030E0A901C701B6010E94A80D81112D
:1001B0001DC010929202109293021092940210921B
:1001C0009502C092A702D092A802E092A902F092F2
:1001D000AA02DF91CF911F910F91FF90EF90DF90D6
:1001E000CF90BF90AF909F908F900895A7019601F8
:1001F00060E074E284E799E40E94AD0D9F770E946D
:10020000260E6093920270939302809394029093CF
:100210009502C1E020E030E0A901C701B6010E94CB
:10022000070F18160CF0C0E0C0939102CACF8330BC
:1002300081F028F4813099F08230A9F00895873058
:10024000A9F08830C9F08430B1F4809180008F7DAE
:1002500003C0809180008F7780938000089584B5DB
:100260008F7784BD089584B58F7DFBCF8091B000DA
:100270008F778093B00008958091B0008F7DF9CF83
:10028000CF93DF93282F30E0F901E255FF4F84919F
:10029000F901E656FF4FD491F901EA57FF4FC49197
:1002A000CC23A1F081110E941701EC2FF0E0EE0F9A
:1002B000FF1FE458FF4FA591B491EC91ED2381E02D
:1002C00090E009F480E0DF91CF91089580E090E024
:1002D000FACF1F93CF93DF93282F30E0F901E25537
:1002E000FF4F8491F901E656FF4FD491F901EA5787
:1002F000FF4FC491CC23A9F0162F81110E94170142
:10030000EC2FF0E0EE0FFF1FEE58FF4FA591B491D8
:100310008FB7F894EC91111108C0D095DE23DC93CF
:100320008FBFDF91CF911F910895DE2BF8CFCF9330
:10033000DF9390E0FC01E656FF4F24918A579F4FD0
:10034000FC0184918823C9F090E0880F991FFC017B
:10035000E859FF4FA591B491FC01EE58FF4FC591AC
:10036000D49161110DC09FB7F8948C912095822390
:100370008C938881282328839FBFDF91CF91089594
:10038000623051F49FB7F8943C91822F809583237B
:100390008C93E8812E2BEFCF8FB7F894EC912E2B16
:1003A0002C938FBFEACF2FB7F8946091D80170914A
:1003B000D9018091DA019091DB012FBF0895AF92AE
:1003C000BF92CF92DF92EF92FF920F931F93CF9342
:1003D000DF936C017B018B01040F151FEB015E01A4
:1003E000AE18BF08C017D10759F06991D601ED9139
:1003F000FC910190F081E02DC6010995892B79F7D8
:10040000C501DF91CF911F910F91FF90EF90DF9089
:10041000CF90BF90AF900895FC01538D448D252F50
:1004200030E0842F90E0821B930B541710F0CF968E
:10043000089501970895FC01918D828D981761F0C0
:10044000A28DAE0FBF2FB11D5D968C91928D9F5FD7
:100450009F73928F90E008958FEF9FEF0895FC01B6
:10046000918D828D981731F0828DE80FF11D858D69
:1004700090E008958FEF9FEF0895FC01918D228DFC
:10048000892F90E0805C9F4F821B91098F73992781
:10049000089580EE91E00E943D0221E0892B09F44D
:1004A00020E0822F089580E090E0892B29F00E94BF
:1004B000490281110C9400000895FC01A48DA80F3D
:1004C000B92FB11DA35ABF4F2C91848D90E0019696
:1004D0008F739927848FA689B7892C93A089B189B6
:1004E0008C91837080648C93938D848D981306C057
:1004F0000288F389E02D80818F7D80830895EF92BB
:10050000FF920F931F93CF93DF93EC0181E0888FCD
:100510009B8D8C8D98131AC0E889F989808185FF9D
:1005200015C09FB7F894EE89FF896083E889F9893F
:1005300080818370806480839FBF81E090E0DF9141
:10054000CF911F910F91FF90EF900895F62E0B8D94
:1005500010E00F5F1F4F0F731127E02E8C8D8E114F
:100560000CC00FB607FCFACFE889F989808185FFB6
:10057000F5CFCE010E945D02F1CFEB8DEC0FFD2F88
:10058000F11DE35AFF4FF0829FB7F8940B8FEA8971
:10059000FB8980818062CFCFCF93DF93EC01888D80
:1005A0008823B9F0AA89BB89E889F9898C9185FDEE
:1005B00003C0808186FD0DC00FB607FCF7CF8C917C
:1005C00085FFF2CF808185FFEDCFCE010E945D02D5
:1005D000E9CFDF91CF910895862F642F0C94970176
:1005E000FC0181890E94400121E0892B09F420E06F
:1005F000822F0895CF93DF93FC012781222359F1A5
:10060000EC0161E080850E94970161E089850E948C
:1006100097018F81843011F08830B1F461E08A85D0
:100620000E94970161E08B850E9497018FA58F3F03
:1006300091F061E00E9497016EA581E068278FA587
:10064000DF91CF910C946901833011F0863071F7FE
:1006500061E08A85E9CFDF91CF910895CF93DF9351
:10066000FC0127812223A9F0EC010190F081E02D0B
:100670000284F385E02D60E009958FA58F3F49F056
:1006800061E00E9497016EA58FA5DF91CF910C9438
:100690006901DF91CF910895DC01ED91FC912285F4
:1006A00033854770552766277727415051096109DF
:1006B0007109473051056105710560F4FA01ED5982
:1006C000FC4F0C94F30F6D036F03710373037503F9
:1006D0007703790361E0F901099465E0FCCF64E0F8
:1006E000FACF66E0F8CF62E0F6CF6AE0F4CF68E0D8
:1006F000F2CF69E0F0CFCF93DF93EC01CB01BA01E9
:1007000026E030E040E050E00E94D40F62307105F6
:100710008105910589F16CF46115710581059105DB
:10072000D1F06130710581059105F9F0DF91CF912C
:100730000895643071058105910561F124F16530FA
:1007400071058105910591F7E881F9810284F385AE
:10075000E02D66E006C0E881F9810284F385E02D92
:1007600064E0CE01DF91CF910994E881F9810284A0
:10077000F385E02D65E0F5CFE881F9810284F3850A
:10078000E02D61E0EECFE881F9810284F385E02D70
:1007900063E0E7CFE881F9810284F385E02D62E030
:1007A000E0CFDC01ED91FC910284F385E02D4370F4
:1007B000552766277727423051056105710571F08D
:1007C000433051056105710559F04130510561050E
:1007D000710511F065E0099466E0FDCF6AE0FBCF9A
:1007E00069E0F9CFCF93DF93EC01CB01BA0123E0AD
:1007F00030E040E050E00E94D40F61307105810587
:10080000910599F06230710581059105A9F0672B7A
:10081000682B692BC1F4E881F9810284F385E02D0E
:1008200064E0CE01DF91CF910994E881F9810284DF
:10083000F385E02D61E0F5CFE881F9810284F3854D
:10084000E02D62E0EECFDF91CF910895DC01ED91D4
:10085000FC910284F385E02D4370552766277727A6
:10086000423051056105710571F043305105610554
:10087000710559F0413051056105710511F062E0D3
:10088000099463E0FDCF61E0FBCF60E0F9CFCF9347
:10089000DF93EC01E881F9810284F385E02D8A8100
:1008A00060E0811162E0CE010995E881F98102845E
:1008B000F385E02D8A8161E0811163E0CE01099525
:1008C0008CA59DA58230910538F0880F991F880F5F
:1008D000991F05970197F1F7E881F9810284F38563
:1008E000E02D8A8160E0811162E0CE01DF91CF913D
:1008F0000994CF93DF93EC0120E030E0A901688DEB
:10090000798D8A8D9B8D0E94070F18162CF4E8A90B
:10091000F9A9DF91CF910994EAA9FBA9FACFCF9267
:10092000DF92EF92FF920F931F93CF93DF93DC013F
:100930001796CC91C43039F0C83059F1C33019F052
:10094000C63049F1C2E08C01085F1F4FF12CE12C49
:10095000C62ED12CD1E0F8016481C6010E2C02C054
:10096000959587950A94E2F780FD6D270F5F1F4FDD
:1009700080810E946901BFEFEB1AFB0AEC1658F365
:10098000DF91CF911F910F91FF90EF90DF90CF906B
:100990000895C4E0D8CFC3E0D6CFDC011796EC9120
:1009A0001797E93008F038C0F0E0E752FB4F0C949D
:1009B000F30FE204E804EE04F404FA040C05000565
:1009C0000C050605ED91FC910684F785E02D099450
:1009D000ED91FC910088F189E02DF9CFED91FC912A
:1009E0000288F389E02DF3CFED91FC910488F5891D
:1009F000E02DEDCFED91FC910688F789E02DE7CF52
:100A0000ED91FC91008CF18DE02DE1CFED91FC9109
:100A1000028CF38DE02DDBCF0895CF92DF92EF9221
:100A2000FF928091920290919302A0919402B091D2
:100A30009502892B8A2B8B2B31F480E0FF90EF906D
:100A4000DF90CF9008953FB7F8948091DC019091AA
:100A5000DD01A091DE01B091DF0126B5A89B05C0A4
:100A60002F3F19F00196A11DB11D3FBFBA2FA92F2D
:100A7000982F88276C017D01C20ED11CE11CF11C4E
:100A800042E0CC0CDD1CEE1CFF1C4A95D1F7809196
:100A9000B7029091B802A091B902B091BA02B70121
:100AA000A601481B590B6A0B7B0B80919202909117
:100AB0009302A0919402B0919502481759076A07D2
:100AC0007B0708F4BACF80919F029091A002A09179
:100AD000A102B091A20220919102222309F1019674
:100AE000A11DB11D80939F029093A002A093A1022B
:100AF000B093A20240919F025091A0026091A10286
:100B00007091A2028FE892E00E94CD04C092B702D9
:100B1000D092B802E092B902F092BA0281E08ECF90
:100B20000197A109B109DECF4F925F926F927F9238
:100B30008F929F92AF92BF92CF92DF92EF92FF92ED
:100B40000F931F93CF93DF93EC01CC88DD88EE8861
:100B5000FF8888899989AA89BB89C81AD90AEA0AAB
:100B6000FB0A688D798D8A8D9B8D9B01AC010E945B
:100B70000C0F4B015C0168A179A18AA19BA19B018B
:100B8000AC010E943C0D9B01AC01C501B4010E9467
:100B9000AD0D0E941F0EC114D104E104F10409F04F
:100BA000B6C062307105810591050CF0D0C01B8282
:100BB0001C821D821E82188E198E1A8E1B8E1CAAF4
:100BC0001DAA1EAA1FAAC12CD12C7601C701B601ED
:100BD000DF91CF911F910F91FF90EF90DF90CF9019
:100BE000BF90AF909F908F907F906F905F904F904D
:100BF00008951016110612061306B4F46C157D053F
:100C00008E059F051CF42A812111A1C09B01AC0116
:100C100088279927DC01821B930BA40BB50B8CABA7
:100C20009DABAEABBFAB93C00115110521053105DE
:100C300009F48DC06C157D058E059F050CF087C0ED
:100C40008A81882309F483C03095209510950195F9
:100C50001F4F2F4F3F4F0CAB1DAB2EAB3FAB77C0A1
:100C6000011511052105310509F471C08824992465
:100C700054018C189D08AE08BF08681579058A05CF
:100C80009B050CF064C08A81811161C0DDCFCCACC2
:100C9000DDACEEACFFACA7019601C701B6010E9426
:100CA0003C0D2B013C01C501B4010E94570E20E010
:100CB00030E040E850E40E940C0F20E030E040E8D3
:100CC0005FE30E943C0D9B01AC01C301B2010E9495
:100CD000AD0D9B01AC01C701B6010E943B0D3B016C
:100CE0006C01FE01E05CFF4FE080F1800281138126
:100CF0009701A8010E94070F181614F473018601CA
:100D0000C701D8018CAF9DAFAEAFBFAF3AC00CA941
:100D10001DA92EA93FA91C141D041E041F040CF4B8
:100D200068CF10161106120613060CF099CF002793
:100D3000112798010C191D092E093F096017710729
:100D4000820793070CF062CF2A8121115FCF8CA814
:100D50009DA8AEA8BFA881149104A104B10409F014
:100D600096CF88AD99ADAAADBBAD8CAF9DAFAEAF00
:100D7000BFAF81E01C141D041E041F040CF080E0B2
:100D80008A833FEF831A930AA30AB30A8CAA9DAA07
:100D9000AEAABFAA8CAC9DACAEACBFACC501B401D1
:100DA0000E94260E6B017C01CB82DC82ED82FE82EA
:100DB000A501940160E074E284E799E40E94AD0D1E
:100DC000688F798F8A8F9B8F2A812111FFCE90584F
:100DD000688F798F8A8F9B8FF9CECF92DF92EF92B7
:100DE000FF92CF93DF93CFE8D2E0688D798D8A8D23
:100DF0009B8D9B01AC010E940C0F6B017C0168A1D3
:100E000079A18AA19BA19B01AC010E943C0D9B0191
:100E1000AC01C701B6010E94AD0D0E941F0E6CAB64
:100E20007DAB8EAB9FABCE01DF91CF91FF90EF906A
:100E3000DF90CF900C94940508954F925F926F923B
:100E40007F928F929F92AF92BF92CF92DF92EF925A
:100E5000FF926B017C0120E030E0A9010E94A80D07
:100E600087FF04C0F7FAF094F7F8F0948090AF028F
:100E70009090B002A090B102B090B202A70196018A
:100E8000C501B4010E94A80D882309F458C06091DF
:100E9000C3027091C4028091C5029091C6020E9463
:100EA000570E2B013C01A7019601C501B4010E9418
:100EB000AD0D9B01AC01C301B2010E940C0F0E9459
:100EC0001F0E6093C3027093C4028093C502909377
:100ED000C602A701960160E070E080E090E40E9405
:100EE000AD0D0E947F0F26E53EE04DE25FE30E94DC
:100EF0000C0F20E034E244E759E40E940C0F6093A9
:100F0000C7027093C8028093C9029093CA02C0922C
:100F1000AF02D092B002E092B102F092B2028FE83A
:100F200092E0FF90EF90DF90CF90BF90AF909F90B6
:100F30008F907F906F905F904F900C949405FF90EE
:100F4000EF90DF90CF90BF90AF909F908F907F9069
:100F50006F905F904F900895CF93DF93FC010190C5
:100F60000020E9F73197AF01481B590BBC0180EE17
:100F700091E00E94DF01EC0142E050E060E471E0AA
:100F800080EE91E00E94DF018C0F9D1FDF91CF91D9
:100F900008950E9440110C94B7101F920F920FB643
:100FA0000F9211242F933F938F939F93AF93BF93EF
:100FB0008091D8019091D901A091DA01B091DB0123
:100FC0003091D70123E0230F2D3758F50196A11D4D
:100FD000B11D2093D7018093D8019093D901A0939C
:100FE000DA01B093DB018091DC019091DD01A091E9
:100FF000DE01B091DF010196A11DB11D8093DC01DE
:101000009093DD01A093DE01B093DF01BF91AF911A
:101010009F918F913F912F910F900FBE0F901F9036
:10102000189526E8230F0296A11DB11DD2CF1F925D
:101030000F920FB60F9211242F933F934F935F930C
:101040006F937F938F939F93AF93BF93EF93FF9390
:1010500080EE91E00E945D02FF91EF91BF91AF9110
:101060009F918F917F916F915F914F913F912F91C0
:101070000F900FBE0F901F9018951F920F920FB6F2
:101080000F9211242F938F939F93EF93FF93E091EF
:10109000F001F091F1018081E091F601F091F7010A
:1010A00082FD1BC090818091F9018F5F8F73209129
:1010B000FA01821741F0E091F901F0E0E052FE4FB1
:1010C000958F8093F901FF91EF919F918F912F91CF
:1010D0000F900FBE0F901F9018958081F4CFCF9284
:1010E000DF92EF92FF921092E3011092E20188EEFC
:1010F00093E0A0E0B0E08093E4019093E501A09339
:10110000E601B093E7018AE091E09093E1018093DA
:10111000E00185EC90E09093ED018093EC0184EC8C
:1011200090E09093EF018093EE0180EC90E090933B
:10113000F1018093F00181EC90E09093F3018093B2
:10114000F20182EC90E09093F5018093F40186EC3B
:1011500090E09093F7018093F6011092F9011092BC
:10116000FA011092FB011092FC0184E291E090934D
:10117000900280938F0281E08093960210929F02EA
:101180001092A0021092A1021092A2021092A30249
:101190001092A4021092A5021092A6021092A70229
:1011A0001092A8021092A9021092AA021092AB0209
:1011B0001092AC021092AD021092AE021092AF02E9
:1011C0001092B0021092B1021092B202C12CD12C36
:1011D00080E8E82E8FE3F82EC092B302D092B402DA
:1011E000E092B502F092B60210929202109293022F
:1011F000109294021092950281E090E09093BC02CC
:101200008093BB028FEF8093BE021092B7021092C0
:10121000B8021092B9021092BA0288E08093970245
:1012200087E08093980284E08093990285E0809320
:101230009A021092BD021092C3021092C402109240
:10124000C5021092C6021092C7021092C8021092F4
:10125000C9021092CA021092CB021092CC021092D4
:10126000CD021092CE02C092CF02D092D002E09274
:10127000D102F092D2021092910210929B0210922F
:101280009C0210929D0210929E028FE892E00E94B2
:10129000FA02C701B6010E941D07A70196016091DD
:1012A000AB027091AC028091AD029091AE020E94AF
:1012B000A80D882319F1C092AB02D092AC02E09243
:1012C000AD02F092AE0280E094E2A4E7B9E480932C
:1012D000CF029093D002A093D102B093D20280911A
:1012E000C3029091C402A091C502B091C602181623
:1012F00019061A061B0614F40E94ED0610927F02CE
:101300001092800210928102109282028AE090E094
:101310009093840280938302109285028CE191E085
:1013200090937E0280937D0210928E02FF90EF9048
:10133000DF90CF900895789484B5826084BD84B5A1
:10134000816084BD85B5826085BD85B5816085BDC0
:1013500080916E00816080936E0010928100809178
:101360008100826080938100809181008160809300
:101370008100809180008160809380008091B10025
:1013800084608093B1008091B00081608093B00050
:1013900080917A00846080937A0080917A008260E4
:1013A00080937A0080917A00816080937A008091A6
:1013B0007A00806880937A001092C100E091F00179
:1013C000F091F10182E08083E091EC01F091ED0178
:1013D0001082E091EE01F091EF0180E180831092A4
:1013E000F801E091F401F091F50186E08083E0914D
:1013F000F201F091F301808180618083E091F2013C
:10140000F091F301808188608083E091F201F09196
:10141000F301808180688083E091F201F091F30113
:1014200080818F7D808310929B0281E080939C025B
:101430001092BD0262E083E00E94970161E082E0C9
:101440000E94970161E086E00E94970162E08EE0D1
:101450000E94970161E086E00E94690160E082E0FD
:101460000E9469018EE080938E02109285028DE7C2
:1014700092E00E94F002882329F080918502836027
:10148000809385020E94D30160937F027093800253
:10149000809381029093820289E190E0909384028C
:1014A0008093830220E030E046E155E46091AB0296
:1014B0007091AC028091AD029091AE020E94A80D95
:1014C000882339F180E090E0A6E1B5E48093AB0297
:1014D0009093AC02A093AD02B093AE0285E595E582
:1014E000A0EDB3E48093CF029093D002A093D102F9
:1014F000B093D2028091C3029091C402A091C50220
:10150000B091C602181619061A061B0614F40E949A
:10151000ED0660E070E08AE794E40E941D0783E432
:1015200091E00E94AC0752E0452E512C612C712CA9
:10153000CCE0D0E024E0822E912C32E0C32ED12CDE
:10154000AA24A394B12C809185028B7F809385027D
:101550008DE792E00E94F002382E809185028695F8
:101560008170381609F4AAC00E94D30160937F02EB
:101570007093800280938102909382028091850211
:1015800092E089278093850280918502857085305D
:1015900059F48EE00E944001019731F41092D60177
:1015A00082E791E00E94AC078091D6018111E9C0E9
:1015B0008091850280FD4BC082FF49C08091D4019B
:1015C0009091D501892B09F042C060E086E00E942D
:1015D000690160E082E00E94690184E891E00E9474
:1015E000AC0710929F021092A0021092A1021092DA
:1015F000A2021092A3021092A4021092A5021092CD
:10160000A6021092C3021092C4021092C502109258
:10161000C6021092920210929302109294021092BB
:1016200095021092A7021092A8021092A90210929D
:10163000AA020E94D3016093D0017093D1018093DC
:10164000D2019093D301B092D501A092D4018091A0
:10165000D4019091D501892B09F493C00E94D30144
:101660002091D0013091D1014091D2015091D3010C
:10167000621B730B840B950B69397A4381059105C5
:1016800020F0D093D501C093D401E091D401F09122
:10169000D5013197EC30F10508F073C0EE5AF44FE4
:1016A0000C94F30FB40BD30BF70B1C0C2D0C430C49
:1016B000680C890CCC0CD10C1A0D2B0D0E94D30197
:1016C00020917F02309180024091810250918202EC
:1016D0007B018C01E21AF30A040B150BB801A70178
:1016E0008091830290918402B0E0A0E048175907EE
:1016F0006A077B0708F448CF80918502817038160D
:1017000009F442CF0E94D30160937F02709380025C
:1017100080938102909382028091850291E08927D3
:101720008460809385020E94D301209186023091CB
:1017300087024091880250918902621B730B840BCF
:10174000950B60938A0270938B0280938C02909326
:101750008D020E94D301609386027093870280936A
:1017600088029093890210CF60E070E086E994E4EB
:101770000E948C0083E00E944001892B79F40E9432
:101780000D0580E090E0892B09F4DDCE0E9449022E
:10179000882309F4CDCE0E940000CACED092D50194
:1017A000C092D401EECF60E070E086E195E40E9443
:1017B0008C000E940D0583E00E944001892B39F4C2
:1017C00085E090E09093D5018093D401DACF8091A9
:1017D0009F029091A002A091A102B091A202813239
:1017E0009340A105B1056CF283E090E0EBCF60E09F
:1017F00070E086E195EC0E948C000E940D0583E06C
:101800000E944001892B29F49092D5018092D40145
:10181000B8CF80919F029091A002A091A102B091B7
:10182000A202803E9C4FAF4FBF4F0CF0AACFD09387
:10183000D501C093D401A5CF60E070E086E994E4BF
:101840000E948C000E940D0583E00E9440010197D8
:1018500009F097CF87E090E0B5CF60E070E086E9CF
:1018600094EC0E948C000E940D0583E00E944001D0
:10187000019709F086CF96E0E92EF12CF092D50180
:10188000E092D4017ECF60E070E086E994E40E94AB
:101890008C000E940D0583E00E944001892B09F015
:1018A00070CF80919F029091A002A091A102B0916F
:1018B000A2028093CC019093CD01A093CE01B0936E
:1018C000CF0108E010E01093D5010093D40159CF67
:1018D00060E070E086E994EC0E948C000E940D05A7
:1018E00083E00E944001892B09F04BCF80919F0239
:1018F0009091A002A091A102B091A2028093CC018C
:101900009093CD01A093CE01B093CF0189E090E0F8
:1019100059CF60E070E086E994E40E948C000E9458
:101920000D0583E00E944001019709F02ACF6091E4
:10193000CC017091CD018091CE019091CF01209189
:101940009F023091A0024091A1025091A202620F29
:10195000731F841F951FA30192010E94D40F8091D1
:10196000A3029091A402A091A502B091A60228170B
:1019700039074A075B0761F02093A3023093A40262
:101980004093A5025093A6028FE892E00E9494052E
:101990008AE0E82EF12C72CF60E070E086E994ECEA
:1019A000BCCF0E940D05882321F08FE892E00E94B1
:1019B00094054091A3025091A4026091A5027091F8
:1019C000A60280919F029091A002A091A102B091E5
:1019D000A202481759076A077B0709F0D2CE109276
:1019E0009F021092A0021092A1021092A2021092E5
:1019F000A3021092A4021092A5021092A6021092C5
:101A0000C3021092C4021092C5021092C602109234
:101A100092021092930210929402109295021092E8
:101A2000A7021092A8021092A9021092AA020BE03B
:101A300010E049CF8DE991E00E94AC0761E082E0BF
:101A40000E9469011092D5011092D40161E086E0F4
:101A50000E94690196CE87EB91E00E94AC0761E09D
:101A600086E00E94690181E08093D6011092D50141
:101A70001092D40186CE5058BB27AA270E94530D3E
:101A80000C94CD0E0E94BF0E38F00E94C60E20F0BE
:101A900039F49F3F19F426F40C94BC0E0EF4E09533
:101AA000E7FB0C94B60EE92F0E94DE0E58F3BA172E
:101AB000620773078407950720F079F4A6F50C9464
:101AC000000F0EF4E0950B2EBA2FA02D0B01B901DB
:101AD00090010C01CA01A0011124FF27591B99F0A4
:101AE000593F50F4503E68F11A16F040A22F232FB0
:101AF000342F4427585FF3CF469537952795A79500
:101B0000F0405395C9F77EF41F16BA0B620B730BA6
:101B1000840BBAF09150A1F0FF0FBB1F661F771F17
:101B2000881FC2F70EC0BA0F621F731F841F48F4CC
:101B3000879577956795B795F7959E3F08F0B0CF55
:101B40009395880F08F09927EE0F9795879508953C
:101B50000E94920E08F481E008950E94C10D0C9439
:101B6000CD0E0E94C60E58F00E94BF0E40F029F420
:101B70005F3F29F00C94B60E51110C94010F0C9498
:101B8000BC0E0E94DE0E68F39923B1F3552391F346
:101B9000951B550BBB27AA2762177307840738F0DC
:101BA0009F5F5F4F220F331F441FAA1FA9F335D039
:101BB0000E2E3AF0E0E832D091505040E695001CED
:101BC000CAF72BD0FE2F29D0660F771F881FBB1FA7
:101BD000261737074807AB07B0E809F0BB0B802D85
:101BE000BF01FF2793585F4F3AF09E3F510578F0B1
:101BF0000C94B60E0C94010F5F3FE4F3983ED4F3BF
:101C0000869577956795B795F7959F5FC9F7880F84
:101C1000911D9695879597F90895E1E0660F771FD6
:101C2000881FBB1F621773078407BA0720F0621B67
:101C3000730B840BBA0BEE1F88F7E09508950E9492
:101C4000260E6894B1110C94010F08950E94E60EBF
:101C500088F09F5798F0B92F9927B751B0F0E1F06D
:101C6000660F771F881F991F1AF0BA95C9F714C01D
:101C7000B13091F00E94000FB1E008950C94000F74
:101C8000672F782F8827B85F39F0B93FCCF3869556
:101C900077956795B395D9F73EF4909580957095B3
:101CA00061957F4F8F4F9F4F0895E89409C097FB30
:101CB0003EF490958095709561957F4F8F4F9F4F23
:101CC0009923A9F0F92F96E9BB279395F695879567
:101CD00077956795B795F111F8CFFAF4BB0F11F42A
:101CE00060FF1BC06F5F7F4F8F4F9F4F16C08823D1
:101CF00011F096E911C0772321F09EE8872F762F07
:101D000005C0662371F096E8862F70E060E02AF047
:101D10009A95660F771F881FDAF7880F9695879533
:101D200097F90895990F0008550FAA0BE0E8FEEF08
:101D300016161706E807F907C0F012161306E4078F
:101D4000F50798F0621B730B840B950B39F40A2688
:101D500061F0232B242B252B21F408950A2609F466
:101D6000A140A6958FEF811D811D089597F99F676A
:101D700080E870E060E008959FEF80EC0895002413
:101D80000A941616170618060906089500240A94E0
:101D900012161306140605060895092E0394000C66
:101DA00011F4882352F0BB0F40F4BF2B11F460FFF5
:101DB00004C06F5F7F4F8F4F9F4F089557FD90581E
:101DC000440F551F59F05F3F71F04795880F97FBFF
:101DD000991F61F09F3F79F08795089512161306B9
:101DE0001406551FF2CF4695F1DF08C016161706E8
:101DF0001806991FF1CF869571056105089408951D
:101E0000E894BB2766277727CB0197F908950E94AE
:101E1000920E08F48FEF08950E941F0F0C94CD0EC0
:101E20000E94BF0E38F00E94C60E20F0952311F0DC
:101E30000C94B60E0C94BC0E11240C94010F0E944D
:101E4000DE0E70F3959FC1F3950F50E0551F629F12
:101E5000F001729FBB27F00DB11D639FAA27F00D03
:101E6000B11DAA1F649F6627B00DA11D661F829F2A
:101E70002227B00DA11D621F739FB00DA11D621F0F
:101E8000839FA00D611D221F749F3327A00D611D2C
:101E9000231F849F600D211D822F762F6A2F11240E
:101EA0009F5750409AF0F1F088234AF0EE0FFF1F41
:101EB000BB1F661F771F881F91505040A9F79E3F98
:101EC000510580F00C94B60E0C94010F5F3FE4F3C3
:101ED000983ED4F3869577956795B795F795E795EE
:101EE0009F5FC1F7FE2B880F911D9695879597F9F7
:101EF000089519F416F40C94BC0E0C94BF0F0E94B4
:101F0000E60EB8F39923C9F3B6F39F57550B87FF35
:101F10000E94CD0F0024A0E640EA9001805856951B
:101F2000979528F4805C660F771F881F20F026178E
:101F30003707480730F4621B730B840B20293129C3
:101F40004A2BA69517940794202531254A2758F740
:101F5000660F771F881F20F026173707480730F4D1
:101F6000620B730B840B200D311D411DA09581F771
:101F7000B901842F9158880F9695879508959F3FB2
:101F800031F0915020F4879577956795B795880F34
:101F9000911D9695879597F9089591505040660F39
:101FA000771F881FD2F70895052E97FB1EF4009423
:101FB0000E94EB0F57FD07D00E94F90F07FC03D0DA
:101FC0004EF40C94EB0F50954095309521953F4F72
:101FD0004F4F5F4F089590958095709561957F4F15
:101FE0008F4F9F4F0895EE0FFF1F0590F491E02D46
:101FF0000994A1E21A2EAA1BBB1BFD010DC0AA1F4A
:10200000BB1FEE1FFF1FA217B307E407F50720F061
:10201000A21BB30BE40BF50B661F771F881F991FDC
:102020001A9469F760957095809590959B01AC0125
:10203000BD01CF0108950F931F93CF93DF9382309B
:10204000910510F482E090E0E091D502F091D60283
:1020500030E020E0B0E0A0E0309799F421153105A0
:1020600009F44AC0281B390B24303105D8F58A8180
:102070009B816115710589F1FB0193838283FE01C8
:1020800011C0408151810281138148175907E0F046
:102090004817590799F4109761F012960C9312970C
:1020A00013961C933296CF01DF91CF911F910F9120
:1020B00008950093D5021093D602F4CF211531056F
:1020C00051F04217530738F0A901DB019A01BD0115
:1020D000DF01F801C1CFEF01F9CF9093D6028093D1
:1020E000D502CDCFFE01E20FF31F819391932250D1
:1020F000310939832883D7CF2091D3023091D4027C
:10210000232B41F420910201309103013093D4023A
:102110002093D30220910001309101012115310556
:1021200041F42DB73EB74091040150910501241BA5
:10213000350BE091D302F091D402E217F307A0F43B
:102140002E1B3F0B2817390778F0AC014E5F5F4F0D
:102150002417350748F04E0F5F1F5093D402409369
:10216000D302819391939FCFF0E0E0E09CCFCF9397
:10217000DF930097E9F0FC01329713821282A0915D
:10218000D502B091D602ED0130E020E01097A1F425
:1021900020813181820F931F2091D3023091D4028C
:1021A0002817390709F061C0F093D402E093D302F5
:1021B000DF91CF910895EA01CE17DF07E8F54A8154
:1021C0005B819E0141155105B1F7E901FB83EA836B
:1021D00049915991C40FD51FEC17FD0761F4808117
:1021E00091810296840F951FE901998388838281EA
:1021F00093819B838A83F0E0E0E012968D919C911D
:1022000013970097B9F52D913C911197CD01029646
:10221000820F931F2091D3023091D40228173907DF
:1022200039F6309751F51092D6021092D502B0933C
:10223000D402A093D302BCCFD383C2834081518107
:10224000840F951FC817D90761F44E5F5F4F8881CF
:102250009981480F591F518340838A819B819383C1
:1022600082832115310509F0B0CFF093D602E093B7
:10227000D5029ECFFD01DC01C0CF13821282D7CFE1
:1022800081E090E0F8940C944511F894FFCF0000A1
:10229000D7028000000000007F02DF010C02CC02A8
:1022A0003D021B022F0200000000F002EC020000C1
:1022B00000002E03FA021C07CB0794058F04CD04FF
:1022C000790447042604F203D1037B034C030D0A6F
:1022D0000053697374656D61206C6973746F2E208F
:1022E00050726573696F6E6120656C20626F74C394
:1022F000B36E207061726120686F6D696E672E0029
:10230000F09F948420486F6D696E672072657365D5
:102310007400F09F94B920496E696369616E646FBF
:1023200020686F6D696E672E2E2E00E29C85204816
:102330006F6D696E67204F4B2E2043656E74726F10
:10234000203D203000E29D8C204552524F522064A7
:0A2350006520686F6D696E6700007C
:107E0000112484B714BE81FFF0D085E080938100F7
:107E100082E08093C00088E18093C10086E0809377
:107E2000C20080E18093C4008EE0C9D0259A86E02C
:107E300020E33CEF91E0309385002093840096BBD3
:107E4000B09BFECF1D9AA8958150A9F7CC24DD24C4
:107E500088248394B5E0AB2EA1E19A2EF3E0BF2EE7
:107E6000A2D0813461F49FD0082FAFD0023811F036
:107E7000013811F484E001C083E08DD089C08234E0
:107E800011F484E103C0853419F485E0A6D080C0E4
:107E9000853579F488D0E82EFF2485D0082F10E0AE
:107EA000102F00270E291F29000F111F8ED06801E7
:107EB0006FC0863521F484E090D080E0DECF843638
:107EC00009F040C070D06FD0082F6DD080E0C81688
:107ED00080E7D80618F4F601B7BEE895C0E0D1E017
:107EE00062D089930C17E1F7F0E0CF16F0E7DF06D8
:107EF00018F0F601B7BEE89568D007B600FCFDCFD4
:107F0000A601A0E0B1E02C9130E011968C91119780
:107F100090E0982F8827822B932B1296FA010C0160
:107F200087BEE89511244E5F5F4FF1E0A038BF0790
:107F300051F7F601A7BEE89507B600FCFDCF97BE46
:107F4000E89526C08437B1F42ED02DD0F82E2BD052
:107F50003CD0F601EF2C8F010F5F1F4F84911BD097
:107F6000EA94F801C1F70894C11CD11CFA94CF0C13
:107F7000D11C0EC0853739F428D08EE10CD085E9AC
:107F80000AD08FE07ACF813511F488E018D01DD067
:107F900080E101D065CF982F8091C00085FFFCCF94
:107FA0009093C60008958091C00087FFFCCF809118
:107FB000C00084FD01C0A8958091C6000895E0E648
:107FC000F0E098E1908380830895EDDF803219F02E
:107FD00088E0F5DFFFCF84E1DECF1F93182FE3DFCA
:107FE0001150E9F7F2DF1F91089580E0E8DFEE27F6
:047FF000FF270994CA
:027FFE00040479
:00000001FF
