:100000000C9462000C948A000C948A000C948A0070
:100010000C948A000C948A000C948A000C948A0038
:100020000C948A000C948A000C948A000C948A0028
:100030000C948A000C948A000C948A000C948A0018
:100040000C944E080C948A000C94BE080C949808EA
:100050000C948A000C948A000C948A000C948A00F8
:100060000C948A000C948A000000000024002700F1
:100070002A0000000000250028002B0000000000DE
:1000800023002600290004040404040404040202DA
:100090000202020203030303030301020408102007
:1000A0004080010204081020010204081020000012
:1000B0000008000201000003040700000000000027
:1000C0000000F00811241FBECFEFD8E0DEBFCDBF87
:1000D00012E0A0E0B1E0E4E1F4E202C005900D928C
:1000E000A830B107D9F723E0A8E0B2E001C01D9223
:1000F000AB31B207E1F710E0C2E6D0E004C02197CF
:10010000FE010E94D810C136D107C9F70E941C0A0F
:100110000C9408120C9400008F929F92AF92BF92A1
:10012000CF92DF92EF92FF920F931F93CF93DF93C3
:100130008B01D82FC92F9B01482F592F6091EB02BB
:100140007091EC028091ED029091EE020E946B0E94
:10015000882309F43EC08090EF029090F002A090B6
:10016000F102B090F20275016401F7FAF094F7F829
:10017000F094A7019601B8018D2F9C2F0E946B0E61
:1001800087FD0EC0A5019401B8018D2F9C2F0E9400
:10019000CA0F7501640118161CF06801ED2EFC2EC3
:1001A00020E030E0A901C701B6010E946B0E811169
:1001B0001DC01092D6021092D7021092D80210924F
:1001C000D902C092EB02D092EC02E092ED02F092E2
:1001D000EE02DF91CF911F910F91FF90EF90DF9092
:1001E000CF90BF90AF909F908F900895A7019601F8
:1001F00060E074E284E799E40E94700E9F770E94A9
:10020000E90E6093D6027093D7028093D802909340
:10021000D902C1E020E030E0A901C701B6010E9487
:10022000CA0F18160CF0C0E0C093D502CACF8330B5
:1002300081F028F4813099F08230A9F00895873058
:10024000A9F08830C9F08430B1F4809180008F7DAE
:1002500003C0809180008F7780938000089584B5DB
:100260008F7784BD089584B58F7DFBCF8091B000DA
:100270008F778093B00008958091B0008F7DF9CF83
:10028000CF93DF93282F30E0F901E255FF4F84919F
:10029000F901E656FF4FD491F901EA57FF4FC49197
:1002A000CC23A1F081110E941701EC2FF0E0EE0F9A
:1002B000FF1FE458FF4FA591B491EC91ED2381E02D
:1002C00090E009F480E0DF91CF91089580E090E024
:1002D000FACF1F93CF93DF93282F30E0F901E25537
:1002E000FF4F8491F901E656FF4FD491F901EA5787
:1002F000FF4FC491CC23A9F0162F81110E94170142
:10030000EC2FF0E0EE0FFF1FEE58FF4FA591B491D8
:100310008FB7F894EC91111108C0D095DE23DC93CF
:100320008FBFDF91CF911F910895DE2BF8CFCF9330
:10033000DF9390E0FC01E656FF4F24918A579F4FD0
:10034000FC0184918823C9F090E0880F991FFC017B
:10035000E859FF4FA591B491FC01EE58FF4FC591AC
:10036000D49161110DC09FB7F8948C912095822390
:100370008C938881282328839FBFDF91CF91089594
:10038000623051F49FB7F8943C91822F809583237B
:100390008C93E8812E2BEFCF8FB7F894EC912E2B16
:1003A0002C938FBFEACF2FB7F89460911C02709105
:1003B0001D0280911E0290911F022FBF0895AF92DF
:1003C000BF92CF92DF92EF92FF920F931F93CF9342
:1003D000DF936C017B018B01040F151FEB015E01A4
:1003E000AE18BF08C017D10759F06991D601ED9139
:1003F000FC910190F081E02DC6010995892B79F7D8
:10040000C501DF91CF911F910F91FF90EF90DF9089
:10041000CF90BF90AF900895FC01538D448D252F50
:1004200030E0842F90E0821B930B541710F0CF968E
:10043000089501970895FC01918D828D981761F0C0
:10044000A28DAE0FBF2FB11D5D968C91928D9F5FD7
:100450009F73928F90E008958FEF9FEF0895FC01B6
:10046000918D828D981731F0828DE80FF11D858D69
:1004700090E008958FEF9FEF0895FC01918D228DFC
:10048000892F90E0805C9F4F821B91098F73992781
:10049000089584E292E00E943D0221E0892B09F454
:1004A00020E0822F089580E090E0892B29F00E94BF
:1004B000490281110C9400000895FC01A48DA80F3D
:1004C000B92FB11DA35ABF4F2C91848D90E0019696
:1004D0008F739927848FA689B7892C93A089B189B6
:1004E0008C91837080648C93938D848D981306C057
:1004F0000288F389E02D80818F7D80830895EF92BB
:10050000FF920F931F93CF93DF93EC0181E0888FCD
:100510009B8D8C8D98131AC0E889F989808185FF9D
:1005200015C09FB7F894EE89FF896083E889F9893F
:1005300080818370806480839FBF81E090E0DF9141
:10054000CF911F910F91FF90EF900895F62E0B8D94
:1005500010E00F5F1F4F0F731127E02E8C8D8E114F
:100560000CC00FB607FCFACFE889F989808185FFB6
:10057000F5CFCE010E945D02F1CFEB8DEC0FFD2F88
:10058000F11DE35AFF4FF0829FB7F8940B8FEA8971
:10059000FB8980818062CFCFCF93DF93EC01888D80
:1005A0008823B9F0AA89BB89E889F9898C9185FDEE
:1005B00003C0808186FD0DC00FB607FCF7CF8C917C
:1005C00085FFF2CF808185FFEDCFCE010E945D02D5
:1005D000E9CFDF91CF910895862F642F0C94970176
:1005E000FC0181890E94400121E0892B09F420E06F
:1005F000822F0895CF93DF93FC012781222359F1A5
:10060000EC0161E080850E94970161E089850E948C
:1006100097018F81843011F08830B1F461E08A85D0
:100620000E94970161E08B850E9497018FA58F3F03
:1006300091F061E00E9497016EA581E068278FA587
:10064000DF91CF910C946901833011F0863071F7FE
:1006500061E08A85E9CFDF91CF910895CF93DF9351
:10066000FC0127812223A9F0EC010190F081E02D0B
:100670000284F385E02D60E009958FA58F3F49F056
:1006800061E00E9497016EA58FA5DF91CF910C9438
:100690006901DF91CF910895DC01ED91FC912285F4
:1006A00033854770552766277727415051096109DF
:1006B0007109473051056105710560F4FA01ED5982
:1006C000FC4F0C94D8106D036F0371037303750313
:1006D0007703790361E0F901099465E0FCCF64E0F8
:1006E000FACF66E0F8CF62E0F6CF6AE0F4CF68E0D8
:1006F000F2CF69E0F0CFCF93DF93EC01CB01BA01E9
:1007000026E030E040E050E00E94B9106230710510
:100710008105910589F16CF46115710581059105DB
:10072000D1F06130710581059105F9F0DF91CF912C
:100730000895643071058105910561F124F16530FA
:1007400071058105910591F7E881F9810284F385AE
:10075000E02D66E006C0E881F9810284F385E02D92
:1007600064E0CE01DF91CF910994E881F9810284A0
:10077000F385E02D65E0F5CFE881F9810284F3850A
:10078000E02D61E0EECFE881F9810284F385E02D70
:1007900063E0E7CFE881F9810284F385E02D62E030
:1007A000E0CFDC01ED91FC910284F385E02D4370F4
:1007B000552766277727423051056105710571F08D
:1007C000433051056105710559F04130510561050E
:1007D000710511F065E0099466E0FDCF6AE0FBCF9A
:1007E00069E0F9CFCF93DF93EC01CB01BA0123E0AD
:1007F00030E040E050E00E94B910613071058105A1
:10080000910599F06230710581059105A9F0672B7A
:10081000682B692BC1F4E881F9810284F385E02D0E
:1008200064E0CE01DF91CF910994E881F9810284DF
:10083000F385E02D61E0F5CFE881F9810284F3854D
:10084000E02D62E0EECFDF91CF910895DC01ED91D4
:10085000FC910284F385E02D4370552766277727A6
:10086000423051056105710571F043305105610554
:10087000710559F0413051056105710511F062E0D3
:10088000099463E0FDCF61E0FBCF60E0F9CFCF9347
:10089000DF93EC01E881F9810284F385E02D8A8100
:1008A00060E0811162E0CE010995E881F98102845E
:1008B000F385E02D8A8161E0811163E0CE01099525
:1008C0008CA59DA58230910538F0880F991F880F5F
:1008D000991F05970197F1F7E881F9810284F38563
:1008E000E02D8A8160E0811162E0CE01DF91CF913D
:1008F0000994CF93DF93EC0120E030E0A901688DEB
:10090000798D8A8D9B8D0E94CA0F18162CF4E8A948
:10091000F9A9DF91CF910994EAA9FBA9FACFCF9267
:10092000DF92EF92FF920F931F93CF93DF93DC013F
:100930001796CC91C43039F0C83059F1C33019F052
:10094000C63049F1C2E08C01085F1F4FF12CE12C49
:10095000C62ED12CD1E0F8016481C6010E2C02C054
:10096000959587950A94E2F780FD6D270F5F1F4FDD
:1009700080810E946901BFEFEB1AFB0AEC1658F365
:10098000DF91CF911F910F91FF90EF90DF90CF906B
:100990000895C4E0D8CFC3E0D6CFDC011796EC9120
:1009A0001797E93008F038C0F0E0E752FB4F0C949D
:1009B000D810E204E804EE04F404FA040C0500057F
:1009C0000C050605ED91FC910684F785E02D099450
:1009D000ED91FC910088F189E02DF9CFED91FC912A
:1009E0000288F389E02DF3CFED91FC910488F5891D
:1009F000E02DEDCFED91FC910688F789E02DE7CF52
:100A0000ED91FC91008CF18DE02DE1CFED91FC9109
:100A1000028CF38DE02DDBCF0895CF92DF92EF9221
:100A2000FF928091D6029091D702A091D802B09106
:100A3000D902892B8A2B8B2B31F480E0FF90EF9029
:100A4000DF90CF9008953FB7F89480912002909165
:100A50002102A0912202B091230226B5A89B05C0D5
:100A60002F3F19F00196A11DB11D3FBFBA2FA92F2D
:100A7000982F88276C017D01C20ED11CE11CF11C4E
:100A800042E0CC0CDD1CEE1CFF1C4A95D1F7809196
:100A9000FB029091FC02A091FD02B091FE02B70111
:100AA000A601481B590B6A0B7B0B8091D6029091D3
:100AB000D702A091D802B091D902481759076A0706
:100AC0007B0708F4BACF8091E3029091E402A091F1
:100AD000E502B091E6022091D502222309F10196A8
:100AE000A11DB11D8093E3029093E402A093E5025F
:100AF000B093E6024091E3025091E4026091E50276
:100B00007091E60283ED92E00E94CD04C092FB0258
:100B1000D092FC02E092FD02F092FE0281E08ECFC4
:100B20000197A109B109DECF4F925F926F927F9238
:100B30008F929F92AF92BF92CF92DF92EF92FF92ED
:100B40000F931F93CF93DF93EC01CC88DD88EE8861
:100B5000FF8888899989AA89BB89C81AD90AEA0AAB
:100B6000FB0A688D798D8A8D9B8D9B01AC010E945B
:100B7000CF0F4B015C0168A179A18AA19BA19B01C8
:100B8000AC010E94FF0D9B01AC01C501B4010E94A4
:100B9000700E0E94E20EC114D104E104F10409F0C8
:100BA000B6C062307105810591050CF0D0C01B8282
:100BB0001C821D821E82188E198E1A8E1B8E1CAAF4
:100BC0001DAA1EAA1FAAC12CD12C7601C701B601ED
:100BD000DF91CF911F910F91FF90EF90DF90CF9019
:100BE000BF90AF909F908F907F906F905F904F904D
:100BF00008951016110612061306B4F46C157D053F
:100C00008E059F051CF42A812111A1C09B01AC0116
:100C100088279927DC01821B930BA40BB50B8CABA7
:100C20009DABAEABBFAB93C00115110521053105DE
:100C300009F48DC06C157D058E059F050CF087C0ED
:100C40008A81882309F483C03095209510950195F9
:100C50001F4F2F4F3F4F0CAB1DAB2EAB3FAB77C0A1
:100C6000011511052105310509F471C08824992465
:100C700054018C189D08AE08BF08681579058A05CF
:100C80009B050CF064C08A81811161C0DDCFCCACC2
:100C9000DDACEEACFFACA7019601C701B6010E9426
:100CA000FF0D2B013C01C501B4010E941A0F20E089
:100CB00030E040E850E40E94CF0F20E030E040E810
:100CC0005FE30E94FF0D9B01AC01C301B2010E94D2
:100CD000700E9B01AC01C701B6010E94FE0D3B01E5
:100CE0006C01FE01E05CFF4FE080F1800281138126
:100CF0009701A8010E94CA0F181614F47301860107
:100D0000C701D8018CAF9DAFAEAFBFAF3AC00CA941
:100D10001DA92EA93FA91C141D041E041F040CF4B8
:100D200068CF10161106120613060CF099CF002793
:100D3000112798010C191D092E093F096017710729
:100D4000820793070CF062CF2A8121115FCF8CA814
:100D50009DA8AEA8BFA881149104A104B10409F014
:100D600096CF88AD99ADAAADBBAD8CAF9DAFAEAF00
:100D7000BFAF81E01C141D041E041F040CF080E0B2
:100D80008A833FEF831A930AA30AB30A8CAA9DAA07
:100D9000AEAABFAA8CAC9DACAEACBFACC501B401D1
:100DA0000E94E90E6B017C01CB82DC82ED82FE8227
:100DB000A501940160E074E284E799E40E94700E5A
:100DC000688F798F8A8F9B8F2A812111FFCE90584F
:100DD000688F798F8A8F9B8FF9CECF92DF92EF92B7
:100DE000FF92CF93DF93C3EDD2E0688D798D8A8D2A
:100DF0009B8D9B01AC010E94CF0F6B017C0168A110
:100E000079A18AA19BA19B01AC010E94FF0D9B01CE
:100E1000AC01C701B6010E94700E0E94E20E6CABDD
:100E20007DAB8EAB9FABCE01DF91CF91FF90EF906A
:100E3000DF90CF900C94940508954F925F926F923B
:100E40007F928F929F92AF92BF92CF92DF92EF925A
:100E5000FF926B017C0120E030E0A9010E946B0E43
:100E600087FF04C0F7FAF094F7F8F0948090F3024B
:100E70009090F402A090F502B090F602A7019601BE
:100E8000C501B4010E946B0E882309F458C060911B
:100E90000703709108038091090390910A030E944F
:100EA0001A0F2B013C01A7019601C501B4010E9454
:100EB000700E9B01AC01C301B2010E94CF0F0E94D2
:100EC000E20E6093070370930803809309039093E5
:100ED0000A03A701960160E070E080E090E40E94C0
:100EE000700E0E94421026E53EE04DE25FE30E9454
:100EF000CF0F20E034E244E759E40E94CF0F609323
:100F00000B0370930C0380930D0390930E03C09218
:100F1000F302D092F402E092F502F092F60283ED31
:100F200092E0FF90EF90DF90CF90BF90AF909F90B6
:100F30008F907F906F905F904F900C949405FF90EE
:100F4000EF90DF90CF90BF90AF909F908F907F9069
:100F50006F905F904F900895FC0101900020E9F799
:100F60003197AF01481B590BBC0184E292E00C940D
:100F7000DF01CF93DF930E94AC07EC0180E491E0A6
:100F80000E94AC078C0F9D1FDF91CF9108958F9227
:100F90009F92AF92BF92CF92DF92EF92FF920F9308
:100FA0001F93CF93DF93CDB7DEB7A1970FB6F89419
:100FB000DEBF0FBECDBF6B017C01F7FE47C06DE207
:100FC00084E292E00E947F028C0122273327A9014C
:100FD0002C193D094E095F0919A2CE0181967C01A9
:100FE0009AE0892E912CA12CB12CCA01B901A5013E
:100FF00094010E949710605DF70162937F012115B3
:1010000031054105510589F790E080E0309719F0EE
:10101000CF010E94AC07080F191F80E491E00E94E5
:10102000AC07800F911FA1960FB6F894DEBF0FBEDC
:10103000CDBFDF91CF911F910F91FF90EF90DF9087
:10104000CF90BF90AF909F908F900895AC019B017F
:1010500019A28E010F5D1F4F8AE0C82ED12CE12C02
:10106000F12CCA01B901A70196010E949710605D99
:10107000F80162938F01211531054105510589F76A
:10108000309729F0CF010E94AC078C01C6CF10E049
:1010900000E0C3CF0E9403120C947A111F920F92AA
:1010A0000FB60F9211242F933F938F939F93AF937B
:1010B000BF9380911C0290911D02A0911E02B091DD
:1010C0001F0230911B0223E0230F2D3758F50196A4
:1010D000A11DB11D20931B0280931C0290931D0241
:1010E000A0931E02B0931F028091200290912102D2
:1010F000A0912202B09123020196A11DB11D8093FF
:10110000200290932102A0932202B0932302BF9168
:10111000AF919F918F913F912F910F900FBE0F90A4
:101120001F90189526E8230F0296A11DB11DD2CF5E
:101130001F920F920FB60F9211242F933F934F934C
:101140005F936F937F938F939F93AF93BF93EF932F
:10115000FF9384E292E00E945D02FF91EF91BF91C4
:10116000AF919F918F917F916F915F914F913F913F
:101170002F910F900FBE0F901F9018951F920F92F6
:101180000FB60F9211242F938F939F93EF93FF939A
:10119000E0913402F09135028081E0913A02F091C1
:1011A0003B0282FD1BC0908180913D028F5F8F7357
:1011B00020913E02821741F0E0913D02F0E0EC5DAB
:1011C000FD4F958F80933D02FF91EF919F918F91FD
:1011D0002F910F900FBE0F901F9018958081F4CF24
:1011E000CF92DF92EF92FF92109227021092260286
:1011F00088EE93E0A0E0B0E080932802909329026B
:10120000A0932A02B0932B028AE091E090932502EA
:101210008093240285EC90E0909331028093300219
:1012200084EC90E0909333028093320280EC90E063
:10123000909335028093340281EC90E090933702D2
:101240008093360282EC90E09093390280933802CA
:1012500086EC90E090933B0280933A0210923D021C
:1012600010923E0210923F021092400284E291E0FE
:101270009093D4028093D30281E08093DA0210929B
:10128000E3021092E4021092E5021092E60210923C
:10129000E7021092E8021092E9021092EA0210921C
:1012A000EB021092EC021092ED021092EE021092FC
:1012B000EF021092F0021092F1021092F2021092DC
:1012C000F3021092F4021092F5021092F602C12C71
:1012D000D12C80E8E82E8FE3F82EC092F702D0924E
:1012E000F802E092F902F092FA021092D6021092FD
:1012F000D7021092D8021092D90281E090E0909328
:1013000000038093FF028FEF809302031092FB0291
:101310001092FC021092FD021092FE0288E080936F
:10132000DB0287E08093DC0284E08093DD0285E0CD
:101330008093DE02109201031092070310920803BB
:101340001092090310920A0310920B0310920C03DF
:1013500010920D0310920E0310920F0310921003BF
:101360001092110310921203C0921303D09214032F
:10137000E0921503F09216031092D5021092DF024C
:101380001092E0021092E1021092E20283ED92E0EC
:101390000E94FA02C701B6010E941D07A70196012B
:1013A0006091EF027091F0028091F1029091F2024F
:1013B0000E946B0E882319F1C092EF02D092F002C6
:1013C000E092F102F092F20280E094E2A4E7B9E444
:1013D0008093130390931403A0931503B093160303
:1013E0008091070390910803A0910903B0910A032B
:1013F000181619061A061B0614F40E94ED06109220
:10140000C3021092C4021092C5021092C6028AE072
:1014100090E09093C8028093C7021092C9028CE1B9
:1014200091E09093C2028093C1021092D202FF9089
:10143000EF90DF90CF900895789484B5826084BD5A
:1014400084B5816084BD85B5826085BD85B58160C8
:1014500085BD80916E00816080936E001092810046
:101460008091810082608093810080918100816001
:1014700080938100809180008160809380008091C2
:10148000B10084608093B1008091B000816080934E
:10149000B00080917A00846080937A0080917A0015
:1014A000826080937A0080917A00816080937A00D4
:1014B00080917A00806880937A001092C100E09158
:1014C0003402F091350282E08083E0913002F091A5
:1014D00031021082E0913202F091330280E1808388
:1014E00010923C02E0913802F091390286E080834C
:1014F000E0913602F0913702808180618083E09133
:101500003602F0913702808188608083E091360254
:10151000F0913702808180688083E0913602F091FB
:10152000370280818F7D80831092DF0281E080937B
:10153000E0021092010362E083E00E94970161E003
:1015400082E00E94970161E086E00E94970162E0DC
:101550008EE00E94970161E086E00E94690160E0F0
:1015600082E00E9469018EE08093D2021092C9024B
:1015700081EC92E00E94F002882329F08091C90258
:1015800083608093C9020E94D3016093C302709369
:10159000C4028093C5029093C60289E190E09093C3
:1015A000C8028093C70220E030E04AEF53E4609124
:1015B000EF027091F0028091F1029091F2020E948C
:1015C0006B0E882339F180E090E0AAEFB3E48093BA
:1015D000EF029093F002A093F102B093F20280E048
:1015E00090E0AAEFB4E48093130390931403A093C4
:1015F0001503B09316038091070390910803A091FF
:101600000903B0910A03181619061A061B0614F4EA
:101610000E94ED0660E070E08AE794E40E941D07F6
:1016200083E491E00E94B907E2E04E2E512C612C38
:10163000712C09E010E05CE0E52EF12C63E0262E31
:10164000312C76E0872E912C8091C9028B7F80937C
:10165000C90281EC92E00E94F002C82F8091C90279
:1016600086958170C81709F4B1C00E94D3016093B8
:10167000C3027093C4028093C5029093C602809106
:10168000C90292E089278093C9028091C9028570BE
:10169000853059F48EE00E944001019731F4109298
:1016A0001A0282E791E00E94B90780911A02811123
:1016B00001C18091C90280FD4EC082FF4CC0809163
:1016C000180290911902892B09F045C060E086E06C
:1016D0000E94690160E082E00E94690184E891E073
:1016E0000E94B9071092E3021092E4021092E50200
:1016F0001092E6021092E7021092E8021092E902BC
:101700001092EA0210920703109208031092090344
:1017100010920A031092D6021092D7021092D802A9
:101720001092D9021092EB021092EC021092ED028C
:101730001092EE020E94D30160931402709315027E
:10174000809316029093170245E0C42ED12CD092BC
:101750001902C09218028091180290911902892BE7
:1017600009F4A8C083E00E944001EC010E94D3016B
:1017700020911402309115024091160250911702E7
:10178000621B730B840B950B69397A4381059105B4
:1017900020F0F0921902E0921802E0911802F09104
:1017A00019023197EC30F10508F084C0E652F44F8D
:1017B0000C94D810880C090DB70C370D3C0C670C35
:1017C000E80CFB0C3C0D8F0DE10DEE0D0E94D301DA
:1017D0002091C3023091C4024091C5025091C602CB
:1017E0005B016C01A21AB30AC40AD50AB601A501AD
:1017F0008091C7029091C802B0E0A0E04817590755
:101800006A077B0708F441CF8091C9028170C8172D
:1018100009F43BCF0E94D3016093C3027093C402CA
:101820008093C5029093C6028091C90291E08927F6
:1018300084608093C9020E94D3012091CA02309132
:10184000CB024091CC025091CD02621B730B840BF2
:10185000950B6093CE027093CF028093D002909349
:10186000D1020E94D3016093CA027093CB0280938D
:10187000CC029093CD0209CF60E070E08AEF93E450
:101880000E948C000E940D0581E090E0CD2B09F4B0
:1018900069C08091E3029091E402A091E502B091C9
:1018A000E60281329340A105B10524F0909219021D
:1018B0008092180280E090E0892B09F4C5CE0E9446
:1018C0004902882309F4B7CE0E940000B4CE60E03C
:1018D00070E08AEF93EC0E948C000E940D05CD2BE6
:1018E00029F43092190220921802E4CF8091E30289
:1018F0009091E402A091E502B091E602803E9C4FF7
:10190000AF4FBF4FBCF6F0921902E0921802D2CF4F
:1019100060E070E088EC92E40E948C000E940D056B
:10192000CD2B41F28091E3029091E402A091E50277
:10193000B091E6028093100290931102A0931202DC
:10194000B09313028DE991E00E94AC076091100200
:101950007091110280911202909113020E94C707A8
:1019600087E090E09093190280931802A3CF60E083
:1019700070E088EC92EC0E948C000E940D05CD2B4B
:1019800009F498CF8091E3029091E402A091E502DE
:10199000B091E6028093100290931102A09312027C
:1019A000B09313028DE991E00E94AC0760911002A0
:1019B0007091110280911202909113020E94C70748
:1019C00038E0A32EB12CB0921902A092180272CF67
:1019D00060E070E088EC92EC0E948C000E940D05A3
:1019E000CD2B09F067CF22E0C22ED12CD092190264
:1019F000C09218025FCF60E070E088EC92E40E9431
:101A00008C000E940D0584E090E0CD2B09F4AACF54
:101A100051CF60E070E088EC92EC0E948C000E9454
:101A20000D05CD2B09F446CF8091E3029091E4029D
:101A3000A091E502B091E60280930C0290930D0212
:101A4000A0930E02B0930F0280EB91E00E94AC07CE
:101A500060910C0270910D0280910E0290910F0224
:101A60000E94C707109319020093180223CF60E069
:101A700070E088EC92E4D1CF609110027091110275
:101A8000809112029091130220910C0230910D026C
:101A900040910E0250910F02620F731F841F951F19
:101AA000A30192010E94B910209308023093090209
:101AB00040930A0250930B0284EC91E00E94AC0721
:101AC000609108027091090280910A0290910B02C4
:101AD0000E94C7078091080290910902A0910A0212
:101AE000B0910B024091E7025091E8026091E90247
:101AF0007091EA0284179507A607B70761F08093F3
:101B0000E7029093E802A093E902B093EA0283ED22
:101B100092E00E9494059AE0A92EB12C54CF0E9425
:101B20000D05882321F083ED92E00E9494054091F9
:101B3000E7025091E8026091E9027091EA02809117
:101B4000E3029091E402A091E502B091E602481709
:101B500059076A077B0709F0ADCE1092E302109295
:101B6000E4021092E5021092E6021092E70210924F
:101B7000E8021092E9021092EA0210920703109212
:101B800008031092090310920A031092D6021092D1
:101B9000D7021092D8021092D9021092EB02109242
:101BA000EC021092ED021092EE028BE0C82ED12CC6
:101BB000D0921902C092180261E086E00E94690189
:101BC00079CE8AED91E00E94B90761E082E00E943F
:101BD00069011092190210921802EECF84EF91E081
:101BE0000E94B90761E086E00E94690181E080936C
:101BF0001A0210921902109218025CCE5058BB279C
:101C0000AA270E94160E0C94900F0E94820F38F0A3
:101C10000E94890F20F039F49F3F19F426F40C94A8
:101C20007F0F0EF4E095E7FB0C94790FE92F0E94EB
:101C3000A10F58F3BA17620773078407950720F0BE
:101C400079F4A6F50C94C30F0EF4E0950B2EBA2F81
:101C5000A02D0B01B90190010C01CA01A0011124B2
:101C6000FF27591B99F0593F50F4503E68F11A165E
:101C7000F040A22F232F342F4427585FF3CF4695EF
:101C800037952795A795F0405395C9F77EF41F1611
:101C9000BA0B620B730B840BBAF09150A1F0FF0FDB
:101CA000BB1F661F771F881FC2F70EC0BA0F621FC7
:101CB000731F841F48F4879577956795B795F795B7
:101CC0009E3F08F0B0CF9395880F08F09927EE0F4C
:101CD0009795879508950E94550F08F481E008951F
:101CE0000E94840E0C94900F0E94890F58F00E945D
:101CF000820F40F029F45F3F29F00C94790F5111C5
:101D00000C94C40F0C947F0F0E94A10F68F39923C9
:101D1000B1F3552391F3951B550BBB27AA276217E7
:101D20007307840738F09F5F5F4F220F331F441FF4
:101D3000AA1FA9F335D00E2E3AF0E0E832D0915028
:101D40005040E695001CCAF72BD0FE2F29D0660F15
:101D5000771F881FBB1F261737074807AB07B0E858
:101D600009F0BB0B802DBF01FF2793585F4F3AF05E
:101D70009E3F510578F00C94790F0C94C40F5F3F8F
:101D8000E4F3983ED4F3869577956795B795F795E4
:101D90009F5FC9F7880F911D9695879597F90895CC
:101DA000E1E0660F771F881FBB1F62177307840768
:101DB000BA0720F0621B730B840BBA0BEE1F88F777
:101DC000E09508950E94E90E6894B1110C94C40F37
:101DD00008950E94A90F88F09F5798F0B92F99276E
:101DE000B751B0F0E1F0660F771F881F991F1AF006
:101DF000BA95C9F714C0B13091F00E94C30FB1E099
:101E000008950C94C30F672F782F8827B85F39F097
:101E1000B93FCCF3869577956795B395D9F73EF49E
:101E200090958095709561957F4F8F4F9F4F089546
:101E3000E89409C097FB3EF4909580957095619564
:101E40007F4F8F4F9F4F9923A9F0F92F96E9BB271A
:101E50009395F695879577956795B795F111F8CF96
:101E6000FAF4BB0F11F460FF1BC06F5F7F4F8F4F01
:101E70009F4F16C0882311F096E911C0772321F0F7
:101E80009EE8872F762F05C0662371F096E8862F8F
:101E900070E060E02AF09A95660F771F881FDAF7E6
:101EA000880F9695879597F90895990F0008550F13
:101EB000AA0BE0E8FEEF16161706E807F907C0F0D0
:101EC00012161306E407F50798F0621B730B840BD8
:101ED000950B39F40A2661F0232B242B252B21F4B2
:101EE00008950A2609F4A140A6958FEF811D811D52
:101EF000089597F99F6780E870E060E008959FEF8C
:101F000080EC089500240A94161617061806090690
:101F1000089500240A94121613061406050608955F
:101F2000092E0394000C11F4882352F0BB0F40F4E7
:101F3000BF2B11F460FF04C06F5F7F4F8F4F9F4F27
:101F4000089557FD9058440F551F59F05F3F71F0A9
:101F50004795880F97FB991F61F09F3F79F0879510
:101F60000895121613061406551FF2CF4695F1DF99
:101F700008C0161617061806991FF1CF8695710529
:101F8000610508940895E894BB2766277727CB015D
:101F900097F908950E94550F08F48FEF08950E9455
:101FA000E20F0C94900F0E94820F38F00E94890F6C
:101FB00020F0952311F00C94790F0C947F0F1124CD
:101FC0000C94C40F0E94A10F70F3959FC1F3950F5D
:101FD00050E0551F629FF001729FBB27F00DB11DAD
:101FE000639FAA27F00DB11DAA1F649F6627B00D3D
:101FF000A11D661F829F2227B00DA11D621F739F26
:10200000B00DA11D621F839FA00D611D221F749F33
:102010003327A00D611D231F849F600D211D822F7A
:10202000762F6A2F11249F5750409AF0F1F08823A1
:102030004AF0EE0FFF1FBB1F661F771F881F9150CE
:102040005040A9F79E3F510580F00C94790F0C94F5
:10205000C40F5F3FE4F3983ED4F386957795679578
:10206000B795F795E7959F5FC1F7FE2B880F911DF8
:102070009695879597F9089519F416F40C947F0FA7
:102080000C9482100E94A90FB8F39923C9F3B6F3F8
:102090009F57550B87FF0E9490100024A0E640EA4E
:1020A000900180585695979528F4805C660F771FAD
:1020B000881F20F026173707480730F4621B730B80
:1020C000840B202931294A2BA695179407942025A3
:1020D00031254A2758F7660F771F881F20F02617EB
:1020E0003707480730F4620B730B840B200D311D4A
:1020F000411DA09581F7B901842F9158880F9695BD
:10210000879508959F3F31F0915020F487957795FA
:102110006795B795880F911D9695879597F90895BE
:1021200091505040660F771F881FD2F70895A1E2A3
:102130001A2EAA1BBB1BFD010DC0AA1FBB1FEE1F41
:10214000FF1FA217B307E407F50720F0A21BB30B8C
:10215000E40BF50B661F771F881F991F1A9469F708
:1021600060957095809590959B01AC01BD01CF0164
:102170000895052E97FB1EF400940E94D01057FD81
:1021800007D00E94971007FC03D04EF40C94D01097
:1021900050954095309521953F4F4F4F5F4F089593
:1021A00090958095709561957F4F8F4F9F4F0895C3
:1021B000EE0FFF1F0590F491E02D09940F931F93EC
:1021C000CF93DF938230910510F482E090E0E091AC
:1021D0001903F0911A0330E020E0B0E0A0E030975E
:1021E00099F42115310509F44AC0281B390B243014
:1021F0003105D8F58A819B816115710589F1FB0153
:1022000093838283FE0111C0408151810281138139
:1022100048175907E0F04817590799F4109761F0EB
:1022200012960C93129713961C933296CF01DF915E
:10223000CF911F910F9108950093190310931A03E2
:10224000F4CF2115310551F04217530738F0A90199
:10225000DB019A01BD01DF01F801C1CFEF01F9CF28
:1022600090931A0380931903CDCFFE01E20FF31F61
:10227000819391932250310939832883D7CF2091BC
:10228000170330911803232B41F420910201309160
:10229000030130931803209317032091000130911C
:1022A00001012115310541F42DB73EB740910401DC
:1022B00050910501241B350BE0911703F091180391
:1022C000E217F307A0F42E1B3F0B2817390778F00D
:1022D000AC014E5F5F4F2417350748F04E0F5F1F6C
:1022E0005093180340931703819391939FCFF0E08D
:1022F000E0E09CCFCF93DF930097E9F0FC013297A9
:1023000013821282A0911903B0911A03ED0130E0FB
:1023100020E01097A1F420813181820F931F20913A
:102320001703309118032817390709F061C0F0939B
:102330001803E0931703DF91CF910895EA01CE17B8
:10234000DF07E8F54A815B819E0141155105B1F730
:10235000E901FB83EA8349915991C40FD51FEC171A
:10236000FD0761F4808191810296840F951FE90138
:1023700099838883828193819B838A83F0E0E0E064
:1023800012968D919C9113970097B9F52D913C91E0
:102390001197CD010296820F931F20911703309160
:1023A00018032817390739F6309751F510921A0398
:1023B00010921903B0931803A0931703BCCFD383D3
:1023C000C28340815181840F951FC817D90761F4DA
:1023D0004E5F5F4F88819981480F591F5183408319
:1023E0008A819B81938382832115310509F0B0CFC7
:1023F000F0931A03E09319039ECFFD01DC01C0CFD7
:1024000013821282D7CF81E090E0F8940C940812E6
:04241000F894FFCF6E
:1024140000001B038000000000007F02DF010C02AB
:10242400CC023D021B022F0200000000F002EC026D
:10243400000000002E03FA021C074C0894058F04C8
:10244400CD04790447042604F203D1037B034C032F
:102454000D0A0053697374656D61206C6973746F40
:102464002E2050726573696F6E6120656C20626FF7
:1024740074C3B36E207061726120686F6D696E679A
:102484002E00F09F948420486F6D696E67207265FA
:1024940073657400F09F94B920496E696369616E35
:1024A400646F20686F6D696E672E2E2E00507269FE
:1024B4006D657220666C616E636F20656E3A2000F4
:1024C400536567756E646F20666C616E636F20651B
:1024D4006E3A200043656E74726F2063616C63759D
:1024E4006C61646F20656E3A2000E29C8520486F21
:1024F4006D696E67204F4B2E2043656E74726F209A
:102504003D203000E29D8C204552524F522064659C
:0825140020686F6D696E67001D
:00000001FF
