:020000040000FA
:100000000C9462000C948A000C948A000C948A0070
:100010000C948A000C948A000C948A000C948A0038
:100020000C948A000C948A000C948A000C948A0028
:100030000C948A000C948A000C948A000C948A0018
:100040000C9462070C948A000C94D2070C94AC07B1
:100050000C948A000C948A000C948A000C948A00F8
:100060000C948A000C948A000000000024002700F1
:100070002A0000000000250028002B0000000000DE
:1000800023002600290004040404040404040202DA
:100090000202020203030303030301020408102007
:1000A0004080010204081020010204081020000012
:1000B0000008000201000003040700000000000027
:1000C0000000040811241FBECFEFD8E0DEBFCDBF73
:1000D00011E0A0E0B1E0EEE1F0E202C005900D9287
:1000E000AC3EB107D9F722E0ACEEB1E001C01D9201
:1000F000AD3EB207E1F710E0C2E6D0E004C02197C0
:10010000FE010E94BB0EC136D107C9F70E94370914
:100110000C940D100C940000833081F028F4813091
:1001200099F08230A9F008958730A9F08830C9F09D
:100130008430B1F4809180008F7D03C08091800075
:100140008F7780938000089584B58F7784BD08955C
:1001500084B58F7DFBCF8091B0008F778093B00006
:1001600008958091B0008F7DF9CFCF93DF93282F32
:1001700030E0F901E255FF4F8491F901E656FF4F57
:10018000D491F901EA57FF4FC491CC23A1F081111A
:100190000E948C00EC2FF0E0EE0FFF1FE458FF4FA1
:1001A000A591B491EC91ED2381E090E009F480E019
:1001B000DF91CF91089580E090E0FACF1F93CF9325
:1001C000DF93282F30E0F901E255FF4F8491F901C8
:1001D000E656FF4FD491F901EA57FF4FC491CC2363
:1001E000A9F0162F81110E948C00EC2FF0E0EE0F89
:1001F000FF1FEE58FF4FA591B4918FB7F894EC9183
:10020000111108C0D095DE23DC938FBFDF91CF9111
:100210001F910895DE2BF8CFCF93DF9390E0FC0180
:10022000E656FF4F24918A579F4FFC018491882303
:10023000C9F090E0880F991FFC01E859FF4FA59184
:10024000B491FC01EE58FF4FC591D49161110DC0DE
:100250009FB7F8948C91209582238C9388812823D2
:1002600028839FBFDF91CF910895623051F49FB7EB
:10027000F8943C91822F809583238C93E8812E2BD8
:10028000EFCF8FB7F894EC912E2B2C938FBFEACF42
:100290002FB7F8946091F1017091F2018091F30110
:1002A0009091F4012FBF0895AF92BF92CF92DF9249
:1002B000EF92FF920F931F93CF93DF936C017B011B
:1002C0008B01040F151FEB015E01AE18BF08C017AC
:1002D000D10759F06991D601ED91FC910190F0811F
:1002E000E02DC6010995892B79F7C501DF91CF91E2
:1002F0001F910F91FF90EF90DF90CF90BF90AF9044
:100300000895FC01538D448D252F30E0842F90E01B
:10031000821B930B541710F0CF9608950197089500
:10032000FC01918D828D981761F0A28DAE0FBF2FC9
:10033000B11D5D968C91928D9F5F9F73928F90E01F
:1003400008958FEF9FEF0895FC01918D828D98178E
:1003500031F0828DE80FF11D858D90E008958FEFCB
:100360009FEF0895FC01918D228D892F90E0805C94
:100370009F4F821B91098F739927089585EF91E014
:100380000E94B20121E0892B09F420E0822F089518
:1003900080E090E0892B29F00E94BE0181110C942D
:1003A00000000895FC01A48DA80FB92FB11DA35A18
:1003B000BF4F2C91848D90E001968F739927848F85
:1003C000A689B7892C93A089B1898C9183708064A8
:1003D0008C93938D848D981306C00288F389E02D49
:1003E00080818F7D80830895EF92FF920F931F93FA
:1003F000CF93DF93EC0181E0888F9B8D8C8D9813D8
:100400001AC0E889F989808185FF15C09FB7F894E3
:10041000EE89FF896083E889F9898081837080642F
:1004200080839FBF81E090E0DF91CF911F910F917A
:10043000FF90EF900895F62E0B8D10E00F5F1F4F89
:100440000F731127E02E8C8D8E110CC00FB607FC98
:10045000FACFE889F989808185FFF5CFCE010E9426
:10046000D201F1CFEB8DEC0FFD2FF11DE35AFF4FC1
:10047000F0829FB7F8940B8FEA89FB8980818062B4
:10048000CFCFCF93DF93EC01888D8823B9F0AA8971
:10049000BB89E889F9898C9185FD03C0808186FD3F
:1004A0000DC00FB607FCF7CF8C9185FFF2CF80818E
:1004B00085FFEDCFCE010E94D201E9CFDF91CF9130
:1004C0000895862F642F0C940C01FC0181890E94F1
:1004D000B50021E0892B09F420E0822F0895CF9305
:1004E000DF93FC012781222359F1EC0161E0808533
:1004F0000E940C0161E089850E940C018F8184308B
:1005000011F08830B1F461E08A850E940C0161E04D
:100510008B850E940C018FA58F3F91F061E00E94B6
:100520000C016EA581E068278FA5DF91CF910C9417
:10053000DE00833011F0863071F761E08A85E9CF03
:10054000DF91CF910895CF93DF93FC012781222380
:10055000A9F0EC010190F081E02D0284F385E02DFB
:1005600060E009958FA58F3F49F061E00E940C0182
:100570006EA58FA5DF91CF910C94DE00DF91CF9116
:100580000895DC01ED91FC91228533854770552754
:100590006627772741505109610971094730510594
:1005A0006105710560F4FA01E852FD4F0C94BB0E31
:1005B000E202E402E602E802EA02EC02EE0261E094
:1005C000F901099465E0FCCF64E0FACF66E0F8CF6A
:1005D00062E0F6CF6AE0F4CF68E0F2CF69E0F0CFF6
:1005E000CF93DF93EC01CB01BA0126E030E040E08D
:1005F00050E00E949C0E623071058105910589F1E1
:100600006CF46115710581059105D1F061307105BA
:1006100081059105F9F0DF91CF910895643071055E
:100620008105910561F124F1653071058105910520
:1006300091F7E881F9810284F385E02D66E006C038
:10064000E881F9810284F385E02D64E0CE01DF9139
:10065000CF910994E881F9810284F385E02D65E06A
:10066000F5CFE881F9810284F385E02D61E0EECFDA
:10067000E881F9810284F385E02D63E0E7CFE8812A
:10068000F9810284F385E02D62E0E0CFDC01ED9199
:10069000FC910284F385E02D437055276627772768
:1006A000423051056105710571F043305105610516
:1006B000710559F0413051056105710511F065E092
:1006C000099466E0FDCF6AE0FBCF69E0F9CFCF93F4
:1006D000DF93EC01CB01BA0123E030E040E050E0D1
:1006E0000E949C0E613071058105910599F0623080
:1006F000710581059105A9F0672B682B692BC1F461
:10070000E881F9810284F385E02D64E0CE01DF9178
:10071000CF910994E881F9810284F385E02D61E0AD
:10072000F5CFE881F9810284F385E02D62E0EECF18
:10073000DF91CF910895DC01ED91FC910284F38566
:10074000E02D437055276627772742305105610514
:10075000710571F0433051056105710559F0413063
:1007600051056105710511F062E0099463E0FDCF68
:1007700061E0FBCF60E0F9CFCF93DF93EC01E8813C
:10078000F9810284F385E02D8A8160E0811162E0C5
:10079000CE010995E881F9810284F385E02D8A81F3
:1007A00061E0811163E0CE0109958CA59DA58230A1
:1007B000910538F0880F991F880F991F05970197A9
:1007C000F1F7E881F9810284F385E02D8A8160E008
:1007D000811162E0CE01DF91CF910994CF93DF9335
:1007E000EC0120E030E0A901688D798D8A8D9B8D28
:1007F0000E94CF0D18162CF4E8A9F9A9DF91CF912A
:100800000994EAA9FBA9FACFCF92DF92EF92FF9267
:100810000F931F93CF93DF93DC011796CC91C430D5
:1008200039F0C83059F1C33019F0C63049F1C2E08F
:100830008C01085F1F4FF12CE12CC62ED12CD1E08A
:10084000F8016481C6010E2C02C0959587950A9423
:10085000E2F780FD6D270F5F1F4F80810E94DE0051
:10086000BFEFEB1AFB0AEC1658F3DF91CF911F9103
:100870000F91FF90EF90DF90CF900895C4E0D8CF14
:10088000C3E0D6CFDC011796EC911797E93008F05A
:1008900038C0F0E0E25BFB4F0C94BB0E57045D04E4
:1008A000630469046F048104750481047B04ED9181
:1008B000FC910684F785E02D0994ED91FC91008868
:1008C000F189E02DF9CFED91FC910288F389E02DBB
:1008D000F3CFED91FC910488F589E02DEDCFED91FA
:1008E000FC910688F789E02DE7CFED91FC91008C13
:1008F000F18DE02DE1CFED91FC91028CF38DE02D97
:10090000DBCF08954F925F926F927F928F929F926A
:10091000AF92BF92CF92DF92EF92FF920F931F930D
:10092000CF93DF93EC01CC88DD88EE88FF8888893F
:100930009989AA89BB89C81AD90AEA0AFB0A688D6B
:10094000798D8A8D9B8D9B01AC010E94D40D4B014A
:100950005C0168A179A18AA19BA19B01AC010E94C5
:10096000040C9B01AC01C501B4010E94750C0E94EE
:10097000E70CC114D104E104F10409F0B6C06230FF
:100980007105810591050CF0D0C01B821C821D826F
:100990001E82188E198E1A8E1B8E1CAA1DAA1EAAC4
:1009A0001FAAC12CD12C7601C701B601DF91CF91CE
:1009B0001F910F91FF90EF90DF90CF90BF90AF907D
:1009C0009F908F907F906F905F904F90089510163A
:1009D000110612061306B4F46C157D058E059F05ED
:1009E0001CF42A812111A1C09B01AC018827992701
:1009F000DC01821B930BA40BB50B8CAB9DABAEAB98
:100A0000BFAB93C0011511052105310509F48DC057
:100A10006C157D058E059F050CF087C08A818823A3
:100A200009F483C030952095109501951F4F2F4FE5
:100A30003F4F0CAB1DAB2EAB3FAB77C00115110583
:100A40002105310509F471C08824992454018C18BA
:100A50009D08AE08BF08681579058A059B050CF04E
:100A600064C08A81811161C0DDCFCCACDDACEEAC5D
:100A7000FFACA7019601C701B6010E94040C2B012F
:100A80003C01C501B4010E941F0D20E030E040E8A8
:100A900050E40E94D40D20E030E040E85FE30E9483
:100AA000040C9B01AC01C301B2010E94750C9B01B7
:100AB000AC01C701B6010E94030C3B016C01FE01B1
:100AC000E05CFF4FE080F180028113819701A80173
:100AD0000E94CF0D181614F473018601C701D801C6
:100AE0008CAF9DAFAEAFBFAF3AC00CA91DA92EA968
:100AF0003FA91C141D041E041F040CF468CF10161B
:100B00001106120613060CF099CF00271127980141
:100B10000C191D092E093F096017710782079307F9
:100B20000CF062CF2A8121115FCF8CA89DA8AEA8BE
:100B3000BFA881149104A104B10409F096CF88AD37
:100B400099ADAAADBBAD8CAF9DAFAEAFBFAF81E0ED
:100B50001C141D041E041F040CF080E08A833FEF68
:100B6000831A930AA30AB30A8CAA9DAAAEAABFAAA3
:100B70008CAC9DACAEACBFACC501B4010E94EE0C18
:100B80006B017C01CB82DC82ED82FE82A5019401A7
:100B900060E074E284E799E40E94750C688F798FB5
:100BA0008A8F9B8F2A812111FFCE9058688F798F71
:100BB0008A8F9B8FF9CECF92DF92EF92FF92CF93E5
:100BC000DF93C5EAD2E0688D798D8A8D9B8D9B017C
:100BD000AC010E94D40D6B017C0168A179A18AA1AE
:100BE0009BA19B01AC010E94040C9B01AC01C701BD
:100BF000B6010E94750C0E94E70C6CAB7DAB8EAB0E
:100C00009FABCE01DF91CF91FF90EF90DF90CF901F
:100C10000C9482044F925F926F927F928F929F9278
:100C2000AF92BF92CF92DF92EF92FF92CF93DF937A
:100C300000D000D0CDB7DEB78090BD029090BE024C
:100C4000A090BF02B090C00220E030E0A901C50131
:100C5000B4010E94700C882309F470C0A5019401AE
:100C6000C501B4010E94D40D6B017C016091C502E5
:100C70007091C6028091C7029091C8029B01AC019D
:100C80000E94040C9B01AC01C701B6010E94750CC7
:100C90000E94E70C6B017C014090B5025090B602B7
:100CA0006090B7027090B8028091B9029091BA0238
:100CB000A091BB02B091BC0289839A83AB83BC83B1
:100CC00020E030E0A901C501B4010E94CF0D181643
:100CD00084F59FEFC91AD90AE90AF90A4C0C5D1C80
:100CE0006E1C7F1C89819A81AB81BC814816590694
:100CF0006A067B0619F14092B9025092BA026092DC
:100D0000BB027092BC0285EA92E00F900F900F90A8
:100D10000F90DF91CF91FF90EF90DF90CF90BF9039
:100D2000AF909F908F907F906F905F904F900C94BA
:100D30008204C094D094E094F094D0CF0F900F90A0
:100D40000F900F90DF91CF91FF90EF90DF90CF90B9
:100D5000BF90AF909F908F907F906F905F904F90DB
:100D6000089508954F925F926F927F928F929F9213
:100D7000AF92BF92CF92DF92EF92FF926B017C0114
:100D800020E030E0A9010E94700C87FF04C0F7FA50
:100D9000F094F7F8F0948090C5029090C602A0906D
:100DA000C702B090C802A7019601C501B4010E9414
:100DB000700C882309F458C06091D9027091DA024E
:100DC0008091DB029091DC020E941F0D2B013C01FF
:100DD000A7019601C501B4010E94750C9B01AC01ED
:100DE000C301B2010E94D40D0E94E70C6093D902A6
:100DF0007093DA028093DB029093DC02A7019601E4
:100E000060E070E080E090E40E94750C0E94470E64
:100E100026E53EE04DE25FE30E94D40D20E034E29F
:100E200044E759E40E94D40D6093DD027093DE0222
:100E30008093DF029093E002C092C502D092C60276
:100E4000E092C702F092C80285EA92E0FF90EF902C
:100E5000DF90CF90BF90AF909F908F907F906F90DA
:100E60005F904F900C948204FF90EF90DF90CF90B2
:100E7000BF90AF909F908F907F906F905F904F90BA
:100E80000895CF93DF93FC0101900020E9F731979B
:100E9000AF01481B590BBC0185EF91E00E94540142
:100EA000EC0142E050E060E471E085EF91E00E94E7
:100EB00054018C0F9D1FDF91CF9108950E9408105F
:100EC0000C947F0F1F920F920FB60F9211242F9345
:100ED0003F938F939F93AF93BF938091F101909134
:100EE000F201A091F301B091F4013091F00123E0FF
:100EF000230F2D3758F50196A11DB11D2093F00148
:100F00008093F1019093F201A093F301B093F40167
:100F10008091EC019091ED01A091EE01B091EF0173
:100F20000196A11DB11D8093EC019093ED01A0935A
:100F3000EE01B093EF01BF91AF919F918F913F91DF
:100F40002F910F900FBE0F901F90189526E8230F3A
:100F50000296A11DB11DD2CF1F920F920FB60F9214
:100F600011242F933F934F935F936F937F938F93AE
:100F70009F93AF93BF93EF93FF9385EF91E00E9410
:100F8000D201FF91EF91BF91AF919F918F917F918E
:100F90006F915F914F913F912F910F900FBE0F90E6
:100FA0001F9018951F920F920FB60F9211242F9336
:100FB0008F939F93EF93FF93E0910502F0910602C8
:100FC0008081E0910B02F0910C0282FD1BC09081A8
:100FD00080910E028F5F8F7320910F02821741F074
:100FE000E0910E02F0E0EB50FE4F958F80930E02E1
:100FF000FF91EF919F918F912F910F900FBE0F90C6
:101000001F9018958081F4CFCF92DF92EF92FF92DC
:101010001092F8011092F70188EE93E0A0E0B0E0A2
:101020008093F9019093FA01A093FB01B093FC0126
:101030008AE091E09093F6018093F50185EC90E0D1
:10104000909302028093010284EC90E0909304025A
:101050008093030280EC90E0909306028093050257
:1010600081EC90E0909308028093070282EC90E07C
:1010700090930A028093090286EC90E090930C0210
:1010800080930B0210920E0210920F021092100227
:101090001092110284E291E09093A6028093A5023F
:1010A00081E08093AC021092B5021092B6021092C9
:1010B000B7021092B8021092B9021092BA021092BE
:1010C000BB021092BC021092BD021092BE0210929E
:1010D000BF021092C0021092C1021092C20210927E
:1010E000C3021092C4021092C5021092C60210925E
:1010F000C7021092C802C12CD12C80E8E82E8FE3E1
:10110000F82EC092C902D092CA02E092CB02F092AD
:10111000CC021092A8021092A9021092AA02109278
:10112000AB0281E090E09093D2028093D1028FEFE6
:101130008093D4021092CD021092CE021092CF0270
:101140001092D00294E09093AD0285E08093AE02BD
:101150009093AF028093B0021092D3021092D90202
:101160001092DA021092DB021092DC021092DD0281
:101170001092DE021092DF021092E0021092E10261
:101180001092E2021092E3021092E402C092E50291
:10119000D092E602E092E702F092E8021092A702F3
:1011A0001092B1021092B2021092B3021092B402E5
:1011B00085EA92E00E946F02C701B6010E94B20662
:1011C000A70196016091C1027091C2028091C30291
:1011D0009091C4020E94700C882319F1C092C10240
:1011E000D092C202E092C302F092C40280E094E284
:1011F000A4E7B9E48093E5029093E602A093E702A6
:10120000B093E8028091D9029091DA02A091DB02BA
:10121000B091DC02181619061A061B0614F40E9477
:10122000DB0510929502109296021092970210928E
:1012300098028AE090E090939A028093990210922B
:101240009B028CE191E09093940280939302109220
:10125000A40282E00E94B50021E0892B09F020E081
:1012600020939202FF90EF90DF90CF9008957894B2
:1012700084B5826084BD84B5816084BD85B582609B
:1012800085BD85B5816085BD80916E00816080934C
:101290006E001092810080918100826080938100B5
:1012A00080918100816080938100809180008160C5
:1012B000809380008091B10084608093B100809120
:1012C000B00081608093B00080917A008460809348
:1012D0007A0080917A00826080937A0080917A000F
:1012E000816080937A0080917A00806880937A0090
:1012F0001092C100E0910502F091060282E0808325
:10130000E0910102F09102021082E0910302F0915B
:10131000040280E1808310920D02E0910902F091B5
:101320000A0286E08083E0910702F0910802808142
:1013300080618083E0910702F091080280818860DB
:101340008083E0910702F0910802808180688083A9
:10135000E0910702F091080280818F7D80831092D6
:10136000B10281E08093B2021092D30261E083E087
:101370000E940C0160E083E00E94DE0062E082E0F7
:101380000E940C0162E08EE00E940C018EE08093CE
:10139000A40210929B0283E992E00E9465028823D6
:1013A00029F080919B02836080939B020E944801F8
:1013B000609395027093960280939702909398029F
:1013C00089E190E090939A028093990220E030E0C6
:1013D0004AE754E46091C1027091C2028091C30255
:1013E0009091C4020E94700C882319F180E090E073
:1013F000AAE7B4E48093C1029093C202A093C3020F
:10140000B093C4028093E5029093E602A093E702B2
:10141000B093E8028091D9029091DA02A091DB02A8
:10142000B091DC02181619061A061B0614F40E9465
:10143000DB0560E070E08AE794E40E94B206109257
:10144000B5021092B6021092B7021092B802109232
:10145000B9021092BA021092BB021092BC02109212
:10146000D9021092DA021092DB021092DC02109282
:10147000A8021092A9021092AA021092AB02109236
:10148000BD021092BE021092BF021092C00283E40D
:1014900091E00E94410761E083E00E94DE0011E0DC
:1014A00002E0C0E0D0E080919B028B7F80939B02A2
:1014B00083E992E00E946502F82E80919B02869556
:1014C0008170F81609F40CC10E94480160939502DE
:1014D00070939602809397029093980280919B025A
:1014E000802780939B0280919B0280FDEEC082FF4B
:1014F000ECC082E791E00E94410782E791E00E9400
:10150000410780919202882309F47AC186E891E02C
:101510000E94410720E030E04AE754E46091BD02B8
:101520007091BE028091BF029091C0020E94700C27
:10153000882379F1C090C102D090C202E090C3022A
:10154000F090C40220E030E04AE754ECC701B60155
:101550000E94700C87FF17C1F7FAF094F7F8F09427
:1015600020E030E0A901C701B6010E94700C811192
:101570001AC11092A8021092A9021092AA02109207
:10158000AB02C092BD02D092BE02E092BF02F092C6
:10159000C0020E9448016B017C0180919202882365
:1015A00009F427C18091A8029091A902A091AA02F2
:1015B000B091AB02892B8A2B8B2B09F46BC03FB700
:1015C000F8948091EC019091ED01A091EE01B09121
:1015D000EF0126B5A89B05C02F3F19F00196A11D6C
:1015E000B11D3FBFBA2FA92F982F88274C015D014D
:1015F000820E911CA11CB11C42E0880C991CAA1CF3
:10160000BB1C4A95D1F78091CD029091CE02A0915A
:10161000CF02B091D002B501A401481B590B6A0B4F
:101620007B0B8091A8029091A902A091AA02B0918F
:10163000AB02481759076A077B0760F18091B50232
:101640009091B602A091B702B091B8022091A70282
:10165000222309F4CAC00196A11DB11D8093B502D1
:101660009093B602A093B702B093B8024091B5022E
:101670005091B6026091B7027091B80285EA92E08B
:101680000E9442048092CD029092CE02A092CF029C
:10169000B092D00282E00E94B50021E0892B09F0CF
:1016A00020E0209392020E9448016C197D098E0966
:1016B0009F09693B7B408105910508F46ECF85EA5F
:1016C00091E00E9441070E940A06209709F4EBCEA0
:1016D0000E94BE01882309F4E6CE0E940000E3CEFA
:1016E0000E9448018090950290909602A0909702E7
:1016F000B0909802AB01BC01481959096A097B09ED
:101700008091990290919A02B0E0A0E048175907A1
:101710006A077B0708F4E7CE80919B028170F81678
:1017200009F4E1CE0E9448016093950270939602FD
:10173000809397029093980280919B028127846006
:1017400080939B020E944801C0909C02D0909D0211
:10175000E0909E02F0909F026C197D098E099F090E
:101760006093A0027093A1028093A2029093A302BF
:101770000E94480160939C0270939D0280939E0298
:1017800090939F02B0CE20E030E04AE754E4C701D6
:10179000B6010E94700C87FDE3CEC12CD12C5AE714
:1017A000E52E54E4F52EA701960160E074E284E78B
:1017B00099E40E94750C9F770E94EE0C6093A8023A
:1017C0007093A9028093AA029093AB02BB24B394B6
:1017D00020E030E0A901C701B6010E94CF0D181624
:1017E0000CF0B12CB092A702CCCE0197A109B1099F
:1017F00035CF0E940A068AEC91E00E94410765CF2E
:1018000089ED91E0FACF5058BB27AA270E941B0C04
:101810000C94950D0E94870D38F00E948E0D20F0DB
:1018200039F49F3F19F426F40C94840D0EF4E095DE
:10183000E7FB0C947E0DE92F0E94A60D58F3BA1712
:10184000620773078407950720F079F4A6F50C94D6
:10185000C80D0EF4E0950B2EBA2FA02D0B01B90187
:1018600090010C01CA01A0011124FF27591B99F016
:10187000593F50F4503E68F11A16F040A22F232F22
:10188000342F4427585FF3CF469537952795A79572
:10189000F0405395C9F77EF41F16BA0B620B730B19
:1018A000840BBAF09150A1F0FF0FBB1F661F771F8A
:1018B000881FC2F70EC0BA0F621F731F841F48F43F
:1018C000879577956795B795F7959E3F08F0B0CFC8
:1018D0009395880F08F09927EE0F979587950895AF
:1018E0000E945A0D08F481E008950E94890C0C941E
:1018F000950D0E948E0D58F00E94870D40F029F43E
:101900005F3F29F00C947E0D51110C94C90D0C947D
:10191000840D0E94A60D68F39923B1F3552391F32A
:10192000951B550BBB27AA2762177307840738F04E
:101930009F5F5F4F220F331F441FAA1FA9F335D0AB
:101940000E2E3AF0E0E832D091505040E695001C5F
:10195000CAF72BD0FE2F29D0660F771F881FBB1F19
:10196000261737074807AB07B0E809F0BB0B802DF7
:10197000BF01FF2793585F4F3AF09E3F510578F023
:101980000C947E0D0C94C90D5F3FE4F3983ED4F3A4
:10199000869577956795B795F7959F5FC9F7880FF7
:1019A000911D9695879597F90895E1E0660F771F49
:1019B000881FBB1F621773078407BA0720F0621BDA
:1019C000730B840BBA0BEE1F88F7E09508950E9405
:1019D000EE0C6894B1110C94C90D08950E94AE0DDF
:1019E00088F09F5798F0B92F9927B751B0F0E1F0E0
:1019F000660F771F881F991F1AF0BA95C9F714C090
:101A0000B13091F00E94C80DB1E008950C94C80D5A
:101A1000672F782F8827B85F39F0B93FCCF38695C8
:101A200077956795B395D9F73EF490958095709525
:101A300061957F4F8F4F9F4F0895E89409C097FBA2
:101A40003EF490958095709561957F4F8F4F9F4F95
:101A50009923A9F0F92F96E9BB279395F6958795D9
:101A600077956795B795F111F8CFFAF4BB0F11F49C
:101A700060FF1BC06F5F7F4F8F4F9F4F16C0882343
:101A800011F096E911C0772321F09EE8872F762F79
:101A900005C0662371F096E8862F70E060E02AF0BA
:101AA0009A95660F771F881FDAF7880F96958795A6
:101AB00097F90895990F0008550FAA0BE0E8FEEF7B
:101AC00016161706E807F907C0F012161306E40702
:101AD000F50798F0621B730B840B950B39F40A26FB
:101AE00061F0232B242B252B21F408950A2609F4D9
:101AF000A140A6958FEF811D811D089597F99F67DD
:101B000080E870E060E008959FEF80EC0895002485
:101B10000A941616170618060906089500240A9452
:101B200012161306140605060895092E0394000CD8
:101B300011F4882352F0BB0F40F4BF2B11F460FF67
:101B400004C06F5F7F4F8F4F9F4F089557FD905890
:101B5000440F551F59F05F3F71F04795880F97FB71
:101B6000991F61F09F3F79F087950895121613062B
:101B70001406551FF2CF4695F1DF08C0161617065A
:101B80001806991FF1CF869571056105089408958F
:101B9000E894BB2766277727CB0197F908950E9421
:101BA0005A0D08F48FEF08950E94E70D0C94950DDF
:101BB0000E94870D38F00E948E0D20F0952311F0C1
:101BC0000C947E0D0C94840D11240C94C90D0E946C
:101BD000A60D70F3959FC1F3950F50E0551F629FBE
:101BE000F001729FBB27F00DB11D639FAA27F00D76
:101BF000B11DAA1F649F6627B00DA11D661F829F9D
:101C00002227B00DA11D621F739FB00DA11D621F81
:101C1000839FA00D611D221F749F3327A00D611D9E
:101C2000231F849F600D211D822F762F6A2F112480
:101C30009F5750409AF0F1F088234AF0EE0FFF1FB3
:101C4000BB1F661F771F881F91505040A9F79E3F0A
:101C5000510580F00C947E0D0C94C90D5F3FE4F3A8
:101C6000983ED4F3869577956795B795F795E79560
:101C70009F5FC1F7FE2B880F911D9695879597F969
:101C8000089519F416F40C94840D0C94870E0E9498
:101C9000AE0DB8F39923C9F3B6F39F57550B87FFE1
:101CA0000E94950E0024A0E640EA900180585695C7
:101CB000979528F4805C660F771F881F20F0261701
:101CC0003707480730F4621B730B840B2029312936
:101CD0004A2BA69517940794202531254A2758F7B3
:101CE000660F771F881F20F026173707480730F444
:101CF000620B730B840B200D311D411DA09581F7E4
:101D0000B901842F9158880F9695879508959F3F24
:101D100031F0915020F4879577956795B795880FA6
:101D2000911D9695879597F9089591505040660FAB
:101D3000771F881FD2F70895052E97FB1EF4009495
:101D40000E94B30E57FD07D00E94C10E07FC03D0BE
:101D50004EF40C94B30E50954095309521953F4F1D
:101D60004F4F5F4F089590958095709561957F4F87
:101D70008F4F9F4F0895EE0FFF1F0590F491E02DB8
:101D80000994A1E21A2EAA1BBB1BFD010DC0AA1FBC
:101D9000BB1FEE1FFF1FA217B307E407F50720F0D4
:101DA000A21BB30BE40BF50B661F771F881F991F4F
:101DB0001A9469F760957095809590959B01AC0198
:101DC000BD01CF0108950F931F93CF93DF9382300E
:101DD000910510F482E090E0E091EB02F091EC02CA
:101DE00030E020E0B0E0A0E0309799F42115310513
:101DF00009F44AC0281B390B24303105D8F58A81F3
:101E00009B816115710589F1FB0193838283FE013A
:101E100011C0408151810281138148175907E0F0B8
:101E20004817590799F4109761F012960C9312977E
:101E300013961C933296CF01DF91CF911F910F9192
:101E400008950093EB021093EC02F4CF21153105B5
:101E500051F04217530738F0A901DB019A01BD0187
:101E6000DF01F801C1CFEF01F9CF9093EC0280932D
:101E7000EB02CDCFFE01E20FF31F8193919322502D
:101E8000310939832883D7CF2091E9023091EA02C2
:101E9000232B41F420910201309103013093EA0297
:101EA0002093E902209100013091010121153105B3
:101EB00041F42DB73EB74091040150910501241B18
:101EC000350BE091E902F091EA02E217F307A0F482
:101ED0002E1B3F0B2817390778F0AC014E5F5F4F80
:101EE0002417350748F04E0F5F1F5093EA024093C6
:101EF000E902819391939FCFF0E0E0E09CCFCF93F4
:101F0000DF930097E9F0FC01329713821282A091CF
:101F1000EB02B091EC02ED0130E020E01097A1F46B
:101F200020813181820F931F2091E9023091EA02D2
:101F30002817390709F061C0F093EA02E093E9023B
:101F4000DF91CF910895EA01CE17DF07E8F54A81C6
:101F50005B819E0141155105B1F7E901FB83EA83DD
:101F600049915991C40FD51FEC17FD0761F4808189
:101F700091810296840F951FE9019983888382815C
:101F800093819B838A83F0E0E0E012968D919C918F
:101F900013970097B9F52D913C911197CD010296B9
:101FA000820F931F2091E9023091EA022817390726
:101FB00039F6309751F51092EC021092EB02B09383
:101FC000EA02A093E902BCCFD383C283408151814E
:101FD000840F951FC817D90761F44E5F5F4F888142
:101FE0009981480F591F518340838A819B81938334
:101FF00082832115310509F0B0CFF093EC02E09314
:10200000EB029ECFFD01DC01C0CF13821282D7CF3D
:1020100081E090E0F8940C940D10F894FFCF00004C
:10202000ED02800000000000F40154018101410232
:10203000B2019001A40100000000650261020000ED
:102040000000A3026F02B106600782040404420488
:10205000EE03BC039B0367034603F002C1020D0AB3
:102060000053697374656D61206C6973746F2E2001
:1020700050726573696F6E6120656C20626F74C306
:10208000B36E207061726120686F6D696E672E009B
:10209000496E696369616E646F20686F6D696E6710
:1020A0002E2E2E00496DC3A16E2070726573656E71
:1020B00074652C20616C656AC3A16E646F73652EB4
:1020C0002E2E004572726F723A2074696D656F75BD
:1020D0007420616C656AC3A16E646F73652064656A
:1020E0006C20696DC3A16E00496DC3A16E206C693F
:1020F00062657261646F00496DC3A16E204E4F200E
:0A21000064657465637461646F0028
:107E0000112484B714BE81FFF0D085E080938100F7
:107E100082E08093C00088E18093C10086E0809377
:107E2000C20080E18093C4008EE0C9D0259A86E02C
:107E300020E33CEF91E0309385002093840096BBD3
:107E4000B09BFECF1D9AA8958150A9F7CC24DD24C4
:107E500088248394B5E0AB2EA1E19A2EF3E0BF2EE7
:107E6000A2D0813461F49FD0082FAFD0023811F036
:107E7000013811F484E001C083E08DD089C08234E0
:107E800011F484E103C0853419F485E0A6D080C0E4
:107E9000853579F488D0E82EFF2485D0082F10E0AE
:107EA000102F00270E291F29000F111F8ED06801E7
:107EB0006FC0863521F484E090D080E0DECF843638
:107EC00009F040C070D06FD0082F6DD080E0C81688
:107ED00080E7D80618F4F601B7BEE895C0E0D1E017
:107EE00062D089930C17E1F7F0E0CF16F0E7DF06D8
:107EF00018F0F601B7BEE89568D007B600FCFDCFD4
:107F0000A601A0E0B1E02C9130E011968C91119780
:107F100090E0982F8827822B932B1296FA010C0160
:107F200087BEE89511244E5F5F4FF1E0A038BF0790
:107F300051F7F601A7BEE89507B600FCFDCF97BE46
:107F4000E89526C08437B1F42ED02DD0F82E2BD052
:107F50003CD0F601EF2C8F010F5F1F4F84911BD097
:107F6000EA94F801C1F70894C11CD11CFA94CF0C13
:107F7000D11C0EC0853739F428D08EE10CD085E9AC
:107F80000AD08FE07ACF813511F488E018D01DD067
:107F900080E101D065CF982F8091C00085FFFCCF94
:107FA0009093C60008958091C00087FFFCCF809118
:107FB000C00084FD01C0A8958091C6000895E0E648
:107FC000F0E098E1908380830895EDDF803219F02E
:107FD00088E0F5DFFFCF84E1DECF1F93182FE3DFCA
:107FE0001150E9F7F2DF1F91089580E0E8DFEE27F6
:047FF000FF270994CA
:027FFE00040479
:00000001FF
