:020000040000FA
:100000000C9462000C948A000C948A000C948A0070
:100010000C948A000C948A000C948A000C948A0038
:100020000C948A000C948A000C948A000C948A0028
:100030000C948A000C948A000C948A000C948A0018
:100040000C9433070C948A000C94A3070C947D073E
:100050000C948A000C948A000C948A000C948A00F8
:100060000C948A000C948A000000000024002700F1
:100070002A0000000000250028002B0000000000DE
:1000800023002600290004040404040404040202DA
:100090000202020203030303030301020408102007
:1000A0004080010204081020010204081020000012
:1000B0000008000201000003040700000000000027
:1000C0000000D50711241FBECFEFD8E0DEBFCDBFA3
:1000D00011E0A0E0B1E0ECE5F1E202C005900D9284
:1000E000A63EB107D9F722E0A6EEB1E001C01D920D
:1000F000A13FB207E1F710E0C2E6D0E004C02197CB
:10010000FE010E947C0FC136D107C9F70E94FF088B
:100110000C94AC100C940000833081F028F48130F2
:1001200099F08230A9F008958730A9F08830C9F09D
:100130008430B1F4809180008F7D03C08091800075
:100140008F7780938000089584B58F7784BD08955C
:1001500084B58F7DFBCF8091B0008F778093B00006
:1001600008958091B0008F7DF9CFCF93DF93282F32
:1001700030E0F901E255FF4F8491F901E656FF4F57
:10018000D491F901EA57FF4FC491CC23A1F081111A
:100190000E948C00EC2FF0E0EE0FFF1FE458FF4FA1
:1001A000A591B491EC91ED2381E090E009F480E019
:1001B000DF91CF91089580E090E0FACF1F93CF9325
:1001C000DF93282F30E0F901E255FF4F8491F901C8
:1001D000E656FF4FD491F901EA57FF4FC491CC2363
:1001E000A9F0162F81110E948C00EC2FF0E0EE0F89
:1001F000FF1FEE58FF4FA591B4918FB7F894EC9183
:10020000111108C0D095DE23DC938FBFDF91CF9111
:100210001F910895DE2BF8CFCF93DF9390E0FC0180
:10022000E656FF4F24918A579F4FFC018491882303
:10023000C9F090E0880F991FFC01E859FF4FA59184
:10024000B491FC01EE58FF4FC591D49161110DC0DE
:100250009FB7F8948C91209582238C9388812823D2
:1002600028839FBFDF91CF910895623051F49FB7EB
:10027000F8943C91822F809583238C93E8812E2BD8
:10028000EFCF8FB7F894EC912E2B2C938FBFEACF42
:100290002FB7F8946091F2017091F3018091F4010D
:1002A0009091F5012FBF0895AF92BF92CF92DF9248
:1002B000EF92FF920F931F93CF93DF936C017B011B
:1002C0008B01040F151FEB015E01AE18BF08C017AC
:1002D000D10759F06991D601ED91FC910190F0811F
:1002E000E02DC6010995892B79F7C501DF91CF91E2
:1002F0001F910F91FF90EF90DF90CF90BF90AF9044
:100300000895FC01538D448D252F30E0842F90E01B
:10031000821B930B541710F0CF9608950197089500
:10032000FC01918D828D981761F0A28DAE0FBF2FC9
:10033000B11D5D968C91928D9F5F9F73928F90E01F
:1003400008958FEF9FEF0895FC01918D828D98178E
:1003500031F0828DE80FF11D858D90E008958FEFCB
:100360009FEF0895FC01918D228D892F90E0805C94
:100370009F4F821B91098F73992708958AEF91E00F
:100380000E94B20121E0892B09F420E0822F089518
:1003900080E090E0892B29F00E94BE0181110C942D
:1003A00000000895FC01A48DA80FB92FB11DA35A18
:1003B000BF4F2C91848D90E001968F739927848F85
:1003C000A689B7892C93A089B1898C9183708064A8
:1003D0008C93938D848D981306C00288F389E02D49
:1003E00080818F7D80830895EF92FF920F931F93FA
:1003F000CF93DF93EC0181E0888F9B8D8C8D9813D8
:100400001AC0E889F989808185FF15C09FB7F894E3
:10041000EE89FF896083E889F9898081837080642F
:1004200080839FBF81E090E0DF91CF911F910F917A
:10043000FF90EF900895F62E0B8D10E00F5F1F4F89
:100440000F731127E02E8C8D8E110CC00FB607FC98
:10045000FACFE889F989808185FFF5CFCE010E9426
:10046000D201F1CFEB8DEC0FFD2FF11DE35AFF4FC1
:10047000F0829FB7F8940B8FEA89FB8980818062B4
:10048000CFCFCF93DF93EC01888D8823B9F0AA8971
:10049000BB89E889F9898C9185FD03C0808186FD3F
:1004A0000DC00FB607FCF7CF8C9185FFF2CF80818E
:1004B00085FFEDCFCE010E94D201E9CFDF91CF9130
:1004C0000895862F642F0C940C01FC0181890E94F1
:1004D000B50021E0892B09F420E0822F0895CF9305
:1004E000DF93FC012781222359F1EC0161E0808533
:1004F0000E940C0161E089850E940C018F8184308B
:1005000011F08830B1F461E08A850E940C0161E04D
:100510008B850E940C018FA58F3F91F061E00E94B6
:100520000C016EA581E068278FA5DF91CF910C9417
:10053000DE00833011F0863071F761E08A85E9CF03
:10054000DF91CF910895CF93DF93FC012781222380
:10055000A9F0EC010190F081E02D0284F385E02DFB
:1005600060E009958FA58F3F49F061E00E940C0182
:100570006EA58FA5DF91CF910C94DE00DF91CF9116
:100580000895DC01ED91FC91228533854770552754
:100590006627772741505109610971094730510594
:1005A0006105710560F4FA01E852FD4F0C947C0F6F
:1005B000E202E402E602E802EA02EC02EE0261E094
:1005C000F901099465E0FCCF64E0FACF66E0F8CF6A
:1005D00062E0F6CF6AE0F4CF68E0F2CF69E0F0CFF6
:1005E000CF93DF93EC01CB01BA0126E030E040E08D
:1005F00050E00E945D0F623071058105910589F11F
:100600006CF46115710581059105D1F061307105BA
:1006100081059105F9F0DF91CF910895643071055E
:100620008105910561F124F1653071058105910520
:1006300091F7E881F9810284F385E02D66E006C038
:10064000E881F9810284F385E02D64E0CE01DF9139
:10065000CF910994E881F9810284F385E02D65E06A
:10066000F5CFE881F9810284F385E02D61E0EECFDA
:10067000E881F9810284F385E02D63E0E7CFE8812A
:10068000F9810284F385E02D62E0E0CFDC01ED9199
:10069000FC910284F385E02D437055276627772768
:1006A000423051056105710571F043305105610516
:1006B000710559F0413051056105710511F065E092
:1006C000099466E0FDCF6AE0FBCF69E0F9CFCF93F4
:1006D000DF93EC01CB01BA0123E030E040E050E0D1
:1006E0000E945D0F613071058105910599F06230BE
:1006F000710581059105A9F0672B682B692BC1F461
:10070000E881F9810284F385E02D64E0CE01DF9178
:10071000CF910994E881F9810284F385E02D61E0AD
:10072000F5CFE881F9810284F385E02D62E0EECF18
:10073000DF91CF910895DC01ED91FC910284F38566
:10074000E02D437055276627772742305105610514
:10075000710571F0433051056105710559F0413063
:1007600051056105710511F062E0099463E0FDCF68
:1007700061E0FBCF60E0F9CFCF93DF93EC01E8813C
:10078000F9810284F385E02D8A8160E0811162E0C5
:10079000CE010995E881F9810284F385E02D8A81F3
:1007A00061E0811163E0CE0109958CA59DA58230A1
:1007B000910538F0880F991F880F991F05970197A9
:1007C000F1F7E881F9810284F385E02D8A8160E008
:1007D000811162E0CE01DF91CF910994CF93DF9335
:1007E000EC0120E030E0A901688D798D8A8D9B8D28
:1007F0000E946E0E18162CF4E8A9F9A9DF91CF918A
:100800000994EAA9FBA9FACFCF92DF92EF92FF9267
:100810000F931F93CF93DF93DC011796CC91C430D5
:1008200039F0C83059F1C33019F0C63049F1C2E08F
:100830008C01085F1F4FF12CE12CC62ED12CD1E08A
:10084000F8016481C6010E2C02C0959587950A9423
:10085000E2F780FD6D270F5F1F4F80810E94DE0051
:10086000BFEFEB1AFB0AEC1658F3DF91CF911F9103
:100870000F91FF90EF90DF90CF900895C4E0D8CF14
:10088000C3E0D6CFDC011796EC911797E93008F05A
:1008900038C0F0E0E25BFB4F0C947C0F57045D0422
:1008A000630469046F048104750481047B04ED9181
:1008B000FC910684F785E02D0994ED91FC91008868
:1008C000F189E02DF9CFED91FC910288F389E02DBB
:1008D000F3CFED91FC910488F589E02DEDCFED91FA
:1008E000FC910688F789E02DE7CFED91FC91008C13
:1008F000F18DE02DE1CFED91FC91028CF38DE02D97
:10090000DBCF0895CF92DF92EF92FF923FB7F8943A
:100910008091F6019091F701A091F801B091F90151
:1009200026B5A89B05C02F3F19F00196A11DB11D4A
:100930003FBFBA2FA92F982F88276C017D01C20EC7
:10094000D11CE11CF11C42E0CC0CDD1CEE1CFF1C98
:100950004A95D1F78091D1029091D202A091D30211
:10096000B091D402B701A601481B590B6A0B7B0B4F
:100970008091AC029091AD02A091AE02B091AF0215
:10098000481759076A077B07A8F18091B90290912F
:10099000BA02A091BB02B091BC022091AB0222230B
:1009A00029F10196A11DB11D8093B9029093BA025D
:1009B000A093BB02B093BC024091B9025091BA021D
:1009C0006091BB027091BC0289EA92E00E944204ED
:1009D000C092D102D092D202E092D302F092D4021D
:1009E00081E0FF90EF90DF90CF9008950197A109EB
:1009F000B109DACF80E0F5CF4F925F926F927F928C
:100A00008F929F92AF92BF92CF92DF92EF92FF921E
:100A10000F931F93CF93DF93EC01CC88DD88EE8892
:100A2000FF8888899989AA89BB89C81AD90AEA0ADC
:100A3000FB0A688D798D8A8D9B8D9B01AC010E948C
:100A4000730E4B015C0168A179A18AA19BA19B0156
:100A5000AC010E94A30C9B01AC01C501B4010E9432
:100A6000140D0E94860DC114D104E104F10409F0B3
:100A7000B6C062307105810591050CF0D0C01B82B3
:100A80001C821D821E82188E198E1A8E1B8E1CAA25
:100A90001DAA1EAA1FAAC12CD12C7601C701B6011E
:100AA000DF91CF911F910F91FF90EF90DF90CF904A
:100AB000BF90AF909F908F907F906F905F904F907E
:100AC00008951016110612061306B4F46C157D0570
:100AD0008E059F051CF42A812111A1C09B01AC0148
:100AE00088279927DC01821B930BA40BB50B8CABD9
:100AF0009DABAEABBFAB93C0011511052105310510
:100B000009F48DC06C157D058E059F050CF087C01E
:100B10008A81882309F483C030952095109501952A
:100B20001F4F2F4F3F4F0CAB1DAB2EAB3FAB77C0D2
:100B3000011511052105310509F471C08824992496
:100B400054018C189D08AE08BF08681579058A0500
:100B50009B050CF064C08A81811161C0DDCFCCACF3
:100B6000DDACEEACFFACA7019601C701B6010E9457
:100B7000A30C2B013C01C501B4010E94BE0D20E075
:100B800030E040E850E40E94730E20E030E040E89E
:100B90005FE30E94A30C9B01AC01C301B2010E9460
:100BA000140D9B01AC01C701B6010E94A20C3B01D0
:100BB0006C01FE01E05CFF4FE080F1800281138157
:100BC0009701A8010E946E0E181614F47301860195
:100BD000C701D8018CAF9DAFAEAFBFAF3AC00CA973
:100BE0001DA92EA93FA91C141D041E041F040CF4EA
:100BF00068CF10161106120613060CF099CF0027C5
:100C0000112798010C191D092E093F09601771075A
:100C1000820793070CF062CF2A8121115FCF8CA845
:100C20009DA8AEA8BFA881149104A104B10409F045
:100C300096CF88AD99ADAAADBBAD8CAF9DAFAEAF31
:100C4000BFAF81E01C141D041E041F040CF080E0E3
:100C50008A833FEF831A930AA30AB30A8CAA9DAA38
:100C6000AEAABFAA8CAC9DACAEACBFACC501B40102
:100C70000E948D0D6B017C01CB82DC82ED82FE82B5
:100C8000A501940160E074E284E799E40E94140DE8
:100C9000688F798F8A8F9B8F2A812111FFCE905880
:100CA000688F798F8A8F9B8FF9CECF92DF92EF92E8
:100CB000FF92CF93DF93C9EAD2E0688D798D8A8D58
:100CC0009B8D9B01AC010E94730E6B017C0168A19E
:100CD00079A18AA19BA19B01AC010E94A30C9B015D
:100CE000AC01C701B6010E94140D0E94860D6CABC9
:100CF0007DAB8EAB9FABCE01DF91CF91FF90EF909C
:100D0000DF90CF900C94FC0408954F925F926F9205
:100D10007F928F929F92AF92BF92CF92DF92EF928B
:100D2000FF926B017C0120E030E0A9010E940F0DD1
:100D300087FF04C0F7FAF094F7F8F0948090C902A6
:100D40009090CA02A090CB02B090CC02A70196016D
:100D5000C501B4010E940F0D882309F458C06091A9
:100D6000DD027091DE028091DF029091E0020E942C
:100D7000BE0D2B013C01A7019601C501B4010E94E3
:100D8000140D9B01AC01C301B2010E94730E0E94BD
:100D9000860D6093DD027093DE028093DF029093F4
:100DA000E002A701960160E070E080E090E40E941C
:100DB000140D0E94E60E26E53EE04DE25FE30E9440
:100DC000730E20E034E244E759E40E94730E60930E
:100DD000E1027093E2028093E3029093E402C092F6
:100DE000C902D092CA02E092CB02F092CC0289EA08
:100DF00092E0FF90EF90DF90CF90BF90AF909F90E8
:100E00008F907F906F905F904F900C94FC04FF90B8
:100E1000EF90DF90CF90BF90AF909F908F907F909A
:100E20006F905F904F900895FC0101900020E9F7CA
:100E30003197AF01481B590BBC018AEF91E00C942C
:100E40005401CF93DF930E941407EC0180E491E0FA
:100E50000E9414078C0F9D1FDF91CF9108950E946F
:100E6000A7100C941E101F920F920FB60F92112410
:100E70002F933F938F939F93AF93BF938091F201F2
:100E80009091F301A091F401B091F5013091F1013D
:100E900023E0230F2D3758F50196A11DB11D209396
:100EA000F1018093F2019093F301A093F401B093C8
:100EB000F5018091F6019091F701A091F801B091B0
:100EC000F9010196A11DB11D8093F6019093F701E0
:100ED000A093F801B093F901BF91AF919F918F91C9
:100EE0003F912F910F900FBE0F901F90189526E8FD
:100EF000230F0296A11DB11DD2CF1F920F920FB6E4
:100F00000F9211242F933F934F935F936F937F938F
:100F10008F939F93AF93BF93EF93FF938AEF91E0EB
:100F20000E94D201FF91EF91BF91AF919F918F915C
:100F30007F916F915F914F913F912F910F900FBED5
:100F40000F901F9018951F920F920FB60F921124B9
:100F50002F938F939F93EF93FF93E0910A02F09169
:100F60000B028081E0911002F091110282FD1BC002
:100F70009081809113028F5F8F73209114028217EA
:100F800041F0E0911302F0E0E650FE4F958F809320
:100F90001302FF91EF919F918F912F910F900FBEB0
:100FA0000F901F9018958081F4CFCF92DF92EF922F
:100FB000FF921092FD011092FC0188EE93E0A0E0F8
:100FC000B0E08093FE019093FF01A0930002B093E4
:100FD00001028AE091E09093FB018093FA0185EC95
:100FE00090E0909307028093060284EC90E0909347
:100FF00009028093080280EC90E090930B028093AA
:101000000A0281EC90E090930D0280930C0282EC36
:1010100090E090930F0280930E0286EC90E0909304
:101020001102809310021092130210921402109277
:1010300015021092160284E291E09093AA02809326
:10104000A90281E08093B0021092B9021092BA0214
:101050001092BB021092BC021092BD021092BE020E
:101060001092BF021092C0021092C1021092C202EE
:101070001092C3021092C4021092C5021092C602CE
:101080001092C7021092C8021092C9021092CA02AE
:101090001092CB021092CC02C12CD12C80E8E82E09
:1010A0008FE3F82EC092CD02D092CE02E092CF0212
:1010B000F092D0021092AC021092AD021092AE02E9
:1010C0001092AF0281E090E09093D6028093D50217
:1010D0008FEF8093D8021092D1021092D202109218
:1010E000D3021092D40294E09093B10285E08093F1
:1010F000B2029093B3028093B4021092D70210927E
:10110000DD021092DE021092DF021092E0021092D5
:10111000E1021092E2021092E3021092E4021092B5
:10112000E5021092E6021092E7021092E802C092E5
:10113000E902D092EA02E092EB02F092EC02109205
:10114000AB021092B5021092B6021092B702109242
:10115000B80289EA92E00E946F02C701B6010E94BC
:101160008506A70196016091C5027091C602809123
:10117000C7029091C8020E940F0D882319F1C092F6
:10118000C502D092C602E092C702F092C80280E087
:1011900094E2A4E7B9E48093E9029093EA02A09371
:1011A000EB02B093EC028091DD029091DE02A091FF
:1011B000DF02B091E002181619061A061B0614F495
:1011C0000E9455061092990210929A0210929B0268
:1011D00010929C028AE090E090939E0280939D0280
:1011E00010929F028CE191E0909398028093970275
:1011F0001092A802FF90EF90DF90CF900895CF93C8
:10120000DF93CDB7DEB7A2970FB6F894DEBF0FBE5F
:10121000CDBF789484B5826084BD84B5816084BD7F
:1012200085B5826085BD85B5816085BD80916E0084
:10123000816080936E0010928100809181008260B5
:1012400080938100809181008160809381008091F2
:1012500080008160809380008091B10084608093E1
:10126000B1008091B00081608093B00080917A00DD
:10127000846080937A0080917A00826080937A0003
:1012800080917A00816080937A0080917A008068F2
:1012900080937A001092C100E0910A02F0910B0253
:1012A00082E08083E0910602F09107021082E091D3
:1012B0000802F091090280E1808310921202E0910D
:1012C0000E02F0910F0286E08083E0910C02F09113
:1012D0000D02808180618083E0910C02F0910D020B
:1012E000808188608083E0910C02F0910D02808102
:1012F00080688083E0910C02F0910D0280818F7DE7
:1013000080831092B50281E08093B6021092D702DA
:1013100062E082E00E940C0161E086E00E940C0124
:1013200061E083E00E940C0162E08EE00E940C010B
:1013300061E083E00E94DE0060E086E00E94DE0063
:101340008EE08093A80210929F0287E992E00E94AB
:101350006502882329F080919F02836080939F0219
:101360000E9448016093990270939A0280939B02B5
:1013700090939C0289E190E090939E0280939D025D
:1013800020E030E04AE754E46091C5027091C60263
:101390008091C7029091C8020E940F0D882319F115
:1013A00080E090E0AAE7B4E48093C5029093C6027F
:1013B000A093C702B093C8028093E9029093EA0217
:1013C000A093EB02B093EC028091DD029091DE02DB
:1013D000A091DF02B091E002181619061A061B064A
:1013E00014F40E94550660E070E08AE794E40E94DD
:1013F000850683E491E00E9421072AE0C22ED12CC9
:10140000E12CF12C38EC432E512C612C712C90E006
:10141000292E90E0392E80919F028B7F80939F022E
:1014200087E992E00E946502182F80919F028695BD
:101430008170181709F4B1C00E94480160939902A5
:1014400070939A0280939B0290939C0280919F02DA
:1014500022E0822780939F0280919F0285708530D1
:1014600059F48EE00E94B500019731F41092F0011A
:1014700082E791E00E9421078091F001811181C0F3
:1014800080919F0280FD4DC082FF4BC08091EE0194
:101490009091EF01892B09F044C060E083E00E9445
:1014A000DE0060E086E00E94DE0084E891E00E94B9
:1014B00021071092B9021092BA021092BB02109248
:1014C000BC021092BD021092BE021092BF02109296
:1014D000C0021092DD021092DE021092DF02109222
:1014E000E0021092AC021092AD021092AE02109285
:1014F000AF021092C1021092C2021092C302109267
:10150000C4020E9448016093EA017093EB0180934A
:10151000EC019093ED01E1E0F0E0F093EF01E09356
:10152000EE018091EE019091EF01892B51F182E063
:101530000E94B5008C010E9448018090EA019090C1
:10154000EB01A090EC01B090ED01681979098A09CE
:101550009B09693B7B408105910530F085E090E077
:101560009093EF018093EE018091EE019091EF0155
:101570008330910509F47CC108F063C0019709F438
:1015800077C02114310409F446CF0E94BE0188239C
:1015900009F43DCF0E9400003ACF0E94480180909C
:1015A000990290909A02A0909B02B0909C02AB018D
:1015B000BC01481959096A097B0980919D029091E3
:1015C0009E02B0E0A0E0481759076A077B0708F4BD
:1015D00043CF80919F028170181709F43DCF0E947C
:1015E00048016093990270939A0280939B029093B2
:1015F0009C0280919F0291E08927846080939F02E2
:101600000E9448010091A0021091A1022091A20223
:101610003091A302601B710B820B930B6093A402A9
:101620007093A5028093A6029093A7020E9448019E
:101630006093A0027093A1028093A2029093A302F0
:101640000BCF8430910509F470C1059709F099CF4B
:1016500081ED91E00E94210761E083E00E94DE00BD
:10166000F1E0F093F0011092EF011092EE0189CFBA
:1016700020E030E04AE754EC6091C1027091C20270
:101680008091C3029091C4020E940F0D882379F1CA
:101690008090C5029090C602A090C702B090C80288
:1016A00020E030E04AE754E4C501B4010E940F0D88
:1016B00087FF95C0B7FAB094B7F8B09420E030E057
:1016C000A901C501B4010E940F0D811198C01092AB
:1016D000AC021092AD021092AE021092AF02809254
:1016E000C1029092C202A092C302B092C402809141
:1016F000AC029091AD02A091AE02B091AF02892BE5
:101700008A2B8B2B11F00E948204012B09F439CF14
:101710008091B9029091BA02A091BB02B091BC0233
:101720008093E6019093E701A093E801B093E9016B
:101730008DE991E00E9414078090E6019090E70106
:10174000A090E801B090E901B7FE7CC06DE28AEF9D
:1017500091E00E94F40122273327A90128193909B1
:101760004A095B0919A28E010F5D1F4FCA01B90119
:10177000A70196010E943B0F605DF80162938F0103
:10178000211531054105510589F70115110519F09C
:10179000C8010E94140780E491E00E941407809120
:1017A000BD029091BE02A091BF02B091C002883CE0
:1017B0009105A105B10561F04092BD025092BE02B3
:1017C0006092BF027092C00289EA92E00E94FC041B
:1017D00083E090E09093EF018093EE01D2CE20E081
:1017E00030E04AE754ECC501B4010E940F0D87FDBB
:1017F00065CF812C912C8AE7A82E84ECB82EA50108
:10180000940160E074E284E799E40E94140D9F77EC
:101810000E948D0D6093AC027093AD028093AE0276
:101820009093AF0291E09AA320E030E0A901C501B6
:10183000B4010E946E0E18160CF01AA2EAA1E093F1
:10184000AB024DCFA501940119A28E010F5D1F4F70
:10185000CA01B901A70196010E943B0F605DF80122
:1018600062938F01211531054105510589F78DCF0F
:101870008091AC029091AD02A091AE02B091AF0206
:10188000892B8A2B8B2B41F00E948204882321F024
:1018900089EA92E00E94FC044091BD025091BE0290
:1018A0006091BF027091C0028091B9029091BA021A
:1018B000A091BB02B091BC02481759076A077B0789
:1018C00009F05FCE1092B9021092BA021092BB02D8
:1018D0001092BC021092BD021092BE021092BF0282
:1018E0001092C0021092DD021092DE021092DF020E
:1018F0001092E0021092AC021092AD021092AE0271
:101900001092AF021092C1021092C2021092C30252
:101910001092C402E4E0F0E0F093EF01E093EE01F6
:1019200061E083E00E94DE002CCE83EB91E00E9418
:10193000210761E086E00E94DE001092EF01109224
:10194000EE01EECF5058BB27AA270E94BA0C0C9488
:10195000340E0E94260E38F00E942D0E20F039F42D
:101960009F3F19F426F40C94230E0EF4E095E7FB48
:101970000C941D0EE92F0E94450E58F3BA1762070A
:1019800073078407950720F079F4A6F50C94670E89
:101990000EF4E0950B2EBA2FA02D0B01B90190018A
:1019A0000C01CA01A0011124FF27591B99F0593FCE
:1019B00050F4503E68F11A16F040A22F232F342F16
:1019C0004427585FF3CF469537952795A795F04064
:1019D0005395C9F77EF41F16BA0B620B730B840B79
:1019E000BAF09150A1F0FF0FBB1F661F771F881F31
:1019F000C2F70EC0BA0F621F731F841F48F4879589
:101A000077956795B795F7959E3F08F0B0CF93957A
:101A1000880F08F09927EE0F9795879508950E94F3
:101A2000F90D08F481E008950E94280D0C94340EFD
:101A30000E942D0E58F00E94260E40F029F45F3FC0
:101A400029F00C941D0E51110C94680E0C94230E69
:101A50000E94450E68F39923B1F3552391F3951B2A
:101A6000550BBB27AA2762177307840738F09F5FBF
:101A70005F4F220F331F441FAA1FA9F335D00E2E2C
:101A80003AF0E0E832D091505040E695001CCAF799
:101A90002BD0FE2F29D0660F771F881FBB1F26175C
:101AA00037074807AB07B0E809F0BB0B802DBF0133
:101AB000FF2793585F4F3AF09E3F510578F00C9402
:101AC0001D0E0C94680E5F3FE4F3983ED4F38695A8
:101AD00077956795B795F7959F5FC9F7880F911D23
:101AE0009695879597F90895E1E0660F771F881F0F
:101AF000BB1F621773078407BA0720F0621B730BC2
:101B0000840BBA0BEE1F88F7E09508950E948D0DA7
:101B10006894B1110C94680E08950E944D0E88F0DF
:101B20009F5798F0B92F9927B751B0F0E1F0660FA1
:101B3000771F881F991F1AF0BA95C9F714C0B130E2
:101B400091F00E94670EB1E008950C94670E672F24
:101B5000782F8827B85F39F0B93FCCF38695779511
:101B60006795B395D9F73EF49095809570956195FA
:101B70007F4F8F4F9F4F0895E89409C097FB3EF425
:101B800090958095709561957F4F8F4F9F4F9923CA
:101B9000A9F0F92F96E9BB279395F6958795779548
:101BA0006795B795F111F8CFFAF4BB0F11F460FF08
:101BB0001BC06F5F7F4F8F4F9F4F16C0882311F060
:101BC00096E911C0772321F09EE8872F762F05C074
:101BD000662371F096E8862F70E060E02AF09A950F
:101BE000660F771F881FDAF7880F9695879597F904
:101BF0000895990F0008550FAA0BE0E8FEEF16169E
:101C00001706E807F907C0F012161306E407F507F0
:101C100098F0621B730B840B950B39F40A2661F064
:101C2000232B242B252B21F408950A2609F4A14007
:101C3000A6958FEF811D811D089597F99F6780E814
:101C400070E060E008959FEF80EC089500240A940E
:101C50001616170618060906089500240A94121687
:101C60001306140605060895092E0394000C11F4BA
:101C7000882352F0BB0F40F4BF2B11F460FF04C067
:101C80006F5F7F4F8F4F9F4F089557FD9058440FC0
:101C9000551F59F05F3F71F04795880F97FB991FCB
:101CA00061F09F3F79F08795089512161306140688
:101CB000551FF2CF4695F1DF08C016161706180615
:101CC000991FF1CF86957105610508940895E894F0
:101CD000BB2766277727CB0197F908950E94F90D56
:101CE00008F48FEF08950E94860E0C94340E0E9423
:101CF000260E38F00E942D0E20F0952311F00C9442
:101D00001D0E0C94230E11240C94680E0E94450E97
:101D100070F3959FC1F3950F50E0551F629FF0013E
:101D2000729FBB27F00DB11D639FAA27F00DB11D57
:101D3000AA1F649F6627B00DA11D661F829F2227E0
:101D4000B00DA11D621F739FB00DA11D621F839F67
:101D5000A00D611D221F749F3327A00D611D231F3D
:101D6000849F600D211D822F762F6A2F11249F578B
:101D700050409AF0F1F088234AF0EE0FFF1FBB1F8E
:101D8000661F771F881F91505040A9F79E3F51054D
:101D900080F00C941D0E0C94680E5F3FE4F3983EA7
:101DA000D4F3869577956795B795F795E7959F5FF7
:101DB000C1F7FE2B880F911D9695879597F9089589
:101DC00019F416F40C94230E0C94260F0E944D0E59
:101DD000B8F39923C9F3B6F39F57550B87FF0E94B9
:101DE000340F0024A0E640EA90018058569597955C
:101DF00028F4805C660F771F881F20F026173707AE
:101E0000480730F4621B730B840B202931294A2BBD
:101E1000A69517940794202531254A2758F7660F71
:101E2000771F881F20F026173707480730F4620B0A
:101E3000730B840B200D311D411DA09581F7B90155
:101E4000842F9158880F9695879508959F3F31F07C
:101E5000915020F4879577956795B795880F911DD8
:101E60009695879597F9089591505040660F771F82
:101E7000881FD2F70895A1E21A2EAA1BBB1BFD01F1
:101E80000DC0AA1FBB1FEE1FFF1FA217B307E40759
:101E9000F50720F0A21BB30BE40BF50B661F771FB1
:101EA000881F991F1A9469F7609570958095909591
:101EB0009B01AC01BD01CF010895052E97FB1EF4D7
:101EC00000940E94740F57FD07D00E943B0F07FC3F
:101ED00003D04EF40C94740F509540953095219595
:101EE0003F4F4F4F5F4F0895909580957095619546
:101EF0007F4F8F4F9F4F0895EE0FFF1F0590F49176
:101F0000E02D09940F931F93CF93DF9382309105B7
:101F100010F482E090E0E091EF02F091F00230E006
:101F200020E0B0E0A0E0309799F42115310509F4E4
:101F30004AC0281B390B24303105D8F58A819B8192
:101F40006115710589F1FB0193838283FE0111C044
:101F5000408151810281138148175907E0F04817E9
:101F6000590799F4109761F012960C9312971396F3
:101F70001C933296CF01DF91CF911F910F9108955D
:101F80000093EF021093F002F4CF2115310551F0C8
:101F90004217530738F0A901DB019A01BD01DF01A7
:101FA000F801C1CFEF01F9CF9093F0028093EF02D7
:101FB000CDCFFE01E20FF31F81939193225031099F
:101FC00039832883D7CF2091ED023091EE02232B65
:101FD00041F420910201309103013093EE022093ED
:101FE000ED0220910001309101012115310541F4EC
:101FF0002DB73EB74091040150910501241B350BCC
:10200000E091ED02F091EE02E217F307A0F42E1B2F
:102010003F0B2817390778F0AC014E5F5F4F24174C
:10202000350748F04E0F5F1F5093EE024093ED02CC
:10203000819391939FCFF0E0E0E09CCFCF93DF932B
:102040000097E9F0FC01329713821282A091EF020F
:10205000B091F002ED0130E020E01097A1F4208172
:102060003181820F931F2091ED023091EE022817EB
:10207000390709F061C0F093EE02E093ED02DF91C1
:10208000CF910895EA01CE17DF07E8F54A815B8119
:102090009E0141155105B1F7E901FB83EA8349919E
:1020A0005991C40FD51FEC17FD0761F48081918110
:1020B0000296840F951FE901998388838281938119
:1020C0009B838A83F0E0E0E012968D919C911397B8
:1020D0000097B9F52D913C911197CD010296820F91
:1020E000931F2091ED023091EE022817390739F63F
:1020F000309751F51092F0021092EF02B093EE0279
:10210000A093ED02BCCFD383C28340815181840F61
:10211000951FC817D90761F44E5F5F4F8881998179
:10212000480F591F518340838A819B819383828307
:102130002115310509F0B0CFF093F002E093EF02E2
:102140009ECFFD01DC01C0CF13821282D7CF81E088
:1021500090E0F8940C94AC10F894FFCF0000F102DA
:10216000800000000000F401540181014102B2012D
:102170009001A4010000000065026102000000005F
:10218000A3026F0284063107FC0404044204EE0338
:10219000BC039B0367034603F002C1020D0A005310
:1021A000697374656D61206C6973746F2E20507251
:1021B0006573696F6E6120656C20626F74C3B36E66
:1021C000207061726120686F6D696E672E00F09FEC
:1021D000948420486F6D696E672072657365740022
:1021E000F09F94B920496E696369616E646F2068DD
:1021F0006F6D696E672E2E2E00466C616E636F20C8
:1022000064652073616C69646120656E3A2000E248
:102210009C8520486F6D696E67204F4B2E2052655C
:10222000666572656E636961203D203000E29D8CB9
:10223000204552524F5220646520686F6D696E6769
:0222400000009C
:107E0000112484B714BE81FFF0D085E080938100F7
:107E100082E08093C00088E18093C10086E0809377
:107E2000C20080E18093C4008EE0C9D0259A86E02C
:107E300020E33CEF91E0309385002093840096BBD3
:107E4000B09BFECF1D9AA8958150A9F7CC24DD24C4
:107E500088248394B5E0AB2EA1E19A2EF3E0BF2EE7
:107E6000A2D0813461F49FD0082FAFD0023811F036
:107E7000013811F484E001C083E08DD089C08234E0
:107E800011F484E103C0853419F485E0A6D080C0E4
:107E9000853579F488D0E82EFF2485D0082F10E0AE
:107EA000102F00270E291F29000F111F8ED06801E7
:107EB0006FC0863521F484E090D080E0DECF843638
:107EC00009F040C070D06FD0082F6DD080E0C81688
:107ED00080E7D80618F4F601B7BEE895C0E0D1E017
:107EE00062D089930C17E1F7F0E0CF16F0E7DF06D8
:107EF00018F0F601B7BEE89568D007B600FCFDCFD4
:107F0000A601A0E0B1E02C9130E011968C91119780
:107F100090E0982F8827822B932B1296FA010C0160
:107F200087BEE89511244E5F5F4FF1E0A038BF0790
:107F300051F7F601A7BEE89507B600FCFDCF97BE46
:107F4000E89526C08437B1F42ED02DD0F82E2BD052
:107F50003CD0F601EF2C8F010F5F1F4F84911BD097
:107F6000EA94F801C1F70894C11CD11CFA94CF0C13
:107F7000D11C0EC0853739F428D08EE10CD085E9AC
:107F80000AD08FE07ACF813511F488E018D01DD067
:107F900080E101D065CF982F8091C00085FFFCCF94
:107FA0009093C60008958091C00087FFFCCF809118
:107FB000C00084FD01C0A8958091C6000895E0E648
:107FC000F0E098E1908380830895EDDF803219F02E
:107FD00088E0F5DFFFCF84E1DECF1F93182FE3DFCA
:107FE0001150E9F7F2DF1F91089580E0E8DFEE27F6
:047FF000FF270994CA
:027FFE00040479
:00000001FF
