:100000000C9462000C948A000C948A000C948A0070
:100010000C948A000C948A000C948A000C948A0038
:100020000C948A000C948A000C948A000C948A0028
:100030000C948A000C948A000C948A000C948A0018
:100040000C9433070C948A000C94A3070C947D073E
:100050000C948A000C948A000C948A000C948A00F8
:100060000C948A000C948A000000000024002700F1
:100070002A0000000000250028002B0000000000DE
:1000800023002600290004040404040404040202DA
:100090000202020203030303030301020408102007
:1000A0004080010204081020010204081020000012
:1000B0000008000201000003040700000000000027
:1000C0000000D50711241FBECFEFD8E0DEBFCDBFA3
:1000D00011E0A0E0B1E0E8E6F1E202C005900D9287
:1000E000A63EB107D9F722E0A6EEB1E001C01D920D
:1000F000A13FB207E1F710E0C2E6D0E004C02197CB
:10010000FE010E94820FC136D107C9F70E94FF0885
:100110000C94B2100C940000833081F028F48130EC
:1001200099F08230A9F008958730A9F08830C9F09D
:100130008430B1F4809180008F7D03C08091800075
:100140008F7780938000089584B58F7784BD08955C
:1001500084B58F7DFBCF8091B0008F778093B00006
:1001600008958091B0008F7DF9CFCF93DF93282F32
:1001700030E0F901E255FF4F8491F901E656FF4F57
:10018000D491F901EA57FF4FC491CC23A1F081111A
:100190000E948C00EC2FF0E0EE0FFF1FE458FF4FA1
:1001A000A591B491EC91ED2381E090E009F480E019
:1001B000DF91CF91089580E090E0FACF1F93CF9325
:1001C000DF93282F30E0F901E255FF4F8491F901C8
:1001D000E656FF4FD491F901EA57FF4FC491CC2363
:1001E000A9F0162F81110E948C00EC2FF0E0EE0F89
:1001F000FF1FEE58FF4FA591B4918FB7F894EC9183
:10020000111108C0D095DE23DC938FBFDF91CF9111
:100210001F910895DE2BF8CFCF93DF9390E0FC0180
:10022000E656FF4F24918A579F4FFC018491882303
:10023000C9F090E0880F991FFC01E859FF4FA59184
:10024000B491FC01EE58FF4FC591D49161110DC0DE
:100250009FB7F8948C91209582238C9388812823D2
:1002600028839FBFDF91CF910895623051F49FB7EB
:10027000F8943C91822F809583238C93E8812E2BD8
:10028000EFCF8FB7F894EC912E2B2C938FBFEACF42
:100290002FB7F8946091F2017091F3018091F4010D
:1002A0009091F5012FBF0895AF92BF92CF92DF9248
:1002B000EF92FF920F931F93CF93DF936C017B011B
:1002C0008B01040F151FEB015E01AE18BF08C017AC
:1002D000D10759F06991D601ED91FC910190F0811F
:1002E000E02DC6010995892B79F7C501DF91CF91E2
:1002F0001F910F91FF90EF90DF90CF90BF90AF9044
:100300000895FC01538D448D252F30E0842F90E01B
:10031000821B930B541710F0CF9608950197089500
:10032000FC01918D828D981761F0A28DAE0FBF2FC9
:10033000B11D5D968C91928D9F5F9F73928F90E01F
:1003400008958FEF9FEF0895FC01918D828D98178E
:1003500031F0828DE80FF11D858D90E008958FEFCB
:100360009FEF0895FC01918D228D892F90E0805C94
:100370009F4F821B91098F73992708958AEF91E00F
:100380000E94B20121E0892B09F420E0822F089518
:1003900080E090E0892B29F00E94BE0181110C942D
:1003A00000000895FC01A48DA80FB92FB11DA35A18
:1003B000BF4F2C91848D90E001968F739927848F85
:1003C000A689B7892C93A089B1898C9183708064A8
:1003D0008C93938D848D981306C00288F389E02D49
:1003E00080818F7D80830895EF92FF920F931F93FA
:1003F000CF93DF93EC0181E0888F9B8D8C8D9813D8
:100400001AC0E889F989808185FF15C09FB7F894E3
:10041000EE89FF896083E889F9898081837080642F
:1004200080839FBF81E090E0DF91CF911F910F917A
:10043000FF90EF900895F62E0B8D10E00F5F1F4F89
:100440000F731127E02E8C8D8E110CC00FB607FC98
:10045000FACFE889F989808185FFF5CFCE010E9426
:10046000D201F1CFEB8DEC0FFD2FF11DE35AFF4FC1
:10047000F0829FB7F8940B8FEA89FB8980818062B4
:10048000CFCFCF93DF93EC01888D8823B9F0AA8971
:10049000BB89E889F9898C9185FD03C0808186FD3F
:1004A0000DC00FB607FCF7CF8C9185FFF2CF80818E
:1004B00085FFEDCFCE010E94D201E9CFDF91CF9130
:1004C0000895862F642F0C940C01FC0181890E94F1
:1004D000B50021E0892B09F420E0822F0895CF9305
:1004E000DF93FC012781222359F1EC0161E0808533
:1004F0000E940C0161E089850E940C018F8184308B
:1005000011F08830B1F461E08A850E940C0161E04D
:100510008B850E940C018FA58F3F91F061E00E94B6
:100520000C016EA581E068278FA5DF91CF910C9417
:10053000DE00833011F0863071F761E08A85E9CF03
:10054000DF91CF910895CF93DF93FC012781222380
:10055000A9F0EC010190F081E02D0284F385E02DFB
:1005600060E009958FA58F3F49F061E00E940C0182
:100570006EA58FA5DF91CF910C94DE00DF91CF9116
:100580000895DC01ED91FC91228533854770552754
:100590006627772741505109610971094730510594
:1005A0006105710560F4FA01E852FD4F0C94820F69
:1005B000E202E402E602E802EA02EC02EE0261E094
:1005C000F901099465E0FCCF64E0FACF66E0F8CF6A
:1005D00062E0F6CF6AE0F4CF68E0F2CF69E0F0CFF6
:1005E000CF93DF93EC01CB01BA0126E030E040E08D
:1005F00050E00E94630F623071058105910589F119
:100600006CF46115710581059105D1F061307105BA
:1006100081059105F9F0DF91CF910895643071055E
:100620008105910561F124F1653071058105910520
:1006300091F7E881F9810284F385E02D66E006C038
:10064000E881F9810284F385E02D64E0CE01DF9139
:10065000CF910994E881F9810284F385E02D65E06A
:10066000F5CFE881F9810284F385E02D61E0EECFDA
:10067000E881F9810284F385E02D63E0E7CFE8812A
:10068000F9810284F385E02D62E0E0CFDC01ED9199
:10069000FC910284F385E02D437055276627772768
:1006A000423051056105710571F043305105610516
:1006B000710559F0413051056105710511F065E092
:1006C000099466E0FDCF6AE0FBCF69E0F9CFCF93F4
:1006D000DF93EC01CB01BA0123E030E040E050E0D1
:1006E0000E94630F613071058105910599F06230B8
:1006F000710581059105A9F0672B682B692BC1F461
:10070000E881F9810284F385E02D64E0CE01DF9178
:10071000CF910994E881F9810284F385E02D61E0AD
:10072000F5CFE881F9810284F385E02D62E0EECF18
:10073000DF91CF910895DC01ED91FC910284F38566
:10074000E02D437055276627772742305105610514
:10075000710571F0433051056105710559F0413063
:1007600051056105710511F062E0099463E0FDCF68
:1007700061E0FBCF60E0F9CFCF93DF93EC01E8813C
:10078000F9810284F385E02D8A8160E0811162E0C5
:10079000CE010995E881F9810284F385E02D8A81F3
:1007A00061E0811163E0CE0109958CA59DA58230A1
:1007B000910538F0880F991F880F991F05970197A9
:1007C000F1F7E881F9810284F385E02D8A8160E008
:1007D000811162E0CE01DF91CF910994CF93DF9335
:1007E000EC0120E030E0A901688D798D8A8D9B8D28
:1007F0000E94740E18162CF4E8A9F9A9DF91CF9184
:100800000994EAA9FBA9FACFCF92DF92EF92FF9267
:100810000F931F93CF93DF93DC011796CC91C430D5
:1008200039F0C83059F1C33019F0C63049F1C2E08F
:100830008C01085F1F4FF12CE12CC62ED12CD1E08A
:10084000F8016481C6010E2C02C0959587950A9423
:10085000E2F780FD6D270F5F1F4F80810E94DE0051
:10086000BFEFEB1AFB0AEC1658F3DF91CF911F9103
:100870000F91FF90EF90DF90CF900895C4E0D8CF14
:10088000C3E0D6CFDC011796EC911797E93008F05A
:1008900038C0F0E0E25BFB4F0C94820F57045D041C
:1008A000630469046F048104750481047B04ED9181
:1008B000FC910684F785E02D0994ED91FC91008868
:1008C000F189E02DF9CFED91FC910288F389E02DBB
:1008D000F3CFED91FC910488F589E02DEDCFED91FA
:1008E000FC910688F789E02DE7CFED91FC91008C13
:1008F000F18DE02DE1CFED91FC91028CF38DE02D97
:10090000DBCF0895CF92DF92EF92FF923FB7F8943A
:100910008091F6019091F701A091F801B091F90151
:1009200026B5A89B05C02F3F19F00196A11DB11D4A
:100930003FBFBA2FA92F982F88276C017D01C20EC7
:10094000D11CE11CF11C42E0CC0CDD1CEE1CFF1C98
:100950004A95D1F78091D1029091D202A091D30211
:10096000B091D402B701A601481B590B6A0B7B0B4F
:100970008091AC029091AD02A091AE02B091AF0215
:10098000481759076A077B07A8F18091B90290912F
:10099000BA02A091BB02B091BC022091AB0222230B
:1009A00029F10196A11DB11D8093B9029093BA025D
:1009B000A093BB02B093BC024091B9025091BA021D
:1009C0006091BB027091BC0289EA92E00E944204ED
:1009D000C092D102D092D202E092D302F092D4021D
:1009E00081E0FF90EF90DF90CF9008950197A109EB
:1009F000B109DACF80E0F5CF4F925F926F927F928C
:100A00008F929F92AF92BF92CF92DF92EF92FF921E
:100A10000F931F93CF93DF93EC01CC88DD88EE8892
:100A2000FF8888899989AA89BB89C81AD90AEA0ADC
:100A3000FB0A688D798D8A8D9B8D9B01AC010E948C
:100A4000790E4B015C0168A179A18AA19BA19B0150
:100A5000AC010E94A90C9B01AC01C501B4010E942C
:100A60001A0D0E948C0DC114D104E104F10409F0A7
:100A7000B6C062307105810591050CF0D0C01B82B3
:100A80001C821D821E82188E198E1A8E1B8E1CAA25
:100A90001DAA1EAA1FAAC12CD12C7601C701B6011E
:100AA000DF91CF911F910F91FF90EF90DF90CF904A
:100AB000BF90AF909F908F907F906F905F904F907E
:100AC00008951016110612061306B4F46C157D0570
:100AD0008E059F051CF42A812111A1C09B01AC0148
:100AE00088279927DC01821B930BA40BB50B8CABD9
:100AF0009DABAEABBFAB93C0011511052105310510
:100B000009F48DC06C157D058E059F050CF087C01E
:100B10008A81882309F483C030952095109501952A
:100B20001F4F2F4F3F4F0CAB1DAB2EAB3FAB77C0D2
:100B3000011511052105310509F471C08824992496
:100B400054018C189D08AE08BF08681579058A0500
:100B50009B050CF064C08A81811161C0DDCFCCACF3
:100B6000DDACEEACFFACA7019601C701B6010E9457
:100B7000A90C2B013C01C501B4010E94C40D20E069
:100B800030E040E850E40E94790E20E030E040E898
:100B90005FE30E94A90C9B01AC01C301B2010E945A
:100BA0001A0D9B01AC01C701B6010E94A80C3B01C4
:100BB0006C01FE01E05CFF4FE080F1800281138157
:100BC0009701A8010E94740E181614F4730186018F
:100BD000C701D8018CAF9DAFAEAFBFAF3AC00CA973
:100BE0001DA92EA93FA91C141D041E041F040CF4EA
:100BF00068CF10161106120613060CF099CF0027C5
:100C0000112798010C191D092E093F09601771075A
:100C1000820793070CF062CF2A8121115FCF8CA845
:100C20009DA8AEA8BFA881149104A104B10409F045
:100C300096CF88AD99ADAAADBBAD8CAF9DAFAEAF31
:100C4000BFAF81E01C141D041E041F040CF080E0E3
:100C50008A833FEF831A930AA30AB30A8CAA9DAA38
:100C6000AEAABFAA8CAC9DACAEACBFACC501B40102
:100C70000E94930D6B017C01CB82DC82ED82FE82AF
:100C8000A501940160E074E284E799E40E941A0DE2
:100C9000688F798F8A8F9B8F2A812111FFCE905880
:100CA000688F798F8A8F9B8FF9CECF92DF92EF92E8
:100CB000FF92CF93DF93C9EAD2E0688D798D8A8D58
:100CC0009B8D9B01AC010E94790E6B017C0168A198
:100CD00079A18AA19BA19B01AC010E94A90C9B0157
:100CE000AC01C701B6010E941A0D0E948C0D6CABBD
:100CF0007DAB8EAB9FABCE01DF91CF91FF90EF909C
:100D0000DF90CF900C94FC0408954F925F926F9205
:100D10007F928F929F92AF92BF92CF92DF92EF928B
:100D2000FF926B017C0120E030E0A9010E94150DCB
:100D300087FF04C0F7FAF094F7F8F0948090C902A6
:100D40009090CA02A090CB02B090CC02A70196016D
:100D5000C501B4010E94150D882309F458C06091A3
:100D6000DD027091DE028091DF029091E0020E942C
:100D7000C40D2B013C01A7019601C501B4010E94DD
:100D80001A0D9B01AC01C301B2010E94790E0E94B1
:100D90008C0D6093DD027093DE028093DF029093EE
:100DA000E002A701960160E070E080E090E40E941C
:100DB0001A0D0E94EC0E26E53EE04DE25FE30E9434
:100DC000790E20E034E244E759E40E94790E609302
:100DD000E1027093E2028093E3029093E402C092F6
:100DE000C902D092CA02E092CB02F092CC0289EA08
:100DF00092E0FF90EF90DF90CF90BF90AF909F90E8
:100E00008F907F906F905F904F900C94FC04FF90B8
:100E1000EF90DF90CF90BF90AF909F908F907F909A
:100E20006F905F904F900895FC0101900020E9F7CA
:100E30003197AF01481B590BBC018AEF91E00C942C
:100E40005401CF93DF930E941407EC0180E491E0FA
:100E50000E9414078C0F9D1FDF91CF9108950E946F
:100E6000AD100C9424101F920F920FB60F92112404
:100E70002F933F938F939F93AF93BF938091F201F2
:100E80009091F301A091F401B091F5013091F1013D
:100E900023E0230F2D3758F50196A11DB11D209396
:100EA000F1018093F2019093F301A093F401B093C8
:100EB000F5018091F6019091F701A091F801B091B0
:100EC000F9010196A11DB11D8093F6019093F701E0
:100ED000A093F801B093F901BF91AF919F918F91C9
:100EE0003F912F910F900FBE0F901F90189526E8FD
:100EF000230F0296A11DB11DD2CF1F920F920FB6E4
:100F00000F9211242F933F934F935F936F937F938F
:100F10008F939F93AF93BF93EF93FF938AEF91E0EB
:100F20000E94D201FF91EF91BF91AF919F918F915C
:100F30007F916F915F914F913F912F910F900FBED5
:100F40000F901F9018951F920F920FB60F921124B9
:100F50002F938F939F93EF93FF93E0910A02F09169
:100F60000B028081E0911002F091110282FD1BC002
:100F70009081809113028F5F8F73209114028217EA
:100F800041F0E0911302F0E0E650FE4F958F809320
:100F90001302FF91EF919F918F912F910F900FBEB0
:100FA0000F901F9018958081F4CFCF92DF92EF922F
:100FB000FF921092FD011092FC0188EE93E0A0E0F8
:100FC000B0E08093FE019093FF01A0930002B093E4
:100FD00001028AE091E09093FB018093FA0185EC95
:100FE00090E0909307028093060284EC90E0909347
:100FF00009028093080280EC90E090930B028093AA
:101000000A0281EC90E090930D0280930C0282EC36
:1010100090E090930F0280930E0286EC90E0909304
:101020001102809310021092130210921402109277
:1010300015021092160284E291E09093AA02809326
:10104000A90281E08093B0021092B9021092BA0214
:101050001092BB021092BC021092BD021092BE020E
:101060001092BF021092C0021092C1021092C202EE
:101070001092C3021092C4021092C5021092C602CE
:101080001092C7021092C8021092C9021092CA02AE
:101090001092CB021092CC02C12CD12C80E8E82E09
:1010A0008FE3F82EC092CD02D092CE02E092CF0212
:1010B000F092D0021092AC021092AD021092AE02E9
:1010C0001092AF0281E090E09093D6028093D50217
:1010D0008FEF8093D8021092D1021092D202109218
:1010E000D3021092D40294E09093B10285E08093F1
:1010F000B2029093B3028093B4021092D70210927E
:10110000DD021092DE021092DF021092E0021092D5
:10111000E1021092E2021092E3021092E4021092B5
:10112000E5021092E6021092E7021092E802C092E5
:10113000E902D092EA02E092EB02F092EC02109205
:10114000AB021092B5021092B6021092B702109242
:10115000B80289EA92E00E946F02C701B6010E94BC
:101160008506A70196016091C5027091C602809123
:10117000C7029091C8020E94150D882319F1C092F0
:10118000C502D092C602E092C702F092C80280E087
:1011900094E2A4E7B9E48093E9029093EA02A09371
:1011A000EB02B093EC028091DD029091DE02A091FF
:1011B000DF02B091E002181619061A061B0614F495
:1011C0000E9455061092990210929A0210929B0268
:1011D00010929C028AE090E090939E0280939D0280
:1011E00010929F028CE191E0909398028093970275
:1011F0001092A802FF90EF90DF90CF900895CF93C8
:10120000DF93CDB7DEB7A1970FB6F894DEBF0FBE60
:10121000CDBF789484B5826084BD84B5816084BD7F
:1012200085B5826085BD85B5816085BD80916E0084
:10123000816080936E0010928100809181008260B5
:1012400080938100809181008160809381008091F2
:1012500080008160809380008091B10084608093E1
:10126000B1008091B00081608093B00080917A00DD
:10127000846080937A0080917A00826080937A0003
:1012800080917A00816080937A0080917A008068F2
:1012900080937A001092C100E0910A02F0910B0253
:1012A00082E08083E0910602F09107021082E091D3
:1012B0000802F091090280E1808310921202E0910D
:1012C0000E02F0910F0286E08083E0910C02F09113
:1012D0000D02808180618083E0910C02F0910D020B
:1012E000808188608083E0910C02F0910D02808102
:1012F00080688083E0910C02F0910D0280818F7DE7
:1013000080831092B50281E08093B6021092D702DA
:1013100062E082E00E940C0161E086E00E940C0124
:1013200061E083E00E940C0162E08EE00E940C010B
:1013300061E083E00E94DE0060E086E00E94DE0063
:101340008EE08093A80210929F0287E992E00E94AB
:101350006502882329F080919F02836080939F0219
:101360000E9448016093990270939A0280939B02B5
:1013700090939C0289E190E090939E0280939D025D
:1013800020E030E04AE754E46091C5027091C60263
:101390008091C7029091C8020E94150D882319F10F
:1013A00080E090E0AAE7B4E48093C5029093C6027F
:1013B000A093C702B093C8028093E9029093EA0217
:1013C000A093EB02B093EC028091DD029091DE02DB
:1013D000A091DF02B091E002181619061A061B064A
:1013E00014F40E94550660E070E08AE794E40E94DD
:1013F000850683E491E00E9421072AE0C22ED12CC9
:10140000E12CF12C34E0232E312C90E0A92E90E039
:10141000B92E9924939480919F028B7F80939F0291
:1014200087E992E00E946502182F80919F028695BD
:101430008170181709F4B0C00E94480160939902A6
:1014400070939A0280939B0290939C0280919F02DA
:1014500022E0822780939F0280919F0285708530D1
:1014600051F48091F001882331F01092F00182E76D
:1014700091E00E9421078091F001811181C080914B
:101480009F0280FD4DC082FF4BC08091EE01909184
:10149000EF01892B09F044C060E083E00E94DE0088
:1014A00060E086E00E94DE0084E891E00E9421076F
:1014B0001092B9021092BA021092BB021092BC02B2
:1014C0001092BD021092BE021092BF021092C00292
:1014D0001092DD021092DE021092DF021092E00202
:1014E0001092AC021092AD021092AE021092AF02B6
:1014F0001092C1021092C2021092C3021092C40252
:101500000E9448016093EA017093EB018093EC0123
:101510009093ED0181E090E09093EF018093EE01D4
:101520008091EE019091EF01892B51F182E00E94B0
:10153000B5008C010E9448014090EA015090EB01F7
:101540006090EC017090ED016419750986099709A6
:10155000613E7E428105910530F085E090E09093F8
:10156000EF018093EE018091EE019091EF018330C5
:10157000910509F485C108F062C0019709F475C0AE
:10158000A114B10409F447CF0E94BE01882309F4D5
:1015900040CF0E94000039CF0E944801409099023C
:1015A00050909A0260909B0270909C02AB01BC012B
:1015B000441955096609770980919D0290919E0210
:1015C000B0E0A0E0481759076A077B0708F444CF4A
:1015D00080919F028170181709F43ECF0E94480144
:1015E0006093990270939A0280939B0290939C025D
:1015F00080919F028925846080939F020E94480108
:101600000091A0021091A1022091A2023091A302A8
:10161000601B710B820B930B6093A4027093A50265
:101620008093A6029093A7020E9448016093A002B3
:101630007093A1028093A2029093A3020DCF8430F5
:10164000910509F478C1059709F09ACF81ED91E0F1
:101650000E94210761E083E00E94DE009092F00189
:101660001092EF011092EE018BCF20E030E04AE7BC
:1016700054E46091C1027091C2028091C3029091C2
:10168000C4020E94150D882379F14090C502509044
:10169000C6026090C7027090C80220E030E04AE7BE
:1016A00054ECC301B2010E94150D87FFA1C077FA67
:1016B000709477F8709420E030E0A901C301B20182
:1016C0000E94150D8111A4C01092AC021092AD02BF
:1016D0001092AE021092AF024092C1025092C2022A
:1016E0006092C3027092C4028091AC029091AD02EC
:1016F000A091AE02B091AF02892B8A2B8B2B11F0F7
:101700000E948204012B09F43BCF8091B902909191
:10171000BA02A091BB02B091BC028093E601909303
:10172000E701A093E801B093E9018DE991E00E94FF
:1017300014074090E6015090E7016090E801709036
:10174000E90177FE87C06DE28AEF91E00E94F40123
:1017500022273327A901241935094609570919A257
:101760008E010F5D1F4FCA01B901A70196010E94AA
:10177000410F605DF80162938F012115310541052C
:10178000510589F70115110519F0C8010E941407C8
:1017900080E491E00E9414078091E6019091E701B6
:1017A000A091E801B091E901885B9B40A109B109D2
:1017B0004091BD025091BE026091BF027091C00283
:1017C00084179507A607B70761F08093BD02909331
:1017D000BE02A093BF02B093C00289EA92E00E94C9
:1017E000FC0483E090E09093EF018093EE01C8CE7B
:1017F00020E030E04AE754E4C301B2010E94150D35
:1018000087FD59CF412C512C8AE7682E84E4782E2D
:10181000A301920160E074E284E799E40E941A0D4A
:101820009F770E94930D6093AC027093AD028093FA
:10183000AE029093AF028824839420E030E0A901A7
:10184000C301B2010E94740E18160CF0812C809214
:10185000AB0242CFA301920119A28E010F5D1F4F6F
:10186000CA01B901A70196010E94410F605DF8010C
:1018700062938F01211531054105510589F782CF0A
:101880008091AC029091AD02A091AE02B091AF02F6
:10189000892B8A2B8B2B41F00E948204882321F014
:1018A00089EA92E00E94FC044091BD025091BE0280
:1018B0006091BF027091C0028091B9029091BA020A
:1018C000A091BB02B091BC02481759076A077B0779
:1018D00009F056CE1092B9021092BA021092BB02D1
:1018E0001092BC021092BD021092BE021092BF0272
:1018F0001092C0021092DD021092DE021092DF02FE
:101900001092E0021092AC021092AD021092AE0260
:101910001092AF021092C1021092C2021092C30242
:101920001092C4023092EF012092EE0161E083E058
:101930000E94DE0025CE83EB91E00E94210761E04A
:1019400086E00E94DE001092EF011092EE01EECFD1
:101950005058BB27AA270E94C00C0C943A0E0E9434
:101960002C0E38F00E94330E20F039F49F3F19F40A
:1019700026F40C94290E0EF4E095E7FB0C94230E4C
:10198000E92F0E944B0E58F3BA17620773078407BA
:10199000950720F079F4A6F50C946D0E0EF4E09501
:1019A0000B2EBA2FA02D0B01B90190010C01CA0119
:1019B000A0011124FF27591B99F0593F50F4503EC4
:1019C00068F11A16F040A22F232F342F4427585FB6
:1019D000F3CF469537952795A795F0405395C9F7CE
:1019E0007EF41F16BA0B620B730B840BBAF0915086
:1019F000A1F0FF0FBB1F661F771F881FC2F70EC025
:101A0000BA0F621F731F841F48F4879577956795F7
:101A1000B795F7959E3F08F0B0CF9395880F08F0E3
:101A20009927EE0F9795879508950E94FF0D08F46A
:101A300081E008950E942E0D0C943A0E0E94330E00
:101A400058F00E942C0E40F029F45F3F29F00C94CE
:101A5000230E51110C946E0E0C94290E0E944B0E05
:101A600068F39923B1F3552391F3951B550BBB27CD
:101A7000AA2762177307840738F09F5F5F4F220F12
:101A8000331F441FAA1FA9F335D00E2E3AF0E0E809
:101A900032D091505040E695001CCAF72BD0FE2F53
:101AA00029D0660F771F881FBB1F261737074807E7
:101AB000AB07B0E809F0BB0B802DBF01FF2793589F
:101AC0005F4F3AF09E3F510578F00C94230E0C9432
:101AD0006E0E5F3FE4F3983ED4F386957795679555
:101AE000B795F7959F5FC9F7880F911D96958795D4
:101AF00097F90895E1E0660F771F881FBB1F6217F3
:101B000073078407BA0720F0621B730B840BBA0BB0
:101B1000EE1F88F7E09508950E94930D6894B11127
:101B20000C946E0E08950E94530E88F09F5798F003
:101B3000B92F9927B751B0F0E1F0660F771F881FD2
:101B4000991F1AF0BA95C9F714C0B13091F00E94EC
:101B50006D0EB1E008950C946D0E672F782F8827D5
:101B6000B85F39F0B93FCCF3869577956795B39513
:101B7000D9F73EF490958095709561957F4F8F4F82
:101B80009F4F0895E89409C097FB3EF49095809587
:101B9000709561957F4F8F4F9F4F9923A9F0F92F33
:101BA00096E9BB279395F695879577956795B795B1
:101BB000F111F8CFFAF4BB0F11F460FF1BC06F5F97
:101BC0007F4F8F4F9F4F16C0882311F096E911C0A9
:101BD000772321F09EE8872F762F05C0662371F0CA
:101BE00096E8862F70E060E02AF09A95660F771FDE
:101BF000881FDAF7880F9695879597F90895990FBA
:101C00000008550FAA0BE0E8FEEF16161706E807C6
:101C1000F907C0F012161306E407F50798F0621BE7
:101C2000730B840B950B39F40A2661F0232B242BBC
:101C3000252B21F408950A2609F4A140A6958FEFDB
:101C4000811D811D089597F99F6780E870E060E02D
:101C500008959FEF80EC089500240A941616170645
:101C600018060906089500240A941216130614068D
:101C700005060895092E0394000C11F4882352F0F0
:101C8000BB0F40F4BF2B11F460FF04C06F5F7F4FA8
:101C90008F4F9F4F089557FD9058440F551F59F08F
:101CA0005F3F71F04795880F97FB991F61F09F3F49
:101CB00079F087950895121613061406551FF2CF72
:101CC0004695F1DF08C0161617061806991FF1CFC2
:101CD00086957105610508940895E894BB276627E9
:101CE0007727CB0197F908950E94FF0D08F48FEF35
:101CF00008950E948C0E0C943A0E0E942C0E38F01F
:101D00000E94330E20F0952311F00C94230E0C94B6
:101D1000290E11240C946E0E0E944B0E70F3959FA9
:101D2000C1F3950F50E0551F629FF001729FBB27D2
:101D3000F00DB11D639FAA27F00DB11DAA1F649F6E
:101D40006627B00DA11D661F829F2227B00DA11D21
:101D5000621F739FB00DA11D621F839FA00D611DA7
:101D6000221F749F3327A00D611D231F849F600DC8
:101D7000211D822F762F6A2F11249F5750409AF0F1
:101D8000F1F088234AF0EE0FFF1FBB1F661F771F7D
:101D9000881F91505040A9F79E3F510580F00C9448
:101DA000230E0C946E0E5F3FE4F3983ED4F38695B9
:101DB00077956795B795F795E7959F5FC1F7FE2BE8
:101DC000880F911D9695879597F9089519F416F443
:101DD0000C94290E0C942C0F0E94530EB8F39923E7
:101DE000C9F3B6F39F57550B87FF0E943A0F0024A3
:101DF000A0E640EA900180585695979528F4805CBB
:101E0000660F771F881F20F026173707480730F422
:101E1000621B730B840B202931294A2BA69517943A
:101E20000794202531254A2758F7660F771F881F0A
:101E300020F026173707480730F4620B730B840B2A
:101E4000200D311D411DA09581F7B901842F9158B6
:101E5000880F9695879508959F3F31F0915020F413
:101E6000879577956795B795880F911D9695879576
:101E700097F9089591505040660F771F881FD2F749
:101E80000895A1E21A2EAA1BBB1BFD010DC0AA1FBB
:101E9000BB1FEE1FFF1FA217B307E407F50720F0D3
:101EA000A21BB30BE40BF50B661F771F881F991F4E
:101EB0001A9469F760957095809590959B01AC0197
:101EC000BD01CF010895052E97FB1EF400940E94DA
:101ED0007A0F57FD07D00E94410F07FC03D04EF444
:101EE0000C947A0F50954095309521953F4F4F4F68
:101EF0005F4F089590958095709561957F4F8F4FB6
:101F00009F4F0895EE0FFF1F0590F491E02D099467
:101F10000F931F93CF93DF938230910510F482E0EB
:101F200090E0E091EF02F091F00230E020E0B0E0CC
:101F3000A0E0309799F42115310509F44AC0281B17
:101F4000390B24303105D8F58A819B8161157105E3
:101F500089F1FB0193838283FE0111C0408151818D
:101F60000281138148175907E0F04817590799F47F
:101F7000109761F012960C93129713961C93329659
:101F8000CF01DF91CF911F910F9108950093EF0240
:101F90001093F002F4CF2115310551F04217530789
:101FA00038F0A901DB019A01BD01DF01F801C1CFC1
:101FB000EF01F9CF9093F0028093EF02CDCFFE01B5
:101FC000E20FF31F819391932250310939832883C3
:101FD000D7CF2091ED023091EE02232B41F42091D6
:101FE0000201309103013093EE022093ED02209123
:101FF0000001309101012115310541F42DB73EB7A3
:102000004091040150910501241B350BE091ED0234
:10201000F091EE02E217F307A0F42E1B3F0B2817F6
:10202000390778F0AC014E5F5F4F2417350748F051
:102030004E0F5F1F5093EE024093ED0281939193F8
:102040009FCFF0E0E0E09CCFCF93DF930097E9F0E3
:10205000FC01329713821282A091EF02B091F0023C
:10206000ED0130E020E01097A1F420813181820F52
:10207000931F2091ED023091EE022817390709F0E5
:1020800061C0F093EE02E093ED02DF91CF910895ED
:10209000EA01CE17DF07E8F54A815B819E01411511
:1020A0005105B1F7E901FB83EA8349915991C40FC6
:1020B000D51FEC17FD0761F4808191810296840F92
:1020C000951FE90199838883828193819B838A8309
:1020D000F0E0E0E012968D919C9113970097B9F58E
:1020E0002D913C911197CD010296820F931F209163
:1020F000ED023091EE022817390739F6309751F585
:102100001092F0021092EF02B093EE02A093ED0253
:10211000BCCFD383C28340815181840F951FC817E0
:10212000D90761F44E5F5F4F88819981480F591F2D
:10213000518340838A819B8193838283211531055A
:1021400009F0B0CFF093F002E093EF029ECFFD01D3
:10215000DC01C0CF13821282D7CF81E090E0F894E7
:082160000C94B210F894FFCFBB
:102168000000F102800000000000F4015401810128
:102178004102B2019001A401000000006502610261
:1021880000000000A3026F0284063107FC04040467
:102198004204EE03BC039B0367034603F002C1023B
:1021A8000D0A0053697374656D61206C6973746FEF
:1021B8002E2050726573696F6E6120656C20626FA6
:1021C80074C3B36E207061726120686F6D696E6749
:1021D8002E00F09F948420486F6D696E67207265A9
:1021E80073657400F09F94B920496E696369616EE4
:1021F800646F20686F6D696E672E2E2E00466C61C5
:102208006E636F2064652073616C69646120656E1C
:102218003A2000E29C8520486F6D696E67204F4B1D
:102228002E205265666572656E636961203D2030B7
:1022380000E29D8C204552524F5220646520686F01
:062248006D696E670000E5
:00000001FF
