:100000000C9462000C948A000C948A000C948A0070
:100010000C948A000C948A000C948A000C948A0038
:100020000C948A000C948A000C948A000C948A0028
:100030000C948A000C948A000C948A000C948A0018
:100040000C941E070C948A000C948E070C9468077D
:100050000C948A000C948A000C948A000C948A00F8
:100060000C948A000C948A000000000024002700F1
:100070002A0000000000250028002B0000000000DE
:1000800023002600290004040404040404040202DA
:100090000202020203030303030301020408102007
:1000A0004080010204081020010204081020000012
:1000B0000008000201000003040700000000000027
:1000C0000000C00711241FBECFEFD8E0DEBFCDBFB8
:1000D00011E0A0E0B1E0E0E7FDE102C005900D9283
:1000E000AA3AB107D9F722E0AAEAB1E001C01D920D
:1000F000AA3AB207E1F710E0C2E6D0E004C02197C7
:10010000FE010E94860DC136D107C9F70E94EA0898
:100110000C94B60E0C940000833081F028F48130EA
:1001200099F08230A9F008958730A9F08830C9F09D
:100130008430B1F4809180008F7D03C08091800075
:100140008F7780938000089584B58F7784BD08955C
:1001500084B58F7DFBCF8091B0008F778093B00006
:1001600008958091B0008F7DF9CFCF93DF93282F32
:1001700030E0F901E255FF4F8491F901E656FF4F57
:10018000D491F901EA57FF4FC491CC23A1F081111A
:100190000E948C00EC2FF0E0EE0FFF1FE458FF4FA1
:1001A000A591B491EC91ED2381E090E009F480E019
:1001B000DF91CF91089580E090E0FACF1F93CF9325
:1001C000DF93282F30E0F901E255FF4F8491F901C8
:1001D000E656FF4FD491F901EA57FF4FC491CC2363
:1001E000A9F0162F81110E948C00EC2FF0E0EE0F89
:1001F000FF1FEE58FF4FA591B4918FB7F894EC9183
:10020000111108C0D095DE23DC938FBFDF91CF9111
:100210001F910895DE2BF8CFCF93DF9390E0FC0180
:10022000E656FF4F24918A579F4FFC018491882303
:10023000C9F090E0880F991FFC01E859FF4FA59184
:10024000B491FC01EE58FF4FC591D49161110DC0DE
:100250009FB7F8948C91209582238C9388812823D2
:1002600028839FBFDF91CF910895623051F49FB7EB
:10027000F8943C91822F809583238C93E8812E2BD8
:10028000EFCF8FB7F894EC912E2B2C938FBFEACF42
:100290002FB7F8946091AF017091B0018091B101D6
:1002A0009091B2012FBF0895AF92BF92CF92DF928B
:1002B000EF92FF920F931F93CF93DF936C017B011B
:1002C0008B01040F151FEB015E01AE18BF08C017AC
:1002D000D10759F06991D601ED91FC910190F0811F
:1002E000E02DC6010995892B79F7C501DF91CF91E2
:1002F0001F910F91FF90EF90DF90CF90BF90AF9044
:100300000895FC01538D448D252F30E0842F90E01B
:10031000821B930B541710F0CF9608950197089500
:10032000FC01918D828D981761F0A28DAE0FBF2FC9
:10033000B11D5D968C91928D9F5F9F73928F90E01F
:1003400008958FEF9FEF0895FC01918D828D98178E
:1003500031F0828DE80FF11D858D90E008958FEFCB
:100360009FEF0895FC01918D228D892F90E0805C94
:100370009F4F821B91098F739927089583EB91E01A
:100380000E94B20121E0892B09F420E0822F089518
:1003900080E090E0892B29F00E94BE0181110C942D
:1003A00000000895FC01A48DA80FB92FB11DA35A18
:1003B000BF4F2C91848D90E001968F739927848F85
:1003C000A689B7892C93A089B1898C9183708064A8
:1003D0008C93938D848D981306C00288F389E02D49
:1003E00080818F7D80830895EF92FF920F931F93FA
:1003F000CF93DF93EC0181E0888F9B8D8C8D9813D8
:100400001AC0E889F989808185FF15C09FB7F894E3
:10041000EE89FF896083E889F9898081837080642F
:1004200080839FBF81E090E0DF91CF911F910F917A
:10043000FF90EF900895F62E0B8D10E00F5F1F4F89
:100440000F731127E02E8C8D8E110CC00FB607FC98
:10045000FACFE889F989808185FFF5CFCE010E9426
:10046000D201F1CFEB8DEC0FFD2FF11DE35AFF4FC1
:10047000F0829FB7F8940B8FEA89FB8980818062B4
:10048000CFCFCF93DF93EC01888D8823B9F0AA8971
:10049000BB89E889F9898C9185FD03C0808186FD3F
:1004A0000DC00FB607FCF7CF8C9185FFF2CF80818E
:1004B00085FFEDCFCE010E94D201E9CFDF91CF9130
:1004C0000895862F642F0C940C01FC0181890E94F1
:1004D000B50021E0892B09F420E0822F0895CF9305
:1004E000DF93FC012781222359F1EC0161E0808533
:1004F0000E940C0161E089850E940C018F8184308B
:1005000011F08830B1F461E08A850E940C0161E04D
:100510008B850E940C018FA58F3F91F061E00E94B6
:100520000C016EA581E068278FA5DF91CF910C9417
:10053000DE00833011F0863071F761E08A85E9CF03
:10054000DF91CF910895CF93DF93FC012781222380
:10055000A9F0EC010190F081E02D0284F385E02DFB
:1005600060E009958FA58F3F49F061E00E940C0182
:100570006EA58FA5DF91CF910C94DE00DF91CF9116
:100580000895DC01ED91FC91228533854770552754
:100590006627772741505109610971094730510594
:1005A0006105710560F4FA01E852FD4F0C94860D67
:1005B000E202E402E602E802EA02EC02EE0261E094
:1005C000F901099465E0FCCF64E0FACF66E0F8CF6A
:1005D00062E0F6CF6AE0F4CF68E0F2CF69E0F0CFF6
:1005E000CF93DF93EC01CB01BA0126E030E040E08D
:1005F00050E00E94670D623071058105910589F117
:100600006CF46115710581059105D1F061307105BA
:1006100081059105F9F0DF91CF910895643071055E
:100620008105910561F124F1653071058105910520
:1006300091F7E881F9810284F385E02D66E006C038
:10064000E881F9810284F385E02D64E0CE01DF9139
:10065000CF910994E881F9810284F385E02D65E06A
:10066000F5CFE881F9810284F385E02D61E0EECFDA
:10067000E881F9810284F385E02D63E0E7CFE8812A
:10068000F9810284F385E02D62E0E0CFDC01ED9199
:10069000FC910284F385E02D437055276627772768
:1006A000423051056105710571F043305105610516
:1006B000710559F0413051056105710511F065E092
:1006C000099466E0FDCF6AE0FBCF69E0F9CFCF93F4
:1006D000DF93EC01CB01BA0123E030E040E050E0D1
:1006E0000E94670D613071058105910599F06230B6
:1006F000710581059105A9F0672B682B692BC1F461
:10070000E881F9810284F385E02D64E0CE01DF9178
:10071000CF910994E881F9810284F385E02D61E0AD
:10072000F5CFE881F9810284F385E02D62E0EECF18
:10073000DF91CF910895DC01ED91FC910284F38566
:10074000E02D437055276627772742305105610514
:10075000710571F0433051056105710559F0413063
:1007600051056105710511F062E0099463E0FDCF68
:1007700061E0FBCF60E0F9CFCF93DF93EC01E8813C
:10078000F9810284F385E02D8A8160E0811162E0C5
:10079000CE010995E881F9810284F385E02D8A81F3
:1007A00061E0811163E0CE0109958CA59DA58230A1
:1007B000910538F0880F991F880F991F05970197A9
:1007C000F1F7E881F9810284F385E02D8A8160E008
:1007D000811162E0CE01DF91CF910994CF93DF9335
:1007E000EC0120E030E0A901688D798D8A8D9B8D28
:1007F0000E94780C18162CF4E8A9F9A9DF91CF9182
:100800000994EAA9FBA9FACFCF92DF92EF92FF9267
:100810000F931F93CF93DF93DC011796CC91C430D5
:1008200039F0C83059F1C33019F0C63049F1C2E08F
:100830008C01085F1F4FF12CE12CC62ED12CD1E08A
:10084000F8016481C6010E2C02C0959587950A9423
:10085000E2F780FD6D270F5F1F4F80810E94DE0051
:10086000BFEFEB1AFB0AEC1658F3DF91CF911F9103
:100870000F91FF90EF90DF90CF900895C4E0D8CF14
:10088000C3E0D6CFDC011796EC911797E93008F05A
:1008900038C0F0E0E25BFB4F0C94860D57045D041A
:1008A000630469046F048104750481047B04ED9181
:1008B000FC910684F785E02D0994ED91FC91008868
:1008C000F189E02DF9CFED91FC910288F389E02DBB
:1008D000F3CFED91FC910488F589E02DEDCFED91FA
:1008E000FC910688F789E02DE7CFED91FC91008C13
:1008F000F18DE02DE1CFED91FC91028CF38DE02D97
:10090000DBCF08954F925F926F927F928F929F926A
:10091000AF92BF92CF92DF92EF92FF920F931F930D
:10092000CF93DF93EC01CC88DD88EE88FF8888893F
:100930009989AA89BB89C81AD90AEA0AFB0A688D6B
:10094000798D8A8D9B8D9B01AC010E947D0C4B01A2
:100950005C0168A179A18AA19BA19B01AC010E94C5
:10096000AD0A9B01AC01C501B4010E941E0B0E949F
:10097000900BC114D104E104F10409F0B6C0623057
:100980007105810591050CF0D0C01B821C821D826F
:100990001E82188E198E1A8E1B8E1CAA1DAA1EAAC4
:1009A0001FAAC12CD12C7601C701B601DF91CF91CE
:1009B0001F910F91FF90EF90DF90CF90BF90AF907D
:1009C0009F908F907F906F905F904F90089510163A
:1009D000110612061306B4F46C157D058E059F05ED
:1009E0001CF42A812111A1C09B01AC018827992701
:1009F000DC01821B930BA40BB50B8CAB9DABAEAB98
:100A0000BFAB93C0011511052105310509F48DC057
:100A10006C157D058E059F050CF087C08A818823A3
:100A200009F483C030952095109501951F4F2F4FE5
:100A30003F4F0CAB1DAB2EAB3FAB77C00115110583
:100A40002105310509F471C08824992454018C18BA
:100A50009D08AE08BF08681579058A059B050CF04E
:100A600064C08A81811161C0DDCFCCACDDACEEAC5D
:100A7000FFACA7019601C701B6010E94AD0A2B0188
:100A80003C01C501B4010E94C80B20E030E040E801
:100A900050E40E947D0C20E030E040E85FE30E94DB
:100AA000AD0A9B01AC01C301B2010E941E0B9B0168
:100AB000AC01C701B6010E94AC0A3B016C01FE010A
:100AC000E05CFF4FE080F180028113819701A80173
:100AD0000E94780C181614F473018601C701D8011E
:100AE0008CAF9DAFAEAFBFAF3AC00CA91DA92EA968
:100AF0003FA91C141D041E041F040CF468CF10161B
:100B00001106120613060CF099CF00271127980141
:100B10000C191D092E093F096017710782079307F9
:100B20000CF062CF2A8121115FCF8CA89DA8AEA8BE
:100B3000BFA881149104A104B10409F096CF88AD37
:100B400099ADAAADBBAD8CAF9DAFAEAFBFAF81E0ED
:100B50001C141D041E041F040CF080E08A833FEF68
:100B6000831A930AA30AB30A8CAA9DAAAEAABFAAA3
:100B70008CAC9DACAEACBFACC501B4010E94970B70
:100B80006B017C01CB82DC82ED82FE82A5019401A7
:100B900060E074E284E799E40E941E0B688F798F0D
:100BA0008A8F9B8F2A812111FFCE9058688F798F71
:100BB0008A8F9B8FF9CECF92DF92EF92FF92CF93E5
:100BC000DF93C2E6D2E0688D798D8A8D9B8D9B0183
:100BD000AC010E947D0C6B017C0168A179A18AA106
:100BE0009BA19B01AC010E94AD0A9B01AC01C70116
:100BF000B6010E941E0B0E94900B6CAB7DAB8EABBE
:100C00009FABCE01DF91CF91FF90EF90DF90CF901F
:100C10000C94820408954F925F926F927F928F920C
:100C20009F92AF92BF92CF92DF92EF92FF926B01B1
:100C30007C0120E030E0A9010E94190B87FF04C06D
:100C4000F7FAF094F7F8F094809082029090830283
:100C5000A0908402B0908502A7019601C501B4015D
:100C60000E94190B882309F458C060919602709174
:100C7000970280919802909199020E94C80B2B01D3
:100C80003C01A7019601C501B4010E941E0B9B0106
:100C9000AC01C301B2010E947D0C0E94900B6093D5
:100CA0009602709397028093980290939902A701FD
:100CB000960160E070E080E090E40E941E0B0E94CC
:100CC000F00C26E53EE04DE25FE30E947D0C20E063
:100CD00034E244E759E40E947D0C60939A027093D9
:100CE0009B0280939C0290939D02C0928202D092BC
:100CF0008302E0928402F092850282E692E0FF9005
:100D0000EF90DF90CF90BF90AF909F908F907F90AB
:100D10006F905F904F900C948204FF90EF90DF9063
:100D2000CF90BF90AF909F908F907F906F905F908B
:100D30004F900895FC0101900020E9F73197AF0131
:100D4000481B590BBC0183EB91E00C9454018F922A
:100D50009F92AF92BF920F931F93CF93DF93CDB724
:100D6000DEB7A1970FB6F894DEBF0FBECDBF19A2B4
:100D7000423008F44AE08E010F5D1F4F842E912C03
:100D8000B12CA12CA50194010E94450DE62FB901BB
:100D9000CA01EA30F4F4E05DD801EE938D01232B13
:100DA000242B252B79F790E080E0109719F0CD01E6
:100DB0000E949A06A1960FB6F894DEBF0FBECDBF73
:100DC000DF91CF911F910F91BF90AF909F908F9027
:100DD0000895E95CE1CFCF92DF92EF92FF92CF933B
:100DE000DF936B017C016DE283EB91E00E94F401E3
:100DF000EC0166277727CB016C197D098E099F09C5
:100E00004AE00E94A7068C0F9D1FDF91CF91FF90B3
:100E1000EF90DF90CF900895CF93DF930E949A06D2
:100E2000EC0180E491E00E949A068C0F9D1FDF91F7
:100E3000CF9108950E94B10E0C94280E1F920F922C
:100E40000FB60F9211242F933F938F939F93AF93DD
:100E5000BF938091AF019091B001A091B101B09189
:100E6000B2013091AE0123E0230F2D3758F50196E2
:100E7000A11DB11D2093AE018093AF019093B001ED
:100E8000A093B101B093B2018091AA019091AB01FE
:100E9000A091AC01B091AD010196A11DB11D80934F
:100EA000AA019093AB01A093AC01B093AD01BF91A7
:100EB000AF919F918F913F912F910F900FBE0F9007
:100EC0001F90189526E8230F0296A11DB11DD2CFC1
:100ED0001F920F920FB60F9211242F933F934F93AF
:100EE0005F936F937F938F939F93AF93BF93EF9392
:100EF000FF9383EB91E00E94D201FF91EF91BF91AC
:100F0000AF919F918F917F916F915F914F913F91A1
:100F10002F910F900FBE0F901F9018951F920F9258
:100F20000FB60F9211242F938F939F93EF93FF93FC
:100F3000E091C301F091C4018081E091C901F09179
:100F4000CA0182FD1BC090818091CC018F5F8F739D
:100F50002091CD01821741F0E091CC01F0E0ED54F9
:100F6000FE4F958F8093CC01FF91EF919F918F91D0
:100F70002F910F900FBE0F901F9018958081F4CF86
:100F8000CF92DF92EF92FF921092B6011092B501CC
:100F900088EE93E0A0E0B0E08093B7019093B801B1
:100FA000A093B901B093BA018AE091E09093B401A3
:100FB0008093B30185EC90E09093C0018093BF01D2
:100FC00084EC90E09093C2018093C10180EC90E0AA
:100FD0009093C4018093C30181EC90E09093C6018B
:100FE0008093C50182EC90E09093C8018093C70183
:100FF00086EC90E09093CA018093C9011092CC01D5
:101000001092CD011092CE011092CF0184E291E0B6
:10101000909363028093620281E080936902109250
:101020007202109273021092740210927502109262
:101030007602109277021092780210927902109242
:101040007A0210927B0210927C0210927D02109222
:101050007E0210927F021092800210928102109202
:101060008202109283021092840210928502C12C97
:10107000D12C80E8E82E8FE3F82EC0928602D09221
:101080008702E0928802F092890210926502109223
:101090006602109267021092680281E090E09093DD
:1010A0008F0280938E028FEF8093910210928A02BA
:1010B00010928B0210928C0210928D0294E0909309
:1010C0006A0285E080936B0290936C0280936D02BC
:1010D000109290021092960210929702109298022B
:1010E0001092990210929A0210929B0210929C0206
:1010F00010929D0210929E0210929F021092A002E6
:101100001092A102C092A202D092A302E092A40285
:10111000F092A5021092640210926E0210926F0279
:10112000109270021092710282E692E00E946F02A9
:10113000C701B6010E940B06A701960160917E02CD
:1011400070917F0280918002909181020E94190B20
:10115000882319F1C0927E02D0927F02E092800231
:10116000F092810280E094E2A4E7B9E48093A202C5
:101170009093A302A093A402B093A502809196023B
:1011800090919702A0919802B091990218161906B1
:101190001A061B0614F40E94DB05109252021092EC
:1011A000530210925402109255028AE090E09093FC
:1011B000570280935602109258028CE191E090936E
:1011C00051028093500210926102FF90EF90DF90E5
:1011D000CF900895789484B5826084BD84B5816091
:1011E00084BD85B5826085BD85B5816085BD8091F2
:1011F0006E00816080936E0010928100809181006A
:101200008260809381008091810081608093810061
:10121000809180008160809380008091B100846023
:101220008093B1008091B00081608093B000809184
:101230007A00846080937A0080917A008260809343
:101240007A0080917A00816080937A0080917A00A0
:10125000806880937A001092C100E091C301F09100
:10126000C40182E08083E091BF01F091C00110824F
:10127000E091C101F091C20180E180831092CB0125
:10128000E091C701F091C80186E08083E091C5013B
:10129000F091C601808180618083E091C501F09169
:1012A000C601808188608083E091C501F091C6010C
:1012B000808180688083E091C501F091C6018081C2
:1012C0008F7D808310926E0281E080936F02109276
:1012D000900261E083E00E940C0160E083E00E94E4
:1012E000DE0062E082E00E940C0162E08EE00E947B
:1012F0000C018EE0809361021092580280E592E02A
:101300000E946502882329F08091580283608093AF
:1013100058020E94480160935202709353028093D6
:1013200054029093550289E190E090935702809384
:10133000560220E030E04AE754E460917E0270916A
:101340007F0280918002909181020E94190B882374
:1013500019F180E090E0AAE7B4E480937E029093D4
:101360007F02A0938002B09381028093A2029093A7
:10137000A302A093A402B093A5028091960290913B
:101380009702A0919802B0919902181619061A06B0
:101390001B0614F40E94DB0560E070E08AE794E429
:1013A0000E940B0610927202109273021092740245
:1013B00010927502109276021092770210927802C3
:1013C000109279021092960210929702109298024F
:1013D00010929902109265021092660210926702B2
:1013E0001092680210927A0210927B0210927C0294
:1013F00010927D0283E491E00E940C0761E083E09B
:101400000E94DE0011E002E0C0E0D0E080915802CE
:101410008B7F8093580280E592E00E946502F82E4F
:101420008091580286958170F81679F10E944801E2
:10143000609352027093530280935402909355022A
:10144000809158028027809358028091580280FD35
:1014500075C082FF73C082E791E00E940C0782E0B2
:101460000E94B500892B09F074C086E891E00E94C3
:101470000C0782E00E94B500BC01990F880B990B04
:1014800097FF55C00E94EB0655C00E94480180900E
:10149000520290905302A0905402B0905502AB01BA
:1014A000BC01481959096A097B098091560290913B
:1014B0005702B0E0A0E0481759076A077B0728F2F7
:1014C000809158028170F81609F4BFCF0E9448013C
:1014D000609352027093530280935402909355028A
:1014E0008091580281278460809358020E944801AD
:1014F000C0905902D0905A02E0905B02F0905C02DA
:101500006C197D098E099F0960935D0270935E02DC
:1015100080935F02909360020E9448016093590299
:1015200070935A0280935B0290935C028ECF4AE0E4
:101530000E94A70680E491E00E949A06209709F491
:1015400065CF0E94BE01882309F460CF0E9400008D
:101550005DCF86E991E08BCF5058BB27AA270E9428
:10156000C40A0C943E0C0E94300C38F00E94370CD8
:1015700020F039F49F3F19F426F40C942D0C0EF44E
:10158000E095E7FB0C94270CE92F0E944F0C58F3D1
:10159000BA17620773078407950720F079F4A6F558
:1015A0000C94710C0EF4E0950B2EBA2FA02D0B01AC
:1015B000B90190010C01CA01A0011124FF27591B98
:1015C00099F0593F50F4503E68F11A16F040A22F9E
:1015D000232F342F4427585FF3CF4695379527950F
:1015E000A795F0405395C9F77EF41F16BA0B620B0E
:1015F000730B840BBAF09150A1F0FF0FBB1F661F55
:10160000771F881FC2F70EC0BA0F621F731F841F97
:1016100048F4879577956795B795F7959E3F08F0BD
:10162000B0CF9395880F08F09927EE0F979587957F
:1016300008950E94030C08F481E008950E94320B83
:101640000C943E0C0E94370C58F00E94300C40F075
:1016500029F45F3F29F00C94270C51110C94720C63
:101660000C942D0C0E944F0C68F39923B1F3552371
:1016700091F3951B550BBB27AA27621773078407A5
:1016800038F09F5F5F4F220F331F441FAA1FA9F33B
:1016900035D00E2E3AF0E0E832D091505040E69529
:1016A000001CCAF72BD0FE2F29D0660F771F881F8A
:1016B000BB1F261737074807AB07B0E809F0BB0B7D
:1016C000802DBF01FF2793585F4F3AF09E3F510591
:1016D00078F00C94270C0C94720C5F3FE4F3983E66
:1016E000D4F3869577956795B795F7959F5FC9F77A
:1016F000880F911D9695879597F90895E1E0660FFB
:10170000771F881FBB1F621773078407BA0720F073
:10171000621B730B840BBA0BEE1F88F7E0950895DC
:101720000E94970B6894B1110C94720C08950E945A
:10173000570C88F09F5798F0B92F9927B751B0F000
:10174000E1F0660F771F881F991F1AF0BA95C9F745
:1017500014C0B13091F00E94710CB1E008950C9466
:10176000710C672F782F8827B85F39F0B93FCCF319
:10177000869577956795B395D9F73EF490958095C2
:10178000709561957F4F8F4F9F4F0895E89409C0E2
:1017900097FB3EF490958095709561957F4F8F4FA4
:1017A0009F4F9923A9F0F92F96E9BB279395F695BA
:1017B000879577956795B795F111F8CFFAF4BB0F38
:1017C00011F460FF1BC06F5F7F4F8F4F9F4F16C09C
:1017D000882311F096E911C0772321F09EE8872F26
:1017E000762F05C0662371F096E8862F70E060E0E2
:1017F0002AF09A95660F771F881FDAF7880F96955B
:10180000879597F90895990F0008550FAA0BE0E8FE
:10181000FEEF16161706E807F907C0F012161306B2
:10182000E407F50798F0621B730B840B950B39F4F2
:101830000A2661F0232B242B252B21F408950A2658
:1018400009F4A140A6958FEF811D811D089597F998
:101850009F6780E870E060E008959FEF80EC089556
:1018600000240A941616170618060906089500247F
:101870000A9412161306140605060895092E0394F9
:10188000000C11F4882352F0BB0F40F4BF2B11F46D
:1018900060FF04C06F5F7F4F8F4F9F4F089557FDCC
:1018A0009058440F551F59F05F3F71F04795880FCE
:1018B00097FB991F61F09F3F79F087950895121665
:1018C00013061406551FF2CF4695F1DF08C0161611
:1018D00017061806991FF1CF8695710561050894C2
:1018E0000895E894BB2766277727CB0197F90895D9
:1018F0000E94030C08F48FEF08950E94900C0C9442
:101900003E0C0E94300C38F00E94370C20F09523DA
:1019100011F00C94270C0C942D0C11240C94720CC7
:101920000E944F0C70F3959FC1F3950F50E0551F27
:10193000629FF001729FBB27F00DB11D639FAA2724
:10194000F00DB11DAA1F649F6627B00DA11D661F73
:10195000829F2227B00DA11D621F739FB00DA11D94
:10196000621F839FA00D611D221F749F3327A00D4E
:10197000611D231F849F600D211D822F762F6A2FEA
:1019800011249F5750409AF0F1F088234AF0EE0F4F
:10199000FF1FBB1F661F771F881F91505040A9F77C
:1019A0009E3F510580F00C94270C0C94720C5F3F05
:1019B000E4F3983ED4F3869577956795B795F795B8
:1019C000E7959F5FC1F7FE2B880F911D9695879530
:1019D00097F9089519F416F40C942D0C0C94300D0D
:1019E0000E94570CB8F39923C9F3B6F39F57550BD0
:1019F00087FF0E943E0D0024A0E640EA9001805837
:101A00005695979528F4805C660F771F881F20F005
:101A100026173707480730F4621B730B840B202905
:101A200031294A2BA69517940794202531254A275A
:101A300058F7660F771F881F20F0261737074807CB
:101A400030F4620B730B840B200D311D411DA095EA
:101A500081F7B901842F9158880F9695879508953D
:101A60009F3F31F0915020F4879577956795B79512
:101A7000880F911D9695879597F90895915050403C
:101A8000660F771F881FD2F70895A1E21A2EAA1BAE
:101A9000BB1BFD010DC0AA1FBB1FEE1FFF1FA2171E
:101AA000B307E407F50720F0A21BB30BE40BF50B1B
:101AB000661F771F881F991F1A9469F760957095A4
:101AC000809590959B01AC01BD01CF010895052E35
:101AD00097FB1EF400940E947E0D57FD07D00E94D4
:101AE000450D07FC03D04EF40C947E0D50954095A7
:101AF000309521953F4F4F4F5F4F089590958095BA
:101B0000709561957F4F8F4F9F4F0895EE0FFF1F88
:101B10000590F491E02D09940F931F93CF93DF93D9
:101B20008230910510F482E090E0E091A802F091FB
:101B3000A90230E020E0B0E0A0E0309799F4211550
:101B4000310509F44AC0281B390B24303105D8F57A
:101B50008A819B816115710589F1FB0193838283E1
:101B6000FE0111C04081518102811381481759073C
:101B7000E0F04817590799F4109761F012960C930A
:101B8000129713961C933296CF01DF91CF911F913C
:101B90000F9108950093A8021093A902F4CF211584
:101BA000310551F04217530738F0A901DB019A01C2
:101BB000BD01DF01F801C1CFEF01F9CF9093A90278
:101BC0008093A802CDCFFE01E20FF31F8193919382
:101BD0002250310939832883D7CF2091A602309132
:101BE000A702232B41F4209102013091030130938D
:101BF000A7022093A6022091000130910101211536
:101C0000310541F42DB73EB74091040150910501D3
:101C1000241B350BE091A602F091A702E217F3070F
:101C2000A0F42E1B3F0B2817390778F0AC014E5F4C
:101C30005F4F2417350748F04E0F5F1F5093A702E0
:101C40004093A602819391939FCFF0E0E0E09CCF78
:101C5000CF93DF930097E9F0FC0132971382128251
:101C6000A091A802B091A902ED0130E020E0109708
:101C7000A1F420813181820F931F2091A60230911F
:101C8000A7022817390709F061C0F093A702E09373
:101C9000A602DF91CF910895EA01CE17DF07E8F59C
:101CA0004A815B819E0141155105B1F7E901FB8332
:101CB000EA8349915991C40FD51FEC17FD0761F4D0
:101CC000808191810296840F951FE9019983888311
:101CD000828193819B838A83F0E0E0E012968D916C
:101CE0009C9113970097B9F52D913C911197CD01D7
:101CF0000296820F931F2091A6023091A702281707
:101D0000390739F6309751F51092A9021092A802BE
:101D1000B093A702A093A602BCCFD383C283408115
:101D20005181840F951FC817D90761F44E5F5F4F2B
:101D300088819981480F591F518340838A819B81F3
:101D4000938382832115310509F0B0CFF093A90266
:101D5000E093A8029ECFFD01DC01C0CF1382128266
:101D6000D7CF81E090E0F8940C94B60EF894FFCFB2
:101D70000000AA02800000000000F401540181016B
:101D80004102B2019001A40100000000650261025D
:101D900000000000A3026F020A061C07820404046C
:101DA0004204EE03BC039B0367034603F002C10237
:101DB0000D0A0053697374656D61206C6973746FEB
:101DC0002E2050726573696F6E6120656C20626FA2
:101DD00074C3B36E207061726120686F6D696E6745
:101DE0002E00496E696369616E646F20686F6D696A
:101DF0006E672E2E2E00496DC3A16E20646574653A
:101E0000637461646F00496DC3A16E204E4F2064FE
:0A1E1000657465637461646F00007F
:00000001FF
