:020000040000FA
:100000000C9462000C948A000C948A000C948A0070
:100010000C948A000C948A000C948A000C948A0038
:100020000C948A000C948A000C948A000C948A0028
:100030000C948A000C948A000C948A000C948A0018
:100040000C944E080C948A000C94BE080C949808EA
:100050000C948A000C948A000C948A000C948A00F8
:100060000C948A000C948A000000000024002700F1
:100070002A0000000000250028002B0000000000DE
:1000800023002600290004040404040404040202DA
:100090000202020203030303030301020408102007
:1000A0004080010204081020010204081020000012
:1000B0000008000201000003040700000000000027
:1000C0000000F00811241FBECFEFD8E0DEBFCDBF87
:1000D00012E0A0E0B1E0E2E7F3E202C005900D9289
:1000E000AC36B107D9F723E0ACE6B2E001C01D920F
:1000F000A737B207E1F710E0C2E6D0E004C02197CD
:10010000FE010E948710C136D107C9F70E941A0A62
:100110000C94B7110C9400008F929F92AF92BF92F3
:10012000CF92DF92EF92FF920F931F93CF93DF93C3
:100130008B01D82FC92F9B01482F592F609147035E
:10014000709148038091490390914A030E941A0ECE
:10015000882309F43EC080904B0390904C03A090FC
:100160004D03B0904E0375016401F7FAF094F7F86F
:10017000F094A7019601B8018D2F9C2F0E941A0EB2
:1001800087FD0EC0A5019401B8018D2F9C2F0E9400
:10019000790F7501640118161CF06801ED2EFC2E14
:1001A00020E030E0A901C701B6010E941A0E8111BA
:1001B0001DC0109232031092330310923403109238
:1001C0003503C0924703D0924803E0924903F0926E
:1001D0004A03DF91CF911F910F91FF90EF90DF9035
:1001E000CF90BF90AF909F908F900895A7019601F8
:1001F00060E074E284E799E40E941F0E9F770E94FA
:10020000980E60933203709333038093340390937A
:100210003503C1E020E030E0A901C701B6010E942A
:10022000790F18160CF0C0E0C0933103CACF8330A9
:1002300081F028F4813099F08230A9F00895873058
:10024000A9F08830C9F08430B1F4809180008F7DAE
:1002500003C0809180008F7780938000089584B5DB
:100260008F7784BD089584B58F7DFBCF8091B000DA
:100270008F778093B00008958091B0008F7DF9CF83
:10028000CF93DF93282F30E0F901E255FF4F84919F
:10029000F901E656FF4FD491F901EA57FF4FC49197
:1002A000CC23A1F081110E941701EC2FF0E0EE0F9A
:1002B000FF1FE458FF4FA591B491EC91ED2381E02D
:1002C00090E009F480E0DF91CF91089580E090E024
:1002D000FACF1F93CF93DF93282F30E0F901E25537
:1002E000FF4F8491F901E656FF4FD491F901EA5787
:1002F000FF4FC491CC23A9F0162F81110E94170142
:10030000EC2FF0E0EE0FFF1FEE58FF4FA591B491D8
:100310008FB7F894EC91111108C0D095DE23DC93CF
:100320008FBFDF91CF911F910895DE2BF8CFCF9330
:10033000DF9390E0FC01E656FF4F24918A579F4FD0
:10034000FC0184918823C9F090E0880F991FFC017B
:10035000E859FF4FA591B491FC01EE58FF4FC591AC
:10036000D49161110DC09FB7F8948C912095822390
:100370008C938881282328839FBFDF91CF91089594
:10038000623051F49FB7F8943C91822F809583237B
:100390008C93E8812E2BEFCF8FB7F894EC912E2B16
:1003A0002C938FBFEACF2FB7F894609178027091A9
:1003B000790280917A0290917B022FBF0895AF92CB
:1003C000BF92CF92DF92EF92FF920F931F93CF9342
:1003D000DF936C017B018B01040F151FEB015E01A4
:1003E000AE18BF08C017D10759F06991D601ED9139
:1003F000FC910190F081E02DC6010995892B79F7D8
:10040000C501DF91CF911F910F91FF90EF90DF9089
:10041000CF90BF90AF900895FC01538D448D252F50
:1004200030E0842F90E0821B930B541710F0CF968E
:10043000089501970895FC01918D828D981761F0C0
:10044000A28DAE0FBF2FB11D5D968C91928D9F5FD7
:100450009F73928F90E008958FEF9FEF0895FC01B6
:10046000918D828D981731F0828DE80FF11D858D69
:1004700090E008958FEF9FEF0895FC01918D228DFC
:10048000892F90E0805C9F4F821B91098F73992781
:10049000089580E892E00E943D0221E0892B09F452
:1004A00020E0822F089580E090E0892B29F00E94BF
:1004B000490281110C9400000895FC01A48DA80F3D
:1004C000B92FB11DA35ABF4F2C91848D90E0019696
:1004D0008F739927848FA689B7892C93A089B189B6
:1004E0008C91837080648C93938D848D981306C057
:1004F0000288F389E02D80818F7D80830895EF92BB
:10050000FF920F931F93CF93DF93EC0181E0888FCD
:100510009B8D8C8D98131AC0E889F989808185FF9D
:1005200015C09FB7F894EE89FF896083E889F9893F
:1005300080818370806480839FBF81E090E0DF9141
:10054000CF911F910F91FF90EF900895F62E0B8D94
:1005500010E00F5F1F4F0F731127E02E8C8D8E114F
:100560000CC00FB607FCFACFE889F989808185FFB6
:10057000F5CFCE010E945D02F1CFEB8DEC0FFD2F88
:10058000F11DE35AFF4FF0829FB7F8940B8FEA8971
:10059000FB8980818062CFCFCF93DF93EC01888D80
:1005A0008823B9F0AA89BB89E889F9898C9185FDEE
:1005B00003C0808186FD0DC00FB607FCF7CF8C917C
:1005C00085FFF2CF808185FFEDCFCE010E945D02D5
:1005D000E9CFDF91CF910895862F642F0C94970176
:1005E000FC0181890E94400121E0892B09F420E06F
:1005F000822F0895CF93DF93FC012781222359F1A5
:10060000EC0161E080850E94970161E089850E948C
:1006100097018F81843011F08830B1F461E08A85D0
:100620000E94970161E08B850E9497018FA58F3F03
:1006300091F061E00E9497016EA581E068278FA587
:10064000DF91CF910C946901833011F0863071F7FE
:1006500061E08A85E9CFDF91CF910895CF93DF9351
:10066000FC0127812223A9F0EC010190F081E02D0B
:100670000284F385E02D60E009958FA58F3F49F056
:1006800061E00E9497016EA58FA5DF91CF910C9438
:100690006901DF91CF910895DC01ED91FC912285F4
:1006A00033854770552766277727415051096109DF
:1006B0007109473051056105710560F4FA01ED5982
:1006C000FC4F0C9487106D036F0371037303750364
:1006D0007703790361E0F901099465E0FCCF64E0F8
:1006E000FACF66E0F8CF62E0F6CF6AE0F4CF68E0D8
:1006F000F2CF69E0F0CFCF93DF93EC01CB01BA01E9
:1007000026E030E040E050E00E9468106230710561
:100710008105910589F16CF46115710581059105DB
:10072000D1F06130710581059105F9F0DF91CF912C
:100730000895643071058105910561F124F16530FA
:1007400071058105910591F7E881F9810284F385AE
:10075000E02D66E006C0E881F9810284F385E02D92
:1007600064E0CE01DF91CF910994E881F9810284A0
:10077000F385E02D65E0F5CFE881F9810284F3850A
:10078000E02D61E0EECFE881F9810284F385E02D70
:1007900063E0E7CFE881F9810284F385E02D62E030
:1007A000E0CFDC01ED91FC910284F385E02D4370F4
:1007B000552766277727423051056105710571F08D
:1007C000433051056105710559F04130510561050E
:1007D000710511F065E0099466E0FDCF6AE0FBCF9A
:1007E00069E0F9CFCF93DF93EC01CB01BA0123E0AD
:1007F00030E040E050E00E946810613071058105F2
:10080000910599F06230710581059105A9F0672B7A
:10081000682B692BC1F4E881F9810284F385E02D0E
:1008200064E0CE01DF91CF910994E881F9810284DF
:10083000F385E02D61E0F5CFE881F9810284F3854D
:10084000E02D62E0EECFDF91CF910895DC01ED91D4
:10085000FC910284F385E02D4370552766277727A6
:10086000423051056105710571F043305105610554
:10087000710559F0413051056105710511F062E0D3
:10088000099463E0FDCF61E0FBCF60E0F9CFCF9347
:10089000DF93EC01E881F9810284F385E02D8A8100
:1008A00060E0811162E0CE010995E881F98102845E
:1008B000F385E02D8A8161E0811163E0CE01099525
:1008C0008CA59DA58230910538F0880F991F880F5F
:1008D000991F05970197F1F7E881F9810284F38563
:1008E000E02D8A8160E0811162E0CE01DF91CF913D
:1008F0000994CF93DF93EC0120E030E0A901688DEB
:10090000798D8A8D9B8D0E94790F18162CF4E8A999
:10091000F9A9DF91CF910994EAA9FBA9FACFCF9267
:10092000DF92EF92FF920F931F93CF93DF93DC013F
:100930001796CC91C43039F0C83059F1C33019F052
:10094000C63049F1C2E08C01085F1F4FF12CE12C49
:10095000C62ED12CD1E0F8016481C6010E2C02C054
:10096000959587950A94E2F780FD6D270F5F1F4FDD
:1009700080810E946901BFEFEB1AFB0AEC1658F365
:10098000DF91CF911F910F91FF90EF90DF90CF906B
:100990000895C4E0D8CFC3E0D6CFDC011796EC9120
:1009A0001797E93008F038C0F0E0E752FB4F0C949D
:1009B0008710E204E804EE04F404FA040C050005D0
:1009C0000C050605ED91FC910684F785E02D099450
:1009D000ED91FC910088F189E02DF9CFED91FC912A
:1009E0000288F389E02DF3CFED91FC910488F5891D
:1009F000E02DEDCFED91FC910688F789E02DE7CF52
:100A0000ED91FC91008CF18DE02DE1CFED91FC9109
:100A1000028CF38DE02DDBCF0895CF92DF92EF9221
:100A2000FF928091320390913303A0913403B091EF
:100A30003503892B8A2B8B2B31F480E0FF90EF90CC
:100A4000DF90CF9008953FB7F89480917C02909109
:100A50007D02A0917E02B0917F0226B5A89B05C0C1
:100A60002F3F19F00196A11DB11D3FBFBA2FA92F2D
:100A7000982F88276C017D01C20ED11CE11CF11C4E
:100A800042E0CC0CDD1CEE1CFF1C4A95D1F7809196
:100A9000570390915803A0915903B0915A03B7019D
:100AA000A601481B590B6A0B7B0B80913203909176
:100AB0003303A0913403B0913503481759076A07EF
:100AC0007B0708F4BACF80913F0390914003A09137
:100AD0004103B091420320913103222309F1019691
:100AE000A11DB11D80933F0390934003A093410348
:100AF000B093420340913F03509140036091410302
:100B0000709142038FE293E00E94CD04C09257039C
:100B1000D0925803E0925903F0925A0381E08ECFAD
:100B20000197A109B109DECF4F925F926F927F9238
:100B30008F929F92AF92BF92CF92DF92EF92FF92ED
:100B40000F931F93CF93DF93EC01CC88DD88EE8861
:100B5000FF8888899989AA89BB89C81AD90AEA0AAB
:100B6000FB0A688D798D8A8D9B8D9B01AC010E945B
:100B70007E0F4B015C0168A179A18AA19BA19B0119
:100B8000AC010E94AE0D9B01AC01C501B4010E94F5
:100B90001F0E0E94910EC114D104E104F10409F06A
:100BA000B6C062307105810591050CF0D0C01B8282
:100BB0001C821D821E82188E198E1A8E1B8E1CAAF4
:100BC0001DAA1EAA1FAAC12CD12C7601C701B601ED
:100BD000DF91CF911F910F91FF90EF90DF90CF9019
:100BE000BF90AF909F908F907F906F905F904F904D
:100BF00008951016110612061306B4F46C157D053F
:100C00008E059F051CF42A812111A1C09B01AC0116
:100C100088279927DC01821B930BA40BB50B8CABA7
:100C20009DABAEABBFAB93C00115110521053105DE
:100C300009F48DC06C157D058E059F050CF087C0ED
:100C40008A81882309F483C03095209510950195F9
:100C50001F4F2F4F3F4F0CAB1DAB2EAB3FAB77C0A1
:100C6000011511052105310509F471C08824992465
:100C700054018C189D08AE08BF08681579058A05CF
:100C80009B050CF064C08A81811161C0DDCFCCACC2
:100C9000DDACEEACFFACA7019601C701B6010E9426
:100CA000AE0D2B013C01C501B4010E94C90E20E02C
:100CB00030E040E850E40E947E0F20E030E040E861
:100CC0005FE30E94AE0D9B01AC01C301B2010E9423
:100CD0001F0E9B01AC01C701B6010E94AD0D3B0187
:100CE0006C01FE01E05CFF4FE080F1800281138126
:100CF0009701A8010E94790F181614F47301860158
:100D0000C701D8018CAF9DAFAEAFBFAF3AC00CA941
:100D10001DA92EA93FA91C141D041E041F040CF4B8
:100D200068CF10161106120613060CF099CF002793
:100D3000112798010C191D092E093F096017710729
:100D4000820793070CF062CF2A8121115FCF8CA814
:100D50009DA8AEA8BFA881149104A104B10409F014
:100D600096CF88AD99ADAAADBBAD8CAF9DAFAEAF00
:100D7000BFAF81E01C141D041E041F040CF080E0B2
:100D80008A833FEF831A930AA30AB30A8CAA9DAA07
:100D9000AEAABFAA8CAC9DACAEACBFACC501B401D1
:100DA0000E94980E6B017C01CB82DC82ED82FE8278
:100DB000A501940160E074E284E799E40E941F0EAB
:100DC000688F798F8A8F9B8F2A812111FFCE90584F
:100DD000688F798F8A8F9B8FF9CECF92DF92EF92B7
:100DE000FF92CF93DF93CFE2D3E0688D798D8A8D28
:100DF0009B8D9B01AC010E947E0F6B017C0168A161
:100E000079A18AA19BA19B01AC010E94AE0D9B011F
:100E1000AC01C701B6010E941F0E0E94910E6CAB7F
:100E20007DAB8EAB9FABCE01DF91CF91FF90EF906A
:100E3000DF90CF900C94940508954F925F926F923B
:100E40007F928F929F92AF92BF92CF92DF92EF925A
:100E5000FF926B017C0120E030E0A9010E941A0E94
:100E600087FF04C0F7FAF094F7F8F09480904F03EE
:100E700090905003A0905103B0905203A7019601A7
:100E8000C501B4010E941A0E882309F458C060916C
:100E900063037091640380916503909166030E94DF
:100EA000C90E2B013C01A7019601C501B4010E94A6
:100EB0001F0E9B01AC01C301B2010E947E0F0E9474
:100EC000910E609363037093640380936503909322
:100ED0006603A701960160E070E080E090E40E9464
:100EE0001F0E0E94F10F26E53EE04DE25FE30E94F7
:100EF0007E0F20E034E244E759E40E947E0F6093C5
:100F00006703709368038093690390936A03C092A8
:100F10004F03D0925003E0925103F09252038FE2BC
:100F200093E0FF90EF90DF90CF90BF90AF909F90B5
:100F30008F907F906F905F904F900C949405FF90EE
:100F4000EF90DF90CF90BF90AF909F908F907F9069
:100F50006F905F904F900895FC0101900020E9F799
:100F60003197AF01481B590BBC0180E892E00C940B
:100F7000DF01CF93DF930E94AC07EC0180E491E0A6
:100F80000E94AC078C0F9D1FDF91CF9108958F9227
:100F90009F92AF92BF92CF92DF92EF92FF920F9308
:100FA0001F93CF93DF93CDB7DEB7A1970FB6F89419
:100FB000DEBF0FBECDBF6B017C01F7FE47C06DE207
:100FC00080E892E00E947F028C0122273327A9014A
:100FD0002C193D094E095F0919A2CE0181967C01A9
:100FE0009AE0892E912CA12CB12CCA01B901A5013E
:100FF00094010E944610605DF70162937F01211504
:1010000031054105510589F790E080E0309719F0EE
:10101000CF010E94AC07080F191F80E491E00E94E5
:10102000AC07800F911FA1960FB6F894DEBF0FBEDC
:10103000CDBFDF91CF911F910F91FF90EF90DF9087
:10104000CF90BF90AF909F908F900895AC019B017F
:1010500019A28E010F5D1F4F8AE0C82ED12CE12C02
:10106000F12CCA01B901A70196010E944610605DEA
:10107000F80162938F01211531054105510589F76A
:10108000309729F0CF010E94AC078C01C6CF10E049
:1010900000E0C3CF0E94B2110C9429111F920F924D
:1010A0000FB60F9211242F933F938F939F93AF937B
:1010B000BF938091780290917902A0917A02B091C9
:1010C0007B023091770223E0230F2D3758F50196EC
:1010D000A11DB11D2093770280937802909379022D
:1010E000A0937A02B0937B0280917C0290917D0262
:1010F000A0917E02B0917F020196A11DB11D809347
:101100007C0290937D02A0937E02B0937F02BF91F8
:10111000AF919F918F913F912F910F900FBE0F90A4
:101120001F90189526E8230F0296A11DB11DD2CF5E
:101130001F920F920FB60F9211242F933F934F934C
:101140005F936F937F938F939F93AF93BF93EF932F
:10115000FF9380E892E00E945D02FF91EF91BF91C2
:10116000AF919F918F917F916F915F914F913F913F
:101170002F910F900FBE0F901F9018951F920F92F6
:101180000FB60F9211242F938F939F93EF93FF939A
:10119000E0919002F09191028081E0919602F091AD
:1011A000970282FD1BC09081809199028F5F8F739F
:1011B00020919A02821741F0E0919902F0E0E05804
:1011C000FD4F958F80939902FF91EF919F918F91A1
:1011D0002F910F900FBE0F901F9018958081F4CF24
:1011E000CF92DF92EF92FF921092830210928202CE
:1011F00088EE93E0A0E0B0E08093840290938502B3
:10120000A0938602B09387028AE091E090938102D6
:101210008093800285EC90E090938D0280938C0205
:1012200084EC90E090938F0280938E0280EC90E0AB
:10123000909391028093900281EC90E090939302BE
:101240008093920282EC90E09093950280939402B6
:1012500086EC90E090939702809396021092990208
:1012600010929A0210929B0210929C0284E291E0EA
:101270009093300380932F0381E080933603109284
:101280003F031092400310924103109242031092C8
:1012900043031092440310924503109246031092A8
:1012A0004703109248031092490310924A03109288
:1012B0004B0310924C0310924D0310924E03109268
:1012C0004F03109250031092510310925203C12CFD
:1012D000D12C80E8E82E8FE3F82EC0925303D092F1
:1012E0005403E0925503F092560310923203109289
:1012F0003303109234031092350381E090E0909311
:101300005C0380935B038FEF80935E03109257031F
:10131000109258031092590310925A0394E090933C
:10132000370385E0809338039093390380933A0321
:1013300010925D0310926303109264031092650390
:10134000109266031092670310926803109269036B
:1013500010926A0310926B0310926C0310926D034B
:1013600010926E03C0926F03D0927003E0927103EB
:10137000F09272031092310310923B0310923C03DF
:1013800010923D0310923E038FE293E00E94FA0216
:10139000C701B6010E941D07A701960160914B038A
:1013A00070914C0380914D0390914E030E941A0E50
:1013B000882319F1C0924B03D0924C03E0924D0365
:1013C000F0924E0380E094E2A4E7B9E480936F03C7
:1013D00090937003A0937103B093720380916303A1
:1013E00090916403A0916503B091660318161906E5
:1013F0001A061B0614F40E94ED0610921F031092A9
:10140000200310922103109222038AE090E090932F
:10141000240380932303109225038CE191E09093A1
:101420001E0380931D0310922E03FF90EF90DF9018
:10143000CF900895CF93DF9300D000D0CDB7DEB723
:10144000789484B5826084BD84B5816084BD85B59F
:10145000826085BD85B5816085BD80916E008160AB
:1014600080936E0010928100809181008260809351
:101470008100809181008160809381008091800053
:101480008160809380008091B10084608093B1007E
:101490008091B00081608093B00080917A00846078
:1014A00080937A0080917A00826080937A008091A4
:1014B0007A00816080937A0080917A0080688093BE
:1014C0007A001092C100E0919002F091910282E0C6
:1014D0008083E0918C02F0918D021082E0918E0267
:1014E000F0918F0280E1808310929802E091940243
:1014F000F091950286E08083E0919202F091930250
:10150000808180618083E0919202F09193028081DA
:1015100088608083E0919202F091930280818068DC
:101520008083E0919202F091930280818F7D80838D
:1015300010923B0381E080933C0310925D0362E0D4
:1015400082E00E94970161E086E00E94970161E0DD
:1015500083E00E94970162E08EE00E94970161E0C3
:1015600083E00E94690160E086E00E9469018EE0EC
:1015700080932E03109225038DE193E00E94F002E8
:10158000882329F0809125038360809325030E949E
:10159000D30160931F0370932003809321039093E2
:1015A000220389E190E0909324038093230320E0B9
:1015B00030E04AE754E460914B0370914C03809112
:1015C0004D0390914E030E941A0E882319F180E07A
:1015D00090E0AAE7B4E480934B0390934C03A0936C
:1015E0004D03B0934E0380936F0390937003A093C9
:1015F0007103B09372038091630390916403A0918F
:101600006503B0916603181619061A061B0614F432
:101610000E94ED0660E070E08AE794E40E941D07F6
:1016200083E491E00E94B90704E010E085E0282EF1
:10163000312C809125038B7F809325038DE193E0EE
:101640000E94F002F82E8091250386958170F8168D
:1016500009F4BCC00E94D30160931F037093200360
:1016600080932103909322038091250322E0822717
:1016700080932503809125038570853051F48091F6
:101680007602882331F01092760282E791E00E9480
:10169000B9078091760281118CC08091250380FD6D
:1016A00056C082FF54C08091740290917502892BBC
:1016B00009F04DC060E083E00E94690160E086E0CF
:1016C0000E94690184E891E00E94B90710923F03EB
:1016D0001092400310924103109242031092430370
:1016E0001092440310924503109246031092630334
:1016F00010926403109265031092660310923203F5
:101700001092330310923403109235031092470362
:10171000109248031092490310924A030E94D30189
:1017200060937002709371028093720290937302BF
:1017300082E00E944001892B21F08DE991E00E9416
:10174000B907A1E0B0E0B0937502A0937402809154
:10175000740290917502892B61F182E00E94400130
:101760007C010E94D3018090700290907102A09041
:101770007202B0907302681979098A099B09613E67
:101780007E428105910520F030927502209274020C
:1017900080917402909175028330910509F414C10F
:1017A00008F068C08130910509F47BC0029709F404
:1017B000CDC0A0E0B0E0AB2B09F43BCF0E944902C2
:1017C000882309F436CF0E94000033CF0E94D30152
:1017D00080901F0390902003A0902103B0902203DB
:1017E000AB01BC01481959096A097B09809123039F
:1017F00090912403B0E0A0E0481759076A077B07DF
:1018000008F438CF809125038170F81609F432CF9F
:101810000E94D30160931F037093200380932103E0
:10182000909322038091250391E08927846080931F
:1018300025030E94D301C0902603D0902703E09097
:101840002803F09029036C197D098E099F09609384
:101850002A0370932B0380932C0390932D030E94F3
:10186000D3016093260370932703809328039093FA
:10187000290300CF8430910509F462C1059709F06E
:1018800098CF87E592E00E94B90761E083E00E946B
:10189000690191E0909376021092750210927402A1
:1018A00088CF60E070E08AE794E40E948C000E9498
:1018B0000D05EF2809F47DCF80913F0390914003FF
:1018C000A0914103B091420380936C0290936D020A
:1018D000A0936E02B0936F0282ED91E00E94AC077C
:1018E00060916C0270916D0280916E0290916F0216
:1018F0000E94C70780916C0290916D02A0916E02C8
:10190000B0916F028C509E4FAF4FBF4F4091430339
:1019100050914403609145037091460384179507E5
:10192000A607B70761F08093430390934403A09305
:101930004503B09346038FE293E00E94940582E052
:1019400090E0909375028093740233CF60E070E072
:101950008AEF93EC0E948C000E940D0580913F035A
:1019600090914003A0914103B0914203EF28E9F424
:1019700080936C0290936D02A0936E02B0936F02FD
:1019800088EE91E00E94AC0760916C0270916D024C
:1019900080916E0290916F020E94C707A3E0B0E0B1
:1019A000B0937502A093740204CF8D399F4FAF4F4F
:1019B000BF4F0CF0FECE8FEF91E00E94B90730923E
:1019C000750220927402F5CE60E070E08AEF93EC2D
:1019D0000E948C000E940D0540903F0350904003F0
:1019E000609041037090420380916C0290916D026F
:1019F000A0916E02B0916F02835F9140A109B1097D
:101A0000481659066A067B060CF0D3CE8090470331
:101A100090904803A0904903B0904A0320E030E042
:101A2000A901C501B4010E941A0E882309F452C00D
:101A3000A5019401C501B4010E947E0F6B017C01D8
:101A400060914F0370915003809151039091520324
:101A50009B01AC010E94AE0D9B01AC01C701B60118
:101A60000E941F0E0E94910E6B017C018091430326
:101A700090914403A0914503B091460389839A83D2
:101A8000AB83BC8320E030E0A901C501B4010E9412
:101A9000790F18160CF04FC09FEFC91AD90AE90A3E
:101AA000F90AC40CD51CE61CF71C89819A81AB810C
:101AB000BC818C159D05AE05BF0561F0C092430346
:101AC000D0924403E0924503F09246038FE293E004
:101AD0000E94940510923F0310924003109241031C
:101AE0001092420310924303109244031092450354
:101AF00010924603109263031092640310926503E0
:101B00001092660310923203109233031092340342
:101B10001092350310924703109248031092490324
:101B200010924A03109375020093740261E083E0FF
:101B30000E9469013ECEC094D094E094F094B1CF5D
:101B400089E392E00E94B90761E086E00E946901A2
:101B50001092750210927402E9CF5058BB27AA2741
:101B60000E94C50D0C943F0F0E94310F38F00E9467
:101B7000380F20F039F49F3F19F426F40C942E0FFF
:101B80000EF4E095E7FB0C94280FE92F0E94500F0C
:101B900058F3BA17620773078407950720F079F4A2
:101BA000A6F50C94720F0EF4E0950B2EBA2FA02D13
:101BB0000B01B90190010C01CA01A0011124FF27FA
:101BC000591B99F0593F50F4503E68F11A16F040F5
:101BD000A22F232F342F4427585FF3CF46953795F4
:101BE0002795A795F0405395C9F77EF41F16BA0BB9
:101BF000620B730B840BBAF09150A1F0FF0FBB1F67
:101C0000661F771F881FC2F70EC0BA0F621F731FAF
:101C1000841F48F4879577956795B795F7959E3F0C
:101C200008F0B0CF9395880F08F09927EE0F97959D
:101C3000879508950E94040F08F481E008950E949A
:101C4000330E0C943F0F0E94380F58F00E94310F52
:101C500040F029F45F3F29F00C94280F51110C94A7
:101C6000730F0C942E0F0E94500F68F39923B1F359
:101C7000552391F3951B550BBB27AA2762177307B2
:101C8000840738F09F5F5F4F220F331F441FAA1F46
:101C9000A9F335D00E2E3AF0E0E832D09150504002
:101CA000E695001CCAF72BD0FE2F29D0660F771FB0
:101CB000881FBB1F261737074807AB07B0E809F096
:101CC000BB0B802DBF01FF2793585F4F3AF09E3F1B
:101CD000510578F00C94280F0C94730F5F3FE4F3D8
:101CE000983ED4F3869577956795B795F7959F5F5E
:101CF000C9F7880F911D9695879597F90895E1E0AA
:101D0000660F771F881FBB1F621773078407BA0708
:101D100020F0621B730B840BBA0BEE1F88F7E09563
:101D200008950E94980E6894B1110C94730F089551
:101D30000E94580F88F09F5798F0B92F9927B751F4
:101D4000B0F0E1F0660F771F881F991F1AF0BA955F
:101D5000C9F714C0B13091F00E94720FB1E008953C
:101D60000C94720F672F782F8827B85F39F0B93F2E
:101D7000CCF3869577956795B395D9F73EF4909512
:101D80008095709561957F4F8F4F9F4F0895E89490
:101D900009C097FB3EF490958095709561957F4FB3
:101DA0008F4F9F4F9923A9F0F92F96E9BB27939561
:101DB000F695879577956795B795F111F8CFFAF471
:101DC000BB0F11F460FF1BC06F5F7F4F8F4F9F4FA2
:101DD00016C0882311F096E911C0772321F09EE800
:101DE000872F762F05C0662371F096E8862F70E066
:101DF00060E02AF09A95660F771F881FDAF7880F40
:101E00009695879597F90895990F0008550FAA0B95
:101E1000E0E8FEEF16161706E807F907C0F01216FD
:101E20001306E407F50798F0621B730B840B950B00
:101E300039F40A2661F0232B242B252B21F4089555
:101E40000A2609F4A140A6958FEF811D811D0895F2
:101E500097F99F6780E870E060E008959FEF80EC5D
:101E6000089500240A941616170618060906089500
:101E700000240A9412161306140605060895092E66
:101E80000394000C11F4882352F0BB0F40F4BF2BD5
:101E900011F460FF04C06F5F7F4F8F4F9F4F089515
:101EA00057FD9058440F551F59F05F3F71F047950B
:101EB000880F97FB991F61F09F3F79F087950895F0
:101EC000121613061406551FF2CF4695F1DF08C00F
:101ED000161617061806991FF1CF8695710561052C
:101EE00008940895E894BB2766277727CB0197F9D4
:101EF00008950E94040F08F48FEF08950E94910F37
:101F00000C943F0F0E94310F38F00E94380F20F0E0
:101F1000952311F00C94280F0C942E0F11240C947F
:101F2000730F0E94500F70F3959FC1F3950F50E00F
:101F3000551F629FF001729FBB27F00DB11D639F7B
:101F4000AA27F00DB11DAA1F649F6627B00DA11D21
:101F5000661F829F2227B00DA11D621F739FB00DC7
:101F6000A11D621F839FA00D611D221F749F332737
:101F7000A00D611D231F849F600D211D822F762FD0
:101F80006A2F11249F5750409AF0F1F088234AF0AD
:101F9000EE0FFF1FBB1F661F771F881F9150504019
:101FA000A9F79E3F510580F00C94280F0C94730FF5
:101FB0005F3FE4F3983ED4F3869577956795B795A0
:101FC000F795E7959F5FC1F7FE2B880F911D9695BA
:101FD000879597F9089519F416F40C942E0F0C9424
:101FE00031100E94580FB8F39923C9F3B6F39F57E5
:101FF000550B87FF0E943F100024A0E640EA9001A5
:1020000080585695979528F4805C660F771F881F37
:1020100020F026173707480730F4621B730B840B38
:10202000202931294A2BA69517940794202531257C
:102030004A2758F7660F771F881F20F026173707A3
:10204000480730F4620B730B840B200D311D411DCA
:10205000A09581F7B901842F9158880F969587959F
:1020600008959F3F31F0915020F4879577956795BB
:10207000B795880F911D9695879597F9089591507A
:102080005040660F771F881FD2F70895A1E21A2EDD
:10209000AA1BBB1BFD010DC0AA1FBB1FEE1FFF1F0C
:1020A000A217B307E407F50720F0A21BB30BE40B5C
:1020B000F50B661F771F881F991F1A9469F76095A3
:1020C0007095809590959B01AC01BD01CF0108955D
:1020D000052E97FB1EF400940E947F1057FD07D039
:1020E0000E94461007FC03D04EF40C947F105095CC
:1020F0004095309521953F4F4F4F5F4F08959095F4
:102100008095709561957F4F8F4F9F4F0895EE0F8B
:10211000FF1F0590F491E02D09940F931F93CF9327
:10212000DF938230910510F482E090E0E091750336
:10213000F091760330E020E0B0E0A0E0309799F431
:102140002115310509F44AC0281B390B243031050B
:10215000D8F58A819B816115710589F1FB01938313
:102160008283FE0111C04081518102811381481791
:102170005907E0F04817590799F4109761F0129643
:102180000C93129713961C933296CF01DF91CF9147
:102190001F910F9108950093750310937603F4CF68
:1021A0002115310551F04217530738F0A901DB0121
:1021B0009A01BD01DF01F801C1CFEF01F9CF909382
:1021C000760380937503CDCFFE01E20FF31F819359
:1021D00091932250310939832883D7CF20917303FB
:1021E00030917403232B41F42091020130910301BB
:1021F0003093740320937303209100013091010107
:102200002115310541F42DB73EB74091040150919D
:102210000501241B350BE0917303F0917403E21761
:10222000F307A0F42E1B3F0B2817390778F0AC01F9
:102230004E5F5F4F2417350748F04E0F5F1F5093D6
:10224000740340937303819391939FCFF0E0E0E098
:102250009CCFCF93DF930097E9F0FC013297138274
:102260001282A0917503B0917603ED0130E020E079
:102270001097A1F420813181820F931F2091730365
:10228000309174032817390709F061C0F093740383
:10229000E0937303DF91CF910895EA01CE17DF0732
:1022A000E8F54A815B819E0141155105B1F7E901CD
:1022B000FB83EA8349915991C40FD51FEC17FD07A1
:1022C00061F4808191810296840F951FE9019983C1
:1022D0008883828193819B838A83F0E0E0E0129679
:1022E0008D919C9113970097B9F52D913C91119781
:1022F000CD010296820F931F2091730330917403D6
:102300002817390739F6309751F510927603109255
:102310007503B0937403A0937303BCCFD383C283BC
:1023200040815181840F951FC817D90761F44E5F12
:102330005F4F88819981480F591F518340838A815B
:102340009B81938382832115310509F0B0CFF093EF
:102350007603E09375039ECFFD01DC01C0CF1382AD
:102360001282D7CF81E090E0F8940C94B711F894E2
:10237000FFCF000077038000000000007F02DF0134
:102380000C02CC023D021B022F0200000000F002F2
:10239000EC02000000002E03FA021C074C08940512
:1023A0008F04CD04790447042604F203D1037B0390
:1023B0004C030D0A0053697374656D61206C697379
:1023C000746F2E2050726573696F6E6120656C208A
:1023D000626F74C3B36E207061726120686F6D6943
:1023E0006E672E00F09F948420486F6D696E6720A1
:1023F000726573657400F09F94B920496E696369D2
:10240000616E646F20686F6D696E672E2E2E00E21C
:102410009AA0EFB88F20417272616E717565206667
:10242000756572612064656C20696DC3A16E20289A
:1024300062C3BA737175656461206C696D6974619A
:1024400064612900466C616E636F2064652073616E
:102450006C69646120656E3A2000466C616E636F42
:1024600020646520656E747261646120656E3A2037
:1024700000E29AA0EFB88F20486F6D696E67206503
:1024800072726F723A206CC3AD6D697465206465B9
:102490002062C3BA73717565646120636F72746181
:1024A00020616C63616E7A61646F00E29C852048F4
:1024B0006F6D696E67204F4B2E20526566657265A1
:1024C0006E636961203D203000E29D8C20455252B0
:0E24D0004F5220646520686F6D696E670000D2
:107E0000112484B714BE81FFF0D085E080938100F7
:107E100082E08093C00088E18093C10086E0809377
:107E2000C20080E18093C4008EE0C9D0259A86E02C
:107E300020E33CEF91E0309385002093840096BBD3
:107E4000B09BFECF1D9AA8958150A9F7CC24DD24C4
:107E500088248394B5E0AB2EA1E19A2EF3E0BF2EE7
:107E6000A2D0813461F49FD0082FAFD0023811F036
:107E7000013811F484E001C083E08DD089C08234E0
:107E800011F484E103C0853419F485E0A6D080C0E4
:107E9000853579F488D0E82EFF2485D0082F10E0AE
:107EA000102F00270E291F29000F111F8ED06801E7
:107EB0006FC0863521F484E090D080E0DECF843638
:107EC00009F040C070D06FD0082F6DD080E0C81688
:107ED00080E7D80618F4F601B7BEE895C0E0D1E017
:107EE00062D089930C17E1F7F0E0CF16F0E7DF06D8
:107EF00018F0F601B7BEE89568D007B600FCFDCFD4
:107F0000A601A0E0B1E02C9130E011968C91119780
:107F100090E0982F8827822B932B1296FA010C0160
:107F200087BEE89511244E5F5F4FF1E0A038BF0790
:107F300051F7F601A7BEE89507B600FCFDCF97BE46
:107F4000E89526C08437B1F42ED02DD0F82E2BD052
:107F50003CD0F601EF2C8F010F5F1F4F84911BD097
:107F6000EA94F801C1F70894C11CD11CFA94CF0C13
:107F7000D11C0EC0853739F428D08EE10CD085E9AC
:107F80000AD08FE07ACF813511F488E018D01DD067
:107F900080E101D065CF982F8091C00085FFFCCF94
:107FA0009093C60008958091C00087FFFCCF809118
:107FB000C00084FD01C0A8958091C6000895E0E648
:107FC000F0E098E1908380830895EDDF803219F02E
:107FD00088E0F5DFFFCF84E1DECF1F93182FE3DFCA
:107FE0001150E9F7F2DF1F91089580E0E8DFEE27F6
:047FF000FF270994CA
:027FFE00040479
:00000001FF
